{
  "_format": "hh-sol-artifact-1",
  "contractName": "KpiManagement",
  "sourceName": "contracts/KpiManagement.sol",
  "abi": [
    {
      "inputs": [],
      "stateMutability": "nonpayable",
      "type": "constructor"
    },
    {
      "anonymous": false,
      "inputs": [
        {
          "indexed": true,
          "internalType": "string",
          "name": "kpiId",
          "type": "string"
        },
        {
          "indexed": false,
          "internalType": "string",
          "name": "tenKpi",
          "type": "string"
        },
        {
          "indexed": false,
          "internalType": "string",
          "name": "loaiKpi",
          "type": "string"
        }
      ],
      "name": "KpiCriteriaCreated",
      "type": "event"
    },
    {
      "anonymous": false,
      "inputs": [
        {
          "indexed": true,
          "internalType": "string",
          "name": "kpiId",
          "type": "string"
        }
      ],
      "name": "KpiCriteriaDeactivated",
      "type": "event"
    },
    {
      "anonymous": false,
      "inputs": [
        {
          "indexed": true,
          "internalType": "string",
          "name": "kpiId",
          "type": "string"
        },
        {
          "indexed": false,
          "internalType": "string",
          "name": "tenKpi",
          "type": "string"
        }
      ],
      "name": "KpiCriteriaUpdated",
      "type": "event"
    },
    {
      "anonymous": false,
      "inputs": [
        {
          "indexed": true,
          "internalType": "uint256",
          "name": "evaluationId",
          "type": "uint256"
        },
        {
          "indexed": false,
          "internalType": "string",
          "name": "nguoiDanhGiaDid",
          "type": "string"
        }
      ],
      "name": "KpiEvaluationApproved",
      "type": "event"
    },
    {
      "anonymous": false,
      "inputs": [
        {
          "indexed": true,
          "internalType": "uint256",
          "name": "evaluationId",
          "type": "uint256"
        },
        {
          "indexed": false,
          "internalType": "string",
          "name": "employeeDid",
          "type": "string"
        },
        {
          "indexed": false,
          "internalType": "string",
          "name": "kpiId",
          "type": "string"
        },
        {
          "indexed": false,
          "internalType": "string",
          "name": "kyDanhGia",
          "type": "string"
        }
      ],
      "name": "KpiEvaluationCreated",
      "type": "event"
    },
    {
      "anonymous": false,
      "inputs": [
        {
          "indexed": true,
          "internalType": "uint256",
          "name": "evaluationId",
          "type": "uint256"
        },
        {
          "indexed": false,
          "internalType": "uint256",
          "name": "diemSo",
          "type": "uint256"
        },
        {
          "indexed": false,
          "internalType": "string",
          "name": "xepLoai",
          "type": "string"
        }
      ],
      "name": "KpiEvaluationUpdated",
      "type": "event"
    },
    {
      "anonymous": false,
      "inputs": [
        {
          "indexed": true,
          "internalType": "address",
          "name": "previousOwner",
          "type": "address"
        },
        {
          "indexed": true,
          "internalType": "address",
          "name": "newOwner",
          "type": "address"
        }
      ],
      "name": "OwnershipTransferred",
      "type": "event"
    },
    {
      "anonymous": false,
      "inputs": [
        {
          "indexed": true,
          "internalType": "bytes32",
          "name": "role",
          "type": "bytes32"
        },
        {
          "indexed": true,
          "internalType": "bytes32",
          "name": "previousAdminRole",
          "type": "bytes32"
        },
        {
          "indexed": true,
          "internalType": "bytes32",
          "name": "newAdminRole",
          "type": "bytes32"
        }
      ],
      "name": "RoleAdminChanged",
      "type": "event"
    },
    {
      "anonymous": false,
      "inputs": [
        {
          "indexed": true,
          "internalType": "bytes32",
          "name": "role",
          "type": "bytes32"
        },
        {
          "indexed": true,
          "internalType": "address",
          "name": "account",
          "type": "address"
        },
        {
          "indexed": true,
          "internalType": "address",
          "name": "sender",
          "type": "address"
        }
      ],
      "name": "RoleGranted",
      "type": "event"
    },
    {
      "anonymous": false,
      "inputs": [
        {
          "indexed": true,
          "internalType": "bytes32",
          "name": "role",
          "type": "bytes32"
        },
        {
          "indexed": true,
          "internalType": "address",
          "name": "account",
          "type": "address"
        },
        {
          "indexed": true,
          "internalType": "address",
          "name": "sender",
          "type": "address"
        }
      ],
      "name": "RoleRevoked",
      "type": "event"
    },
    {
      "inputs": [],
      "name": "ADMIN_ROLE",
      "outputs": [
        {
          "internalType": "bytes32",
          "name": "",
          "type": "bytes32"
        }
      ],
      "stateMutability": "view",
      "type": "function"
    },
    {
      "inputs": [],
      "name": "DEFAULT_ADMIN_ROLE",
      "outputs": [
        {
          "internalType": "bytes32",
          "name": "",
          "type": "bytes32"
        }
      ],
      "stateMutability": "view",
      "type": "function"
    },
    {
      "inputs": [],
      "name": "EMPLOYEE_ROLE",
      "outputs": [
        {
          "internalType": "bytes32",
          "name": "",
          "type": "bytes32"
        }
      ],
      "stateMutability": "view",
      "type": "function"
    },
    {
      "inputs": [],
      "name": "EVALUATOR_ROLE",
      "outputs": [
        {
          "internalType": "bytes32",
          "name": "",
          "type": "bytes32"
        }
      ],
      "stateMutability": "view",
      "type": "function"
    },
    {
      "inputs": [
        {
          "internalType": "uint256",
          "name": "evaluationId",
          "type": "uint256"
        }
      ],
      "name": "approveKpiEvaluation",
      "outputs": [],
      "stateMutability": "nonpayable",
      "type": "function"
    },
    {
      "inputs": [
        {
          "internalType": "string",
          "name": "kpiId",
          "type": "string"
        },
        {
          "internalType": "string",
          "name": "tenKpi",
          "type": "string"
        },
        {
          "internalType": "string",
          "name": "moTa",
          "type": "string"
        },
        {
          "internalType": "string",
          "name": "loaiKpi",
          "type": "string"
        },
        {
          "internalType": "string",
          "name": "donViDo",
          "type": "string"
        },
        {
          "internalType": "uint256",
          "name": "trongSo",
          "type": "uint256"
        },
        {
          "internalType": "uint256",
          "name": "nguongDat",
          "type": "uint256"
        },
        {
          "internalType": "uint256",
          "name": "nguongXuatSac",
          "type": "uint256"
        },
        {
          "internalType": "string[]",
          "name": "apDungChoChucVu",
          "type": "string[]"
        },
        {
          "internalType": "string",
          "name": "chuKyDanhGia",
          "type": "string"
        }
      ],
      "name": "createKpiCriteria",
      "outputs": [],
      "stateMutability": "nonpayable",
      "type": "function"
    },
    {
      "inputs": [
        {
          "internalType": "string",
          "name": "employeeDid",
          "type": "string"
        },
        {
          "internalType": "string",
          "name": "kpiId",
          "type": "string"
        },
        {
          "internalType": "string",
          "name": "kyDanhGia",
          "type": "string"
        },
        {
          "internalType": "uint256",
          "name": "ngayBatDau",
          "type": "uint256"
        },
        {
          "internalType": "uint256",
          "name": "ngayKetThuc",
          "type": "uint256"
        },
        {
          "internalType": "uint256",
          "name": "giaTriThucTe",
          "type": "uint256"
        },
        {
          "internalType": "string",
          "name": "nguoiDanhGiaDid",
          "type": "string"
        },
        {
          "internalType": "string",
          "name": "nhanXet",
          "type": "string"
        }
      ],
      "name": "createKpiEvaluation",
      "outputs": [
        {
          "internalType": "uint256",
          "name": "",
          "type": "uint256"
        }
      ],
      "stateMutability": "nonpayable",
      "type": "function"
    },
    {
      "inputs": [
        {
          "internalType": "string",
          "name": "kpiId",
          "type": "string"
        }
      ],
      "name": "deactivateKpiCriteria",
      "outputs": [],
      "stateMutability": "nonpayable",
      "type": "function"
    },
    {
      "inputs": [
        {
          "internalType": "string",
          "name": "",
          "type": "string"
        },
        {
          "internalType": "uint256",
          "name": "",
          "type": "uint256"
        }
      ],
      "name": "employeeEvaluations",
      "outputs": [
        {
          "internalType": "uint256",
          "name": "",
          "type": "uint256"
        }
      ],
      "stateMutability": "view",
      "type": "function"
    },
    {
      "inputs": [
        {
          "internalType": "string",
          "name": "",
          "type": "string"
        },
        {
          "internalType": "uint256",
          "name": "",
          "type": "uint256"
        }
      ],
      "name": "evaluationsByPeriod",
      "outputs": [
        {
          "internalType": "uint256",
          "name": "",
          "type": "uint256"
        }
      ],
      "stateMutability": "view",
      "type": "function"
    },
    {
      "inputs": [
        {
          "internalType": "string",
          "name": "employeeDid",
          "type": "string"
        }
      ],
      "name": "getEmployeeEvaluations",
      "outputs": [
        {
          "internalType": "uint256[]",
          "name": "",
          "type": "uint256[]"
        }
      ],
      "stateMutability": "view",
      "type": "function"
    },
    {
      "inputs": [
        {
          "internalType": "string",
          "name": "employeeDid",
          "type": "string"
        },
        {
          "internalType": "string",
          "name": "kyDanhGia",
          "type": "string"
        }
      ],
      "name": "getEmployeeKpiSummary",
      "outputs": [
        {
          "internalType": "uint256",
          "name": "totalScore",
          "type": "uint256"
        },
        {
          "internalType": "uint256",
          "name": "evaluationCount",
          "type": "uint256"
        },
        {
          "internalType": "string",
          "name": "overallRanking",
          "type": "string"
        }
      ],
      "stateMutability": "view",
      "type": "function"
    },
    {
      "inputs": [
        {
          "internalType": "string",
          "name": "kyDanhGia",
          "type": "string"
        }
      ],
      "name": "getEvaluationsByPeriod",
      "outputs": [
        {
          "internalType": "uint256[]",
          "name": "",
          "type": "uint256[]"
        }
      ],
      "stateMutability": "view",
      "type": "function"
    },
    {
      "inputs": [
        {
          "internalType": "string",
          "name": "kpiId",
          "type": "string"
        }
      ],
      "name": "getKpiCriteria",
      "outputs": [
        {
          "components": [
            {
              "internalType": "string",
              "name": "kpiId",
              "type": "string"
            },
            {
              "internalType": "string",
              "name": "tenKpi",
              "type": "string"
            },
            {
              "internalType": "string",
              "name": "moTa",
              "type": "string"
            },
            {
              "internalType": "string",
              "name": "loaiKpi",
              "type": "string"
            },
            {
              "internalType": "string",
              "name": "donViDo",
              "type": "string"
            },
            {
              "internalType": "uint256",
              "name": "trongSo",
              "type": "uint256"
            },
            {
              "internalType": "uint256",
              "name": "nguongDat",
              "type": "uint256"
            },
            {
              "internalType": "uint256",
              "name": "nguongXuatSac",
              "type": "uint256"
            },
            {
              "internalType": "string[]",
              "name": "apDungChoChucVu",
              "type": "string[]"
            },
            {
              "internalType": "string",
              "name": "chuKyDanhGia",
              "type": "string"
            },
            {
              "internalType": "bool",
              "name": "isActive",
              "type": "bool"
            },
            {
              "internalType": "uint256",
              "name": "createdAt",
              "type": "uint256"
            }
          ],
          "internalType": "struct KpiManagement.KpiCriteria",
          "name": "",
          "type": "tuple"
        }
      ],
      "stateMutability": "view",
      "type": "function"
    },
    {
      "inputs": [
        {
          "internalType": "uint256",
          "name": "evaluationId",
          "type": "uint256"
        }
      ],
      "name": "getKpiEvaluation",
      "outputs": [
        {
          "components": [
            {
              "internalType": "uint256",
              "name": "evaluationId",
              "type": "uint256"
            },
            {
              "internalType": "string",
              "name": "employeeDid",
              "type": "string"
            },
            {
              "internalType": "string",
              "name": "kpiId",
              "type": "string"
            },
            {
              "internalType": "string",
              "name": "kyDanhGia",
              "type": "string"
            },
            {
              "internalType": "uint256",
              "name": "ngayBatDau",
              "type": "uint256"
            },
            {
              "internalType": "uint256",
              "name": "ngayKetThuc",
              "type": "uint256"
            },
            {
              "internalType": "uint256",
              "name": "giaTriThucTe",
              "type": "uint256"
            },
            {
              "internalType": "uint256",
              "name": "diemSo",
              "type": "uint256"
            },
            {
              "internalType": "string",
              "name": "xepLoai",
              "type": "string"
            },
            {
              "internalType": "string",
              "name": "nguoiDanhGiaDid",
              "type": "string"
            },
            {
              "internalType": "string",
              "name": "nhanXet",
              "type": "string"
            },
            {
              "internalType": "string",
              "name": "trangThai",
              "type": "string"
            },
            {
              "internalType": "uint256",
              "name": "createdAt",
              "type": "uint256"
            },
            {
              "internalType": "uint256",
              "name": "updatedAt",
              "type": "uint256"
            }
          ],
          "internalType": "struct KpiManagement.KpiEvaluation",
          "name": "",
          "type": "tuple"
        }
      ],
      "stateMutability": "view",
      "type": "function"
    },
    {
      "inputs": [
        {
          "internalType": "string",
          "name": "kpiId",
          "type": "string"
        }
      ],
      "name": "getKpiEvaluationsByCriteria",
      "outputs": [
        {
          "internalType": "uint256[]",
          "name": "",
          "type": "uint256[]"
        }
      ],
      "stateMutability": "view",
      "type": "function"
    },
    {
      "inputs": [
        {
          "internalType": "bytes32",
          "name": "role",
          "type": "bytes32"
        }
      ],
      "name": "getRoleAdmin",
      "outputs": [
        {
          "internalType": "bytes32",
          "name": "",
          "type": "bytes32"
        }
      ],
      "stateMutability": "view",
      "type": "function"
    },
    {
      "inputs": [],
      "name": "getTotalEvaluations",
      "outputs": [
        {
          "internalType": "uint256",
          "name": "",
          "type": "uint256"
        }
      ],
      "stateMutability": "view",
      "type": "function"
    },
    {
      "inputs": [],
      "name": "getTotalKpiCriteria",
      "outputs": [
        {
          "internalType": "uint256",
          "name": "",
          "type": "uint256"
        }
      ],
      "stateMutability": "view",
      "type": "function"
    },
    {
      "inputs": [
        {
          "internalType": "address",
          "name": "account",
          "type": "address"
        }
      ],
      "name": "grantEmployeeRole",
      "outputs": [],
      "stateMutability": "nonpayable",
      "type": "function"
    },
    {
      "inputs": [
        {
          "internalType": "address",
          "name": "account",
          "type": "address"
        }
      ],
      "name": "grantEvaluatorRole",
      "outputs": [],
      "stateMutability": "nonpayable",
      "type": "function"
    },
    {
      "inputs": [
        {
          "internalType": "bytes32",
          "name": "role",
          "type": "bytes32"
        },
        {
          "internalType": "address",
          "name": "account",
          "type": "address"
        }
      ],
      "name": "grantRole",
      "outputs": [],
      "stateMutability": "nonpayable",
      "type": "function"
    },
    {
      "inputs": [
        {
          "internalType": "bytes32",
          "name": "role",
          "type": "bytes32"
        },
        {
          "internalType": "address",
          "name": "account",
          "type": "address"
        }
      ],
      "name": "hasRole",
      "outputs": [
        {
          "internalType": "bool",
          "name": "",
          "type": "bool"
        }
      ],
      "stateMutability": "view",
      "type": "function"
    },
    {
      "inputs": [
        {
          "internalType": "string",
          "name": "kpiId",
          "type": "string"
        }
      ],
      "name": "isKpiCriteriaActive",
      "outputs": [
        {
          "internalType": "bool",
          "name": "",
          "type": "bool"
        }
      ],
      "stateMutability": "view",
      "type": "function"
    },
    {
      "inputs": [
        {
          "internalType": "string",
          "name": "",
          "type": "string"
        }
      ],
      "name": "kpiCriteria",
      "outputs": [
        {
          "internalType": "string",
          "name": "kpiId",
          "type": "string"
        },
        {
          "internalType": "string",
          "name": "tenKpi",
          "type": "string"
        },
        {
          "internalType": "string",
          "name": "moTa",
          "type": "string"
        },
        {
          "internalType": "string",
          "name": "loaiKpi",
          "type": "string"
        },
        {
          "internalType": "string",
          "name": "donViDo",
          "type": "string"
        },
        {
          "internalType": "uint256",
          "name": "trongSo",
          "type": "uint256"
        },
        {
          "internalType": "uint256",
          "name": "nguongDat",
          "type": "uint256"
        },
        {
          "internalType": "uint256",
          "name": "nguongXuatSac",
          "type": "uint256"
        },
        {
          "internalType": "string",
          "name": "chuKyDanhGia",
          "type": "string"
        },
        {
          "internalType": "bool",
          "name": "isActive",
          "type": "bool"
        },
        {
          "internalType": "uint256",
          "name": "createdAt",
          "type": "uint256"
        }
      ],
      "stateMutability": "view",
      "type": "function"
    },
    {
      "inputs": [
        {
          "internalType": "uint256",
          "name": "",
          "type": "uint256"
        }
      ],
      "name": "kpiEvaluations",
      "outputs": [
        {
          "internalType": "uint256",
          "name": "evaluationId",
          "type": "uint256"
        },
        {
          "internalType": "string",
          "name": "employeeDid",
          "type": "string"
        },
        {
          "internalType": "string",
          "name": "kpiId",
          "type": "string"
        },
        {
          "internalType": "string",
          "name": "kyDanhGia",
          "type": "string"
        },
        {
          "internalType": "uint256",
          "name": "ngayBatDau",
          "type": "uint256"
        },
        {
          "internalType": "uint256",
          "name": "ngayKetThuc",
          "type": "uint256"
        },
        {
          "internalType": "uint256",
          "name": "giaTriThucTe",
          "type": "uint256"
        },
        {
          "internalType": "uint256",
          "name": "diemSo",
          "type": "uint256"
        },
        {
          "internalType": "string",
          "name": "xepLoai",
          "type": "string"
        },
        {
          "internalType": "string",
          "name": "nguoiDanhGiaDid",
          "type": "string"
        },
        {
          "internalType": "string",
          "name": "nhanXet",
          "type": "string"
        },
        {
          "internalType": "string",
          "name": "trangThai",
          "type": "string"
        },
        {
          "internalType": "uint256",
          "name": "createdAt",
          "type": "uint256"
        },
        {
          "internalType": "uint256",
          "name": "updatedAt",
          "type": "uint256"
        }
      ],
      "stateMutability": "view",
      "type": "function"
    },
    {
      "inputs": [
        {
          "internalType": "string",
          "name": "",
          "type": "string"
        },
        {
          "internalType": "uint256",
          "name": "",
          "type": "uint256"
        }
      ],
      "name": "kpiEvaluationsByCriteria",
      "outputs": [
        {
          "internalType": "uint256",
          "name": "",
          "type": "uint256"
        }
      ],
      "stateMutability": "view",
      "type": "function"
    },
    {
      "inputs": [],
      "name": "owner",
      "outputs": [
        {
          "internalType": "address",
          "name": "",
          "type": "address"
        }
      ],
      "stateMutability": "view",
      "type": "function"
    },
    {
      "inputs": [],
      "name": "renounceOwnership",
      "outputs": [],
      "stateMutability": "nonpayable",
      "type": "function"
    },
    {
      "inputs": [
        {
          "internalType": "bytes32",
          "name": "role",
          "type": "bytes32"
        },
        {
          "internalType": "address",
          "name": "account",
          "type": "address"
        }
      ],
      "name": "renounceRole",
      "outputs": [],
      "stateMutability": "nonpayable",
      "type": "function"
    },
    {
      "inputs": [
        {
          "internalType": "bytes32",
          "name": "role",
          "type": "bytes32"
        },
        {
          "internalType": "address",
          "name": "account",
          "type": "address"
        }
      ],
      "name": "revokeRole",
      "outputs": [],
      "stateMutability": "nonpayable",
      "type": "function"
    },
    {
      "inputs": [
        {
          "internalType": "bytes4",
          "name": "interfaceId",
          "type": "bytes4"
        }
      ],
      "name": "supportsInterface",
      "outputs": [
        {
          "internalType": "bool",
          "name": "",
          "type": "bool"
        }
      ],
      "stateMutability": "view",
      "type": "function"
    },
    {
      "inputs": [
        {
          "internalType": "address",
          "name": "newOwner",
          "type": "address"
        }
      ],
      "name": "transferOwnership",
      "outputs": [],
      "stateMutability": "nonpayable",
      "type": "function"
    },
    {
      "inputs": [
        {
          "internalType": "string",
          "name": "kpiId",
          "type": "string"
        },
        {
          "internalType": "string",
          "name": "tenKpi",
          "type": "string"
        },
        {
          "internalType": "string",
          "name": "moTa",
          "type": "string"
        },
        {
          "internalType": "string",
          "name": "donViDo",
          "type": "string"
        },
        {
          "internalType": "uint256",
          "name": "trongSo",
          "type": "uint256"
        },
        {
          "internalType": "uint256",
          "name": "nguongDat",
          "type": "uint256"
        },
        {
          "internalType": "uint256",
          "name": "nguongXuatSac",
          "type": "uint256"
        },
        {
          "internalType": "string[]",
          "name": "apDungChoChucVu",
          "type": "string[]"
        },
        {
          "internalType": "string",
          "name": "chuKyDanhGia",
          "type": "string"
        }
      ],
      "name": "updateKpiCriteria",
      "outputs": [],
      "stateMutability": "nonpayable",
      "type": "function"
    },
    {
      "inputs": [
        {
          "internalType": "uint256",
          "name": "evaluationId",
          "type": "uint256"
        },
        {
          "internalType": "uint256",
          "name": "giaTriThucTe",
          "type": "uint256"
        },
        {
          "internalType": "string",
          "name": "nhanXet",
          "type": "string"
        },
        {
          "internalType": "string",
          "name": "trangThai",
          "type": "string"
        }
      ],
      "name": "updateKpiEvaluation",
      "outputs": [],
      "stateMutability": "nonpayable",
      "type": "function"
    }
  ],
  "bytecode": "0x60806040818152346200012c5760008054336001600160a01b0319821681178355906001600160a01b03167f8be0079c531659141344cd1fd0a4f28419497f9722a3daafe3b4186f6b6457e08380a38080526001602092818452808320338452845260ff818420541615620000f5575b7fa49807205ce4d355092ef5a8a18f56e8913cf4a201fbe287825b095693c2177593848452828152818420338552815260ff828520541615620000ba575b6147c28681620001328239f35b848452828152818420903385525282209060ff198254161790553391600080516020620048f4833981519152339280a43880808080620000ad565b82805281845280832033845284528083208260ff19825416179055333384600080516020620048f48339815191528180a46200006f565b600080fdfe608080604052600436101561001357600080fd5b60003560e01c90816301ffc9a7146133e3575080630669b5b91461338657806308cfc1ea1461330e5780631085d77914613260578063164ea559146130b557806319ce610c14613097578063248a9ca3146130685780632612b1af14612fe05780632a4cab9014612fa55780632f2ff15d14612ef257806330d0ea3114612eb7578063317b8e9614612e9957806336568abe14612e07578063418e1fd414612424578063432badd8146121745780634d1ec4ad14611e1f5780636272a9b814611ded578063715018a614611d94578063721308b214611d0c57806375b238fc14611cd15780638b5d453f146113275780638da5cb5b146112fe57806391d14854146112b15780639ba2b0a114611260578063a217fddf14611244578063aabd3a5b14611085578063aeaee36514611053578063c78700e714610fa8578063c7c458bc14610906578063d40a6c7e146105a8578063d547741f14610567578063e936b51414610512578063f2fde38b14610449578063f3b3444b146103745763f4aba5a6146101a057600080fd5b3461036f5760208060031936011261036f576004356101bd613795565b80600052600582526101d56040600020541515613f33565b80600052600582526040600020600b81016101f081546135aa565b601f811161034e575b5060186b1118481c1a1948191d5e595d60a21b01905542600d919091015560405133610224826134b5565b602a825283820160403682378251156103385760309053815160019081101561033857607860218401536029905b8082116102de57505061029b577f01a1d9656e2513c613d30076781814a6064f25bfc5c38c01ee1a35ab767f5d199192610296604051928284938452830190613585565b0390a2005b6064836040519062461bcd60e51b825280600483015260248201527f537472696e67733a20686578206c656e67746820696e73756666696369656e746044820152fd5b9091600f81166010811015610338576f181899199a1a9b1b9c1cb0b131b232b360811b901a61030d8486613cd9565b5360041c918015610322576000190190610252565b634e487b7160e01b600052601160045260246000fd5b634e487b7160e01b600052603260045260246000fd5b6103699082600052601f86600020910160051c810190613e34565b386101f9565b600080fd5b3461036f5760208060031936011261036f5761038e613436565b610396613795565b7f5a3425ea67e73c95853ecfc0c443062de292a303c186bc2aac1178ae1b86c62a9182600052600181526103d1600160406000200154613af5565b60008381526001825260408082206001600160a01b0390941680835293835290205460ff16156103fd57005b826000526001815260406000209082600052526040600020600160ff1982541617905533917f2f8788117e7eff1d82e926ec794901d17c78024a50270940304540a733656f0d600080a4005b3461036f57602036600319011261036f57610462613436565b61046a613c74565b6001600160a01b039081169081156104be57600054826bffffffffffffffffffffffff60a01b821617600055167f8be0079c531659141344cd1fd0a4f28419497f9722a3daafe3b4186f6b6457e0600080a3005b60405162461bcd60e51b815260206004820152602660248201527f4f776e61626c653a206e6577206f776e657220697320746865207a65726f206160448201526564647265737360d01b6064820152608490fd5b3461036f57602061053a6105253661374c565b92908160405193828580945193849201613562565b81016006815203019020805482101561036f576020916105599161377d565b90546040519160031b1c8152f35b3461036f57604036600319011261036f576105a660043561058661344c565b908060005260016020526105a1600160406000200154613af5565b613bfe565b005b3461036f57602036600319011261036f576004356001600160401b03811161036f5760206105dd61067892369060040161350c565b60006101606040516105ee81613462565b6060815260608582015260606040820152606080820152606060808201528260a08201528260c08201528260e08201526060610100820152606061012082015282610140820152015260405190610667600b82519385818186019661065481838a613562565b8101600481520301902001541515613eb2565b604051938492839251928391613562565b810160048152030190206040519061068f82613462565b6040516106a7816106a081856135e4565b03826134eb565b82526040516106bd816106a081600186016135e4565b60208301526040516106d6816106a081600286016135e4565b60408301526040516106ef816106a081600386016135e4565b6060830152604051610708816106a081600486016135e4565b6080830152600581015460a0830152600681015460c0830152600781015460e083015260088101805461073a816136b5565b9161074860405193846134eb565b818352602083019060005260206000206000915b8383106108e15786600b8787610100840152604051610782816106a081600986016135e4565b61012084015260ff600a82015416151561014084015201546101608201526040516020815261082361080d6107f76107e16107cb865161018060208801526101a0870190613585565b6020870151868203601f19016040880152613585565b6040860151858203601f19016060870152613585565b6060850151848203601f19016080860152613585565b6080840151838203601f190160a0850152613585565b9160a081015160c083015260c081015160e083015260e081015161010083015261010081015192601f1983820301610120840152835180825260208201916020808360051b8301019601926000915b8383106108b45786808761016061089b8c610120840151601f1986830301610140870152613585565b9161014081015115158285015201516101808301520390f35b90919293966020806108d2600193601f198682030187528b51613585565b99019301930191939290610872565b6001602081926040516108f8816106a081896135e4565b81520192019201919061075c565b3461036f5761012036600319011261036f576004356001600160401b03811161036f5761093790369060040161350c565b6024356001600160401b03811161036f5761095690369060040161350c565b6044356001600160401b03811161036f5761097590369060040161350c565b916064356001600160401b03811161036f5761099590369060040161350c565b9260e4356001600160401b03811161036f576109b59036906004016136cc565b610104356001600160401b03811161036f576109d590369060040161350c565b946109de613795565b610a1f60206040516109ff600b8851928481818c0195610654818389613562565b610a0e60646084351115613de8565b604051809381928951928391613562565b810160048152030190209285516001600160401b038111610cc557610a5481610a4b60018801546135aa565b60018801613e4b565b806020601f8211600114610f3b57600091610f30575b508160011b916000199060031b1c19161760018501555b8051906001600160401b038211610cc5578190610aae82610aa560028901546135aa565b60028901613e4b565b602090601f8311600114610ebe57600092610eb3575b50508160011b916000199060031b1c19161760028401555b8051906001600160401b038211610cc5578190610b0982610b0060048801546135aa565b60048801613e4b565b602090601f8311600114610e4157600092610e36575b50508160011b916000199060031b1c19161760048301555b608435600583015560a435600683015560c4356007830155805190600160401b8211610cc5576008830154826008850155808310610dbe575b5060200190600883016000526020600020916000905b828210610cdb575050505060090183516001600160401b038111610cc557610bb881610bb284546135aa565b84613e4b565b6020601f8211600114610c345791816102969492610c14947fcc8369db20dba0a70091488726ca898638cabb522714c7fbb842db4301ebfb949798600092610c29575b50508160011b916000199060031b1c1916179055613e92565b92604051918291602083526020830190613585565b015190508880610bfb565b601f198216958360005260206000209660005b818110610cad5750927fcc8369db20dba0a70091488726ca898638cabb522714c7fbb842db4301ebfb949697610c14959360019383610296999710610c94575b505050811b019055613e92565b015160001960f88460031b161c19169055888080610c87565b83830151895560019098019760209384019301610c47565b634e487b7160e01b600052604160045260246000fd5b80518051906001600160401b038211610cc557610d0282610cfc88546135aa565b88613e4b565b602090601f8311600114610d4e579282600194936020938695600092610d43575b5050600019600383901b1c191690841b1787555b01940191019092610b86565b015190508d80610d23565b908660005260206000209160005b601f1985168110610da6575083602093600196938796938794601f19811610610d8d575b505050811b018755610d37565b015160001960f88460031b161c191690558d8080610d80565b91926020600181928685015181550194019201610d5c565b600884016000526020600020908382015b8183018110610ddf575050610b70565b80610dec600192546135aa565b80610df9575b5001610dcf565b601f81118314610e0f5750600081555b8a610df2565b600090828252610e2d601f60208420920160051c8201858301613e34565b81835555610e09565b015190508780610b1f565b9250600485016000526020600020906000935b601f1984168510610e98576001945083601f19811610610e7f575b505050811b016004830155610b37565b015160001960f88460031b161c19169055878080610e6f565b81810151835560209485019460019093019290910190610e54565b015190508880610ac4565b9250600286016000526020600020906000935b601f1984168510610f15576001945083601f19811610610efc575b505050811b016002840155610adc565b015160001960f88460031b161c19169055888080610eec565b81810151835560209485019460019093019290910190610ed1565b905087015189610a6a565b91506001860160005260206000206000925b601f1983168410610f90576001935082601f19811610610f77575b5050811b016001850155610a81565b89015160001960f88460031b161c191690558980610f68565b89810151825560209384019360019092019101610f4d565b3461036f5760208060031936011261036f576004356001600160401b03811161036f5781610fdd610ff092369060040161350c565b8160405193828580945193849201613562565b8101600881520301902090604051908181845491828152019360005281600020916000905b82821061103c576110388561102c818903826134eb565b6040519182918261367a565b0390f35b835486529485019460019384019390910190611015565b3461036f5760206110666105253661374c565b81016008815203019020805482101561036f576020916105599161377d565b3461036f57602036600319011261036f5760043560005260056020526040600020805460405191828060018301906110bc916135e4565b036110c790846134eb565b604051806110d881600285016135e4565b036110e390826134eb565b604051806110f481600386016135e4565b036110ff90826134eb565b600483015460058401549060068501549060078601549060405191828060088a019061112a916135e4565b0361113590846134eb565b60405193846111478160098c016135e4565b0361115290866134eb565b604051958661116481600a8d016135e4565b0361116f90886134eb565b604051978861118181600b8e016135e4565b0361118c908a6134eb565b600c8b01549a600d0154996040519d8e9d8e528d6101c090816020820152016111b491613585565b8d810360408f01526111c591613585565b8c810360608e01526111d691613585565b9360808c015260a08b015260c08a015260e08901528781036101008901526111fd91613585565b86810361012088015261120f91613585565b85810361014087015261122191613585565b84810361016086015261123391613585565b916101808401526101a08301520390f35b3461036f57600036600319011261036f57602060405160008152f35b3461036f57602036600319011261036f576004356001600160401b03811161036f5760ff600a61129a6020610fdd8195369060040161350c565b810160048152030190200154166040519015158152f35b3461036f57604036600319011261036f576112ca61344c565b600435600052600160205260406000209060018060a01b0316600052602052602060ff604060002054166040519015158152f35b3461036f57600036600319011261036f576000546040516001600160a01b039091168152602090f35b3461036f5761010036600319011261036f576004356001600160401b03811161036f5761135890369060040161350c565b6024356001600160401b03811161036f5761137790369060040161350c565b6044356001600160401b03811161036f5761139690369060040161350c565b9060c4356001600160401b03811161036f576113b690369060040161350c565b9260e4356001600160401b03811161036f576113d690369060040161350c565b916113df6139b0565b815115611c8c57611400600b60405160208185516106548183858a01613562565b60ff600a60405160208185516114198183858a01613562565b8101600481520301902001541615611c47576084356064351015611c0d57600160035401928360035561144e60a43583613fac565b9561145887614294565b604051976114658961347e565b8689528560208a01528460408a01528760608a015260643560808a015260843560a08a015260a43560c08a015260e08901526101008801526101208701526101408601526040516114b58161349a565b600481526304e6861760e41b602082015261016086015242610180860152426101a086015282600052600560205260406000208551815560208601518051906001600160401b038211610cc557819061151e8261151560018701546135aa565b60018701613e4b565b602090601f8311600114611b9b57600092611b90575b50508160011b916000199060031b1c19161760018201555b60408601518051906001600160401b038211610cc557819061157e8261157560028701546135aa565b60028701613e4b565b602090601f8311600114611b1e57600092611b13575b50508160011b916000199060031b1c19161760028201555b60608601518051906001600160401b038211610cc55781906115de826115d560038701546135aa565b60038701613e4b565b602090601f8311600114611aa157600092611a96575b50508160011b916000199060031b1c19161760038201555b6080860151600482015560a0860151600582015560c0860151600682015560e0860151600782015561010086015180516001600160401b038111610cc5578060088401926116648261165e86546135aa565b86613e4b565b602090601f8311600114611a3057600092611a25575b50508160011b916000199060031b1c19161790555b61012086015180516001600160401b038111610cc5578060098401926116b98261165e86546135aa565b602090601f83116001146119bf576000926119b4575b50508160011b916000199060031b1c19161790555b61014086015180516001600160401b038111610cc55780600a84019261170e8261165e86546135aa565b602090601f831160011461194e57600092611943575b50508160011b916000199060031b1c19161790555b6101608601519586516001600160401b038111610cc55760209761176d82611764600b8701546135aa565b600b8701613e4b565b8890601f831160011461189f57947fc148f359b347da2ceee1f099aae5f692aa088f36f51fe6c37676c41ec94bbb559694600d6101a061188996868c9d9761187b9761186e9c600092611894575b50508160011b916000199060031b1c191617600b8501555b610180810151600c850155015191015561180c886040518c81816117fd8b83815193849201613562565b81016006815203019020613efe565b611833886040518c8185516118248183858a01613562565b81016007815203019020613efe565b61185a886040518c81875161184b8183858c01613562565b81016008815203019020613efe565b604051958695606087526060870190613585565b908582038b870152613585565b908382036040850152613585565b0390a2604051908152f35b0151905038806117bb565b90600b8501600052896000209160005b601f198516811061192c575094600d6101a06118899660018761187b978e9f99977fc148f359b347da2ceee1f099aae5f692aa088f36f51fe6c37676c41ec94bbb559e9c61186e9e99601f19811610611913575b505050811b01600b8501556117d3565b015160001960f88460031b161c19169055388080611903565b91928b6001819286850151815501940192016118af565b015190508980611724565b6000858152602081209350601f198516905b81811061199c5750908460019594939210611983575b505050811b019055611739565b015160001960f88460031b161c19169055898080611976565b92936020600181928786015181550195019301611960565b0151905089806116cf565b6000858152602081209350601f198516905b818110611a0d57509084600195949392106119f4575b505050811b0190556116e4565b015160001960f88460031b161c191690558980806119e7565b929360206001819287860151815501950193016119d1565b01519050898061167a565b6000858152602081209350601f198516905b818110611a7e5750908460019594939210611a65575b505050811b01905561168f565b015160001960f88460031b161c19169055898080611a58565b92936020600181928786015181550195019301611a42565b0151905088806115f4565b9250600384016000526020600020906000935b601f1984168510611af8576001945083601f19811610611adf575b505050811b01600382015561160c565b015160001960f88460031b161c19169055888080611acf565b81810151835560209485019460019093019290910190611ab4565b015190508880611594565b9250600284016000526020600020906000935b601f1984168510611b75576001945083601f19811610611b5c575b505050811b0160028201556115ac565b015160001960f88460031b161c19169055888080611b4c565b81810151835560209485019460019093019290910190611b31565b015190508880611534565b9250600184016000526020600020906000935b601f1984168510611bf2576001945083601f19811610611bd9575b505050811b01600182015561154c565b015160001960f88460031b161c19169055888080611bc9565b81810151835560209485019460019093019290910190611bae565b60405162461bcd60e51b8152602060048201526012602482015271496e76616c696420646174652072616e676560701b6044820152606490fd5b60405162461bcd60e51b815260206004820152601a60248201527f4b5049206372697465726961206973206e6f74206163746976650000000000006044820152606490fd5b60405162461bcd60e51b815260206004820152601c60248201527f456d706c6f796565204449442063616e6e6f7420626520656d707479000000006044820152606490fd5b3461036f57600036600319011261036f5760206040517fa49807205ce4d355092ef5a8a18f56e8913cf4a201fbe287825b095693c217758152f35b3461036f5760208060031936011261036f576004356001600160401b03811161036f5781610fdd611d4192369060040161350c565b8101600681520301902090604051908181845491828152019360005281600020916000905b828210611d7d576110388561102c818903826134eb565b835486529485019460019384019390910190611d66565b3461036f57600036600319011261036f57611dad613c74565b600080546001600160a01b0319811682556001600160a01b03167f8be0079c531659141344cd1fd0a4f28419497f9722a3daafe3b4186f6b6457e08280a3005b3461036f576020611e006105253661374c565b81016007815203019020805482101561036f576020916105599161377d565b3461036f57608036600319011261036f576001600160401b0360043560243560443583811161036f57611e5690369060040161350c565b9060643584811161036f57611e6f90369060040161350c565b611e776139b0565b8360005260209260058452611e926040600020541515613f33565b8460005260058452604060002092600684018181540361208d575b558051600a840191878211610cc5578190611ecc8261165e86546135aa565b8690601f83116001146120285760009261201d575b50508160011b916000199060031b1c19161790555b600b8201908051958611610cc557611f1286610bb284546135aa565b8390601f8711600114611f95579580917fdcf9a7b647e1588c188dc6a3235d338b4cf696a1b1844c44486867a666283d239697600092611f8a575b50508160011b916000199060031b1c19161790555b42600d82015561029660078201549160408051948594855284015260086040840191016135e4565b015190508780611f4d565b90601f1987169183600052856000209260005b81811061200657509160019391897fdcf9a7b647e1588c188dc6a3235d338b4cf696a1b1844c44486867a666283d23999a9410611fed575b505050811b019055611f62565b015160001960f88460031b161c19169055878080611fe0565b929387600181928786015181550195019301611fa8565b015190508880611ee1565b60008581528881209350601f198516905b8982821061207757505090846001959493921061205e575b505050811b019055611ef6565b015160001960f88460031b161c19169055888080612051565b6001859682939686015181550195019301612039565b6120b86120ad836040516120a8816106a08160028d016135e4565b613fac565b806007880155614294565b805160088701918a8211610cc55781906120d68261165e86546135aa565b8990601f831160011461210f57600092612104575b50508160011b916000199060031b1c1916179055611ead565b015190508b806120eb565b60008581528b81209350601f198516905b8c82821061215e575050908460019594939210612145575b505050811b019055611ead565b015160001960f88460031b161c191690558b8080612138565b6001859682939686015181550195019301612120565b3461036f57602036600319011261036f5760006101a06040516121968161347e565b82815260606020820152606060408201526060808201528260808201528260a08201528260c08201528260e0820152606061010082015260606101208201526060610140820152606061016082015282610180820152015260043580600052600560205261220a6040600020541515613f33565b60005260056020526040600020600d604051916122268361347e565b8054835260405161223e816106a081600186016135e4565b6020840152604051612257816106a081600286016135e4565b6040840152604051612270816106a081600386016135e4565b606084015260048101546080840152600581015460a0840152600681015460c0840152600781015460e08401526040516122b1816106a081600886016135e4565b6101008401526040516122cb816106a081600986016135e4565b6101208401526040516122e5816106a081600a86016135e4565b6101408401526040516122ff816106a081600b86016135e4565b610160840152600c81015461018084015201546101a0820152604051809160208252805160208301526101a061240d6123f56123dd6123c561238461236e61235860208901516101c060408c01526101e08b0190613585565b60408901518a8203601f190160608c0152613585565b6060880151898203601f190160808b0152613585565b608087015160a089015260a087015160c089015260c087015160e089015260e0870151610100890152610100870151601f19898303016101208a0152613585565b610120860151878203601f1901610140890152613585565b610140850151868203601f1901610160880152613585565b610160840151858203601f1901610180870152613585565b916101808101518285015201516101c08301520390f35b3461036f5761014036600319011261036f576004356001600160401b03811161036f5761245590369060040161350c565b6024356001600160401b03811161036f5761247490369060040161350c565b6044356001600160401b03811161036f5761249390369060040161350c565b916064356001600160401b03811161036f576124b390369060040161350c565b926084356001600160401b03811161036f576124d390369060040161350c565b610104356001600160401b03811161036f576124f39036906004016136cc565b610124356001600160401b03811161036f5761251390369060040161350c565b9161251c613795565b845115612dc957855115612d8457612539606460a4351115613de8565b600b60405160208188516125508183858d01613562565b810160048152030190200154612d3f576040519361256d85613462565b8585528660208601526040850152866060850152608084015260a43560a084015260c43560c084015260e43560e084015261010083015261012082015260016101408201524261016082015260405160208184516125ce8183858901613562565b810160048152030190209080518051906001600160401b038211610cc5578190612602826125fc87546135aa565b87613e4b565b602090601f8311600114612cd357600092612cc8575b50508160011b916000199060031b1c19161782555b60208101518051906001600160401b038211610cc557819061265682610a4b60018801546135aa565b602090601f8311600114612c5657600092612c4b575b50508160011b916000199060031b1c19161760018301555b60408101518051906001600160401b038211610cc55781906126b6826126ad60028801546135aa565b60028801613e4b565b602090601f8311600114612bd957600092612bce575b50508160011b916000199060031b1c19161760028301555b60608101518051906001600160401b038211610cc55781906127168261270d60038801546135aa565b60038801613e4b565b602090601f8311600114612b5c57600092612b51575b50508160011b916000199060031b1c19161760038301555b60808101518051906001600160401b038211610cc557819061276d82610b0060048801546135aa565b602090601f8311600114612adf57600092612ad4575b50508160011b916000199060031b1c19161760048301555b60a0810151600583015560c0810151600683015560e08101516007830155610100810151805190600160401b8211610cc5576008840154826008860155808310612a5c575b5060200190600884016000526020600020916000905b82821061297f5750505050600982016101208201518051906001600160401b038211610cc5576128308261282a85546135aa565b85613e4b565b602090601f83116001146128e357610160610296956128b595856128ca9a967fa977b628247e5045cc570bc5cc93e028d32ddb23a29f5a5917318042dda6b64c9c9a96600b966000926128d8575b50508160011b916000199060031b1c19161790555b600a8401610140820151151560ff801983541691161790550151910155613e92565b94604051938493604085526040850190613585565b908382036020850152613585565b015190508e8061287e565b90601f198316918460005260206000209260005b8181106129675750956128b5956001867fa977b628247e5045cc570bc5cc93e028d32ddb23a29f5a5917318042dda6b64c9c9a96600b96610160966128ca9e9a6102969d1061294e575b505050811b019055612893565b015160001960f88460031b161c191690558e8080612941565b929360206001819287860151815501950193016128f7565b80518051906001600160401b038211610cc5576129a082610cfc88546135aa565b602090601f83116001146129ec5792826001949360209386956000926129e1575b5050600019600383901b1c191690841b1787555b019401910190926127f6565b015190508e806129c1565b908660005260206000209160005b601f1985168110612a44575083602093600196938796938794601f19811610612a2b575b505050811b0187556129d5565b015160001960f88460031b161c191690558e8080612a1e565b919260206001819286850151815501940192016129fa565b600885016000526020600020908382015b8183018110612a7d5750506127e0565b80612a8a600192546135aa565b80612a97575b5001612a6d565b601f81118314612aad5750600081555b8b612a90565b600090828252612acb601f60208420920160051c8201858301613e34565b81835555612aa7565b015190508780612783565b9250600485016000526020600020906000935b601f1984168510612b36576001945083601f19811610612b1d575b505050811b01600483015561279b565b015160001960f88460031b161c19169055878080612b0d565b81810151835560209485019460019093019290910190612af2565b01519050878061272c565b9250600385016000526020600020906000935b601f1984168510612bb3576001945083601f19811610612b9a575b505050811b016003830155612744565b015160001960f88460031b161c19169055878080612b8a565b81810151835560209485019460019093019290910190612b6f565b0151905087806126cc565b9250600285016000526020600020906000935b601f1984168510612c30576001945083601f19811610612c17575b505050811b0160028301556126e4565b015160001960f88460031b161c19169055878080612c07565b81810151835560209485019460019093019290910190612bec565b01519050878061266c565b9250600185016000526020600020906000935b601f1984168510612cad576001945083601f19811610612c94575b505050811b016001830155612684565b015160001960f88460031b161c19169055878080612c84565b81810151835560209485019460019093019290910190612c69565b015190508780612618565b9250846000526020600020906000935b601f1984168510612d24576001945083601f19811610612d0b575b505050811b01825561262d565b015160001960f88460031b161c19169055878080612cfe565b81810151835560209485019460019093019290910190612ce3565b60405162461bcd60e51b815260206004820152601b60248201527f4b504920637269746572696120616c72656164792065786973747300000000006044820152606490fd5b60405162461bcd60e51b815260206004820152601760248201527f54656e204b50492063616e6e6f7420626520656d7074790000000000000000006044820152606490fd5b60405162461bcd60e51b81526020600482015260166024820152754b50492049442063616e6e6f7420626520656d70747960501b6044820152606490fd5b3461036f57604036600319011261036f57612e2061344c565b336001600160a01b03821603612e3c576105a690600435613bfe565b60405162461bcd60e51b815260206004820152602f60248201527f416363657373436f6e74726f6c3a2063616e206f6e6c792072656e6f756e636560448201526e103937b632b9903337b91039b2b63360891b6064820152608490fd5b3461036f57600036600319011261036f576020600254604051908152f35b3461036f57600036600319011261036f5760206040517f4848aa3d2c0568bab3ca9720f91818ee0957e95426fa0627cc4809e2e5ed8be08152f35b3461036f57604036600319011261036f57600435612f0e61344c565b816000526001602052612f28600160406000200154613af5565b81600052600160205260406000209060018060a01b0316908160005260205260ff6040600020541615612f5757005b8160005260016020526040600020816000526020526040600020600160ff1982541617905533917f2f8788117e7eff1d82e926ec794901d17c78024a50270940304540a733656f0d600080a4005b3461036f57600036600319011261036f5760206040517f5a3425ea67e73c95853ecfc0c443062de292a303c186bc2aac1178ae1b86c62a8152f35b3461036f5760208060031936011261036f576004356001600160401b03811161036f5781610fdd61301592369060040161350c565b8101600781520301902090604051908181845491828152019360005281600020916000905b828210613051576110388561102c818903826134eb565b83548652948501946001938401939091019061303a565b3461036f57602036600319011261036f5760043560005260016020526020600160406000200154604051908152f35b3461036f57600036600319011261036f576020600354604051908152f35b3461036f57602036600319011261036f576004356001600160401b03811161036f576130e590369060040161350c565b60405181818093516020819301916130fc92613562565b8101600481520360200190206040518061311681846135e4565b0361312190826134eb565b604051918261313381600184016135e4565b0361313e90846134eb565b6040518061314f81600285016135e4565b0361315a90826134eb565b6040518061316b81600386016135e4565b0361317690826134eb565b6040518061318781600487016135e4565b0361319290826134eb565b600584015490600685015460078601549160405194858060098a01906131b7916135e4565b036131c290876134eb565b600a88015460ff1697600b0154966040519a8b9a610160808d528c016131e791613585565b8b810360208d01526131f891613585565b8a810360408c015261320991613585565b89810360608b015261321a91613585565b88810360808a015261322b91613585565b9260a088015260c087015260e086015284810361010086015261324d91613585565b9115156101208401526101408301520390f35b3461036f57602036600319011261036f576004356001600160401b03811161036f576132936132e791369060040161350c565b61329b613795565b600a6132cf60206040516132be600b8651928481818a0195610654818389613562565b604051809381928751928391613562565b810160048152030190200160ff198154169055613e92565b7f089e269e692b16303715bb6af72ce6dd1578a6a4a2f1768bd6e97cab5b3f5346600080a2005b3461036f57604036600319011261036f576001600160401b0360043581811161036f5761333f90369060040161350c565b9060243590811161036f576110389161335f61336592369060040161350c565b90614345565b60409391935193849384526020840152606060408401526060830190613585565b3461036f5760208060031936011261036f576133a0613436565b6133a8613795565b7f4848aa3d2c0568bab3ca9720f91818ee0957e95426fa0627cc4809e2e5ed8be09182600052600181526103d1600160406000200154613af5565b3461036f57602036600319011261036f576004359063ffffffff60e01b821680920361036f57602091637965db0b60e01b8114908115613425575b5015158152f35b6301ffc9a760e01b1490508361341e565b600435906001600160a01b038216820361036f57565b602435906001600160a01b038216820361036f57565b61018081019081106001600160401b03821117610cc557604052565b6101c081019081106001600160401b03821117610cc557604052565b604081019081106001600160401b03821117610cc557604052565b606081019081106001600160401b03821117610cc557604052565b608081019081106001600160401b03821117610cc557604052565b90601f801991011681019081106001600160401b03821117610cc557604052565b81601f8201121561036f578035906001600160401b038211610cc55760405192613540601f8401601f1916602001856134eb565b8284526020838301011161036f57816000926020809301838601378301015290565b60005b8381106135755750506000910152565b8181015183820152602001613565565b9060209161359e81518092818552858086019101613562565b601f01601f1916010190565b90600182811c921680156135da575b60208310146135c457565b634e487b7160e01b600052602260045260246000fd5b91607f16916135b9565b90600092918054916135f5836135aa565b9182825260019384811690816000146136575750600114613617575b50505050565b90919394506000526020928360002092846000945b838610613643575050505001019038808080613611565b80548587018301529401938590820161362c565b9294505050602093945060ff191683830152151560051b01019038808080613611565b6020908160408183019282815285518094520193019160005b8281106136a1575050505090565b835185529381019392810192600101613693565b6001600160401b038111610cc55760051b60200190565b9080601f8301121561036f578135906136e4826136b5565b926136f260405194856134eb565b828452602092838086019160051b8301019280841161036f57848301915b8483106137205750505050505090565b82356001600160401b03811161036f5786916137418484809489010161350c565b815201920191613710565b604060031982011261036f57600435906001600160401b03821161036f576137769160040161350c565b9060243590565b80548210156103385760005260206000200190600090565b3360009081527f50efbde2d46c37e9785f1791697f77e94bb7b701e19f1930a668820722d37694602090815260408083205490927fa49807205ce4d355092ef5a8a18f56e8913cf4a201fbe287825b095693c217759160019060ff16156137fd575050505050565b61380633613cea565b92855191613813836134d0565b6042835285830193606036863783511561399c5760308553835182101561399c5790607860218501536041915b81831161392e575050506138ec5760486138e89386936138cc936138bd985198899376020b1b1b2b9b9a1b7b73a3937b61d1030b1b1b7bab73a1604d1b8a860152613894815180928c603789019101613562565b8401917001034b99036b4b9b9b4b733903937b6329607d1b603784015251809386840190613562565b010360288101875201856134eb565b5192839262461bcd60e51b845260048401526024830190613585565b0390fd5b60648486519062461bcd60e51b825280600483015260248201527f537472696e67733a20686578206c656e67746820696e73756666696369656e746044820152fd5b909192600f81166010811015613988576f181899199a1a9b1b9c1cb0b131b232b360811b901a61395e8587613cd9565b5360041c92801561397457600019019190613840565b634e487b7160e01b82526011600452602482fd5b634e487b7160e01b83526032600452602483fd5b634e487b7160e01b81526032600452602490fd5b3360009081527fe7cde21d50c1b02a2f8cc90c75a6cb6dec76dd80cdc9be1968e265db5683a537602090815260408083205490927f4848aa3d2c0568bab3ca9720f91818ee0957e95426fa0627cc4809e2e5ed8be09160019060ff1615613a18575050505050565b613a2133613cea565b92855191613a2e836134d0565b6042835285830193606036863783511561399c5760308553835182101561399c5790607860218501536041915b818311613aaf575050506138ec5760486138e89386936138cc936138bd985198899376020b1b1b2b9b9a1b7b73a3937b61d1030b1b1b7bab73a1604d1b8a860152613894815180928c603789019101613562565b909192600f81166010811015613988576f181899199a1a9b1b9c1cb0b131b232b360811b901a613adf8587613cd9565b5360041c92801561397457600019019190613a5b565b6000818152600191602091838352604093848220338352845260ff858320541615613b21575050505050565b613b2a33613cea565b92855191613b37836134d0565b6042835285830193606036863783511561399c5760308553835182101561399c5790607860218501536041915b818311613bb8575050506138ec5760486138e89386936138cc936138bd985198899376020b1b1b2b9b9a1b7b73a3937b61d1030b1b1b7bab73a1604d1b8a860152613894815180928c603789019101613562565b909192600f81166010811015613988576f181899199a1a9b1b9c1cb0b131b232b360811b901a613be88587613cd9565b5360041c92801561397457600019019190613b64565b906000918083526001602052604083209160018060a01b03169182845260205260ff604084205416613c2f57505050565b8083526001602052604083208284526020526040832060ff1981541690557ff6391f5c32d9c69d2a47ea670b442974b53935d1edc7fd64eb21e047a839171b339380a4565b6000546001600160a01b03163303613c8857565b606460405162461bcd60e51b815260206004820152602060248201527f4f776e61626c653a2063616c6c6572206973206e6f7420746865206f776e65726044820152fd5b9190820180921161032257565b908151811015610338570160200190565b60405190613cf7826134b5565b602a82526020820160403682378251156103385760309053815160019081101561033857607860218401536029905b808211613d7a575050613d365790565b606460405162461bcd60e51b815260206004820152602060248201527f537472696e67733a20686578206c656e67746820696e73756666696369656e746044820152fd5b9091600f81166010811015613dd3576f181899199a1a9b1b9c1cb0b131b232b360811b901a613da98486613cd9565b5360041c918015613dbe576000190190613d26565b60246000634e487b7160e01b81526011600452fd5b60246000634e487b7160e01b81526032600452fd5b15613def57565b60405162461bcd60e51b815260206004820152601760248201527f54726f6e6720736f206d757374206265203c3d203130300000000000000000006044820152606490fd5b818110613e3f575050565b60008155600101613e34565b9190601f8111613e5a57505050565b613e86926000526020600020906020601f840160051c83019310613e88575b601f0160051c0190613e34565b565b9091508190613e79565b613eaa90602060405192828480945193849201613562565b810103902090565b15613eb957565b60405162461bcd60e51b815260206004820152601b60248201527f4b504920637269746572696120646f6573206e6f7420657869737400000000006044820152606490fd5b8054600160401b811015610cc557613f1b9160018201815561377d565b819291549060031b91821b91600019901b1916179055565b15613f3a57565b60405162461bcd60e51b815260206004820152601960248201527f4576616c756174696f6e20646f6573206e6f74206578697374000000000000006044820152606490fd5b9190820391821161032257565b8115613f96570490565b634e487b7160e01b600052601260045260246000fd5b90604080518351613fc281836020809801613562565b81019084816004938481520301902090825192613fde84613462565b8051613fee816106a081876135e4565b8452805195600196614006816106a0818b89016135e4565b81860152815161401d816106a081600289016135e4565b828601528151614034816106a081600389016135e4565b60608601908152825161404d816106a081888a016135e4565b6080870152600585015460a087015260068501549560c0810196875260078601549560e0820196875260088101998a5490614087826136b5565b91614094885193846134eb565b80835260009c8d52868d208d908885015b83831061427257505050505091610160600b6944696e68206c756f6e6760b01b95937f606c48af7aa0b6848d5b98d1b45f1271b74f4ca1809de35bee0856cc6163c0279897956101008501528751614104816106a081600986016135e4565b61012085015260ff600a82015416151561014085015201549101525181815191012092516141318161349a565b600a8152015214614160575b5051821061414e5750606492915050565b5111905061415b57604b90565b603290565b81518061416d575061413d565b80919695925084101561426857825190818510156141fa57505081518060031b90808204600814901517156141e757600a90048310156141de576032830292808404603214901517156141cb57506141c89293505190613f8c565b90565b634e487b7160e01b815260118552602490fd5b50603293505050565b634e487b7160e01b825260118652602482fd5b61421492949161420c91979697613f7f565b925190613f7f565b601981029080820460191490151715614255579061423191613f8c565b604b019182604b1161424257505090565b634e487b7160e01b825260119052602490fd5b634e487b7160e01b835260118452602483fd5b5060649450505050565b848a81928d51614286816106a081896135e4565b8152019201920191906140a5565b605a81101561431157604b8110156142f157603211156142d2576040516142ba8161349a565b600881526710da1d584819185d60c21b602082015290565b6040516142de8161349a565b600381526211185d60ea1b602082015290565b506040516142fe8161349a565b6003815262151bdd60ea1b602082015290565b5060405161431e8161349a565b6008815267587561742073616360c01b602082015290565b60001981146103225760010190565b6020614361919392938160405193828580945193849201613562565b81016006815203019020916040518084602082965493848152019060005260206000209260005b81811061477357505061439d925003846134eb565b60009260009360009160005b81518110156147115760208160051b8301015160005260056020526040600020604051906143d68261347e565b805482526040516143ee816106a081600186016135e4565b6020830152604051614407816106a081600286016135e4565b6040830152604051614420816106a081600386016135e4565b606083015260048101546080830152600581015460a0830152600681015460c0830152600781015460e0830152604051614461816106a081600886016135e4565b61010083015260405161447b816106a081600986016135e4565b610120830152604051614495816106a081600a86016135e4565b610140830152604051906144b7826144b081600b85016135e4565b03836134eb565b81610160840152600d600c918281015461018086015201546101a0840152606083015160208151910120885160208a01201491826146bb575b5050614506575b5061450190614336565b6143a9565b9261452860206040869a94979a01518160405193828580945193849201613562565b81016004815203019020936040519461454086613462565b604051614551816106a081856135e4565b8652604051614567816106a081600186016135e4565b6020870152604051614580816106a081600286016135e4565b6040870152604051614599816106a081600386016135e4565b60608701526040516145b2816106a081600486016135e4565b6080870152600581015460a0870152600681015460c0870152600781015460e08701526008810180546145e4816136b5565b916145f260405193846134eb565b81835260208301906000526020600020906000905b838210614696575050505060e09291600b91610100890152604051614633816106a081600986016135e4565b61012089015260ff600a820154161515610140890152015461016087015201519060a085015191828102928184041490151715610322576145019260a061468061468f9461468994613ccc565b96015190613ccc565b97614336565b93906144f7565b6001602081926040516146ad816106a0818a6135e4565b815201930191019091614607565b7f3f437077f52723070cec42fdd9611915faf58e7d8e77a8e0b282ed1d671455b39250602081816b1118481c1a1948191d5e595d60a21b935191012092604051906147058261349a565b815201521438806144f0565b5050915092831561474657801561473c5761472b91613f8c565b905b61473682614294565b91929190565b505060009061472d565b50509050600090600090604051602081018181106001600160401b03821117610cc5576040526000815290565b845483526001948501948894506020909301920161438856fea2646970667358221220b6e981556400eafc43c510cd09191f827440c578119fc65f6b9ea04fec67465c64736f6c634300081300332f8788117e7eff1d82e926ec794901d17c78024a50270940304540a733656f0d",
  "linkReferences": {},
  "deployedLinkReferences": {}
}