{"contracts/AttendancePayment.sol":{"AttendancePayment":{"abi":[{"inputs":[{"internalType":"address","name":"_tokenAddress","type":"address"}],"stateMutability":"nonpayable","type":"constructor"},{"anonymous":false,"inputs":[{"indexed":true,"internalType":"string","name":"employeeDid","type":"string"},{"indexed":true,"internalType":"address","name":"employeeWallet","type":"address"},{"indexed":false,"internalType":"string","name":"date","type":"string"},{"indexed":false,"internalType":"uint256","name":"hoursWorked","type":"uint256"},{"indexed":false,"internalType":"uint256","name":"amountPaid","type":"uint256"},{"indexed":false,"internalType":"uint256","name":"timestamp","type":"uint256"}],"name":"AttendancePaid","type":"event"},{"anonymous":false,"inputs":[{"indexed":true,"internalType":"string","name":"employeeDid","type":"string"},{"indexed":false,"internalType":"string","name":"date","type":"string"},{"indexed":false,"internalType":"uint256","name":"hoursWorked","type":"uint256"},{"indexed":false,"internalType":"string","name":"reason","type":"string"}],"name":"PaymentRejected","type":"event"},{"inputs":[],"name":"HOURLY_RATE","outputs":[{"internalType":"uint256","name":"","type":"uint256"}],"stateMutability":"view","type":"function"},{"inputs":[],"name":"MINIMUM_HOURS","outputs":[{"internalType":"uint256","name":"","type":"uint256"}],"stateMutability":"view","type":"function"},{"inputs":[],"name":"RATE_DECIMALS","outputs":[{"internalType":"uint8","name":"","type":"uint8"}],"stateMutability":"view","type":"function"},{"inputs":[],"name":"admin","outputs":[{"internalType":"address","name":"","type":"address"}],"stateMutability":"view","type":"function"},{"inputs":[{"internalType":"address","name":"_newAdmin","type":"address"}],"name":"changeAdmin","outputs":[],"stateMutability":"nonpayable","type":"function"},{"inputs":[{"internalType":"string","name":"_employeeDid","type":"string"},{"internalType":"string","name":"_date","type":"string"}],"name":"checkPaymentStatus","outputs":[{"internalType":"bool","name":"","type":"bool"}],"stateMutability":"view","type":"function"},{"inputs":[{"internalType":"uint256","name":"_amount","type":"uint256"}],"name":"depositTokens","outputs":[],"stateMutability":"nonpayable","type":"function"},{"inputs":[],"name":"getContractBalance","outputs":[{"internalType":"uint256","name":"","type":"uint256"}],"stateMutability":"view","type":"function"},{"inputs":[{"internalType":"string","name":"","type":"string"},{"internalType":"string","name":"","type":"string"}],"name":"hasPaid","outputs":[{"internalType":"bool","name":"","type":"bool"}],"stateMutability":"view","type":"function"},{"inputs":[{"internalType":"string","name":"_employeeDid","type":"string"},{"internalType":"address","name":"_employeeWallet","type":"address"},{"internalType":"string","name":"_date","type":"string"},{"internalType":"uint256","name":"_hoursWorked","type":"uint256"},{"internalType":"uint256","name":"_amountInTokenUnits","type":"uint256"}],"name":"payAttendance","outputs":[],"stateMutability":"nonpayable","type":"function"},{"inputs":[],"name":"paymentToken","outputs":[{"internalType":"contract IERC20","name":"","type":"address"}],"stateMutability":"view","type":"function"},{"inputs":[{"internalType":"uint256","name":"_amount","type":"uint256"}],"name":"withdrawTokens","outputs":[],"stateMutability":"nonpayable","type":"function"}],"evm":{"bytecode":{"linkReferences":{},"object":"60803461007a57601f610bb638819003918201601f19168301916001600160401b0383118484101761007f5780849260209460405283398101031261007a57516001600160a01b0381169081900361007a5760018060a01b0319338160005416176000556001541617600155604051610b2090816100968239f35b600080fd5b634e487b7160e01b600052604160045260246000fdfe608060408181526004918236101561001657600080fd5b600092833560e01c9182633013ce291461090057508163315a095d146107db578163398dc765146104085781633a251d0b146103ec5781635a604c52146103d057816363965565146103b45781636f9fb98a1461031c5781638f28397014610290578163d8ca978f14610273578163dd49756e1461011d57508063edbb86f6146100d35763f851a440146100a957600080fd5b346100cf57816003193601126100cf57905490516001600160a01b039091168152602090f35b5080fd5b50346100cf5760209060ff610112836101026100ee366109b9565b929081875193828580945193849201610a00565b8101600281520301902090610a23565b541690519015158152f35b9190503461026f576020908160031936011261026b578360018060a01b03610149818354163314610a8a565b60015416825163313ce56760e01b815284818781855afa9081156102615761018a61018360ff8895946064948891610234575b5016610adc565b8835610a49565b855194859384926323b872dd60e01b8452338b85015230602485015260448401525af190811561022a5785916101fd575b50156101c5578380f35b5162461bcd60e51b8152918201526014602482015273151bdad95b8819195c1bdcda5d0819985a5b195960621b604482015260649150fd5b61021d9150833d8511610223575b6102158183610925565b810190610a72565b386101bb565b503d61020b565b82513d87823e3d90fd5b6102549150873d891161025a575b61024c8183610925565b810190610ac3565b3861017c565b503d610242565b84513d85823e3d90fd5b8380fd5b8280fd5b9190503461026f578260031936011261026f576020925051908152f35b9190503461026f57602036600319011261026f576001600160a01b03823581811693919290849003610318576102cb85549384163314610a8a565b83156102e35750506001600160a01b03191617815580f35b906020606492519162461bcd60e51b8352820152600f60248201526e496e76616c6964206164647265737360881b6044820152fd5b8480fd5b9190503461026f578260031936011261026f5760015481516370a0823160e01b81523093810193909352602090839060249082906001600160a01b03165afa9182156103aa578392610373575b6020838351908152f35b9091506020813d82116103a2575b8161038e60209383610925565b8101031261026f5760209250519038610369565b3d9150610381565b81513d85823e3d90fd5b5050346100cf5760209060ff610112836101026100ee366109b9565b5050346100cf57816003193601126100cf576020905160128152f35b5050346100cf57816003193601126100cf576020905160028152f35b9190503461026f5760a036600319011261026f5767ffffffffffffffff82358181116103185761043b903690850161095d565b6001600160a01b03602480358281169690939092908785036107d75760449586359081116107d357610470903690860161095d565b9360649081359760843595858d54163303610795578a519885519660209a8b818a81838c019c6104a0918e610a00565b810160028152030190206104b4908b610a23565b5460ff16610755576101908c106107155788156106dc576001548d516370a0823160e01b81523087820152911691908f908c818681875afa9182156106d157908b9261069c575b501061065c578c5163a9059cbb60e01b81526001600160a01b03909116858201908152602081018a90528f928c9183919082908690829060400103925af19182156106515791610634575b50156105fe5750505050916105bb60a094927fd08117d4613308b4a2274859f91526131165450aecbc11b3c96d0ef1e756349d9796946105a08a5187818451610590818389610a00565b8101600281520301902086610a23565b600160ff198254161790558951928392839251928391610a00565b8101039020968051958694608086526105e2855180968160808a0152838a8a019101610a00565b850152830152426060830152601f01601f19168101030190a380f35b8a5162461bcd60e51b815292830189905260159083015274151bdad95b881d1c985b9cd9995c8819985a5b1959605a1b90820152fd5b61064b91508a3d8c11610223576102158183610925565b38610546565b8d51903d90823e3d90fd5b50508a5162461bcd60e51b8152928301899052601d908301527f496e73756666696369656e7420636f6e74726163742062616c616e636500000090820152fd5b8092508d8092503d83116106ca575b6106b58183610925565b810103126106c657899051386104fb565b8f80fd5b503d6106ab565b8f51903d90823e3d90fd5b50508a5162461bcd60e51b815292830189905260169083015275125b9d985b1a59081c185e5b595b9d08185b5bdd5b9d60521b90820152fd5b50508a5162461bcd60e51b81529283018990526018908301527f4d696e696d756d203420686f757273207265717569726564000000000000000090820152fd5b50508a5162461bcd60e51b8152928301899052601a908301527f416c7265616479207061696420666f722074686973206461746500000000000090820152fd5b90601f7f4f6e6c792061646d696e2063616e2070726f63657373207061796d656e7473009260208d519562461bcd60e51b8752860152840152820152fd5b8980fd5b8880fd5b9190503461026f576020908160031936011261026b5783546001600160a01b039081169061080a338314610a8a565b60015416825163313ce56760e01b815284818781855afa9081156108f6579161084561018360ff61087c969489968c91610234575016610adc565b855163a9059cbb60e01b81526001600160a01b0390931688840190815260208101919091529193849283918a918391604090910190565b03925af190811561022a5785916108d9575b5015610898578380f35b5162461bcd60e51b815291820152601760248201527f546f6b656e207769746864726177616c206661696c6564000000000000000000604482015260649150fd5b6108f09150833d8511610223576102158183610925565b3861088e565b84513d89823e3d90fd5b8490346100cf57816003193601126100cf576001546001600160a01b03168152602090f35b90601f8019910116810190811067ffffffffffffffff82111761094757604052565b634e487b7160e01b600052604160045260246000fd5b81601f820112156109b45780359067ffffffffffffffff82116109475760405192610992601f8401601f191660200185610925565b828452602083830101116109b457816000926020809301838601378301015290565b600080fd5b9060406003198301126109b45767ffffffffffffffff6004358181116109b457836109e69160040161095d565b926024359182116109b4576109fd9160040161095d565b90565b60005b838110610a135750506000910152565b8181015183820152602001610a03565b602090610a3d928260405194838680955193849201610a00565b82019081520301902090565b81810292918115918404141715610a5c57565b634e487b7160e01b600052601160045260246000fd5b908160209103126109b4575180151581036109b45790565b15610a9157565b60405162461bcd60e51b815260206004820152600a60248201526927b7363c9030b236b4b760b11b6044820152606490fd5b908160209103126109b4575160ff811681036109b45790565b604d8111610a5c57600a0a9056fea264697066735822122027bf2a3246704ecd80f8ce145336bb7520ee3233a99486da45530e0e2f953ea964736f6c63430008130033","opcodes":"PUSH1 0x80 CALLVALUE PUSH2 0x7A JUMPI PUSH1 0x1F PUSH2 0xBB6 CODESIZE DUP2 SWAP1 SUB SWAP2 DUP3 ADD PUSH1 0x1F NOT AND DUP4 ADD SWAP2 PUSH1 0x1 PUSH1 0x1 PUSH1 0x40 SHL SUB DUP4 GT DUP5 DUP5 LT OR PUSH2 0x7F JUMPI DUP1 DUP5 SWAP3 PUSH1 0x20 SWAP5 PUSH1 0x40 MSTORE DUP4 CODECOPY DUP2 ADD SUB SLT PUSH2 0x7A JUMPI MLOAD PUSH1 0x1 PUSH1 0x1 PUSH1 0xA0 SHL SUB DUP2 AND SWAP1 DUP2 SWAP1 SUB PUSH2 0x7A JUMPI PUSH1 0x1 DUP1 PUSH1 0xA0 SHL SUB NOT CALLER DUP2 PUSH1 0x0 SLOAD AND OR PUSH1 0x0 SSTORE PUSH1 0x1 SLOAD AND OR PUSH1 0x1 SSTORE PUSH1 0x40 MLOAD PUSH2 0xB20 SWAP1 DUP2 PUSH2 0x96 DUP3 CODECOPY RETURN JUMPDEST PUSH1 0x0 DUP1 REVERT JUMPDEST PUSH4 0x4E487B71 PUSH1 0xE0 SHL PUSH1 0x0 MSTORE PUSH1 0x41 PUSH1 0x4 MSTORE PUSH1 0x24 PUSH1 0x0 REVERT INVALID PUSH1 0x80 PUSH1 0x40 DUP2 DUP2 MSTORE PUSH1 0x4 SWAP2 DUP3 CALLDATASIZE LT ISZERO PUSH2 0x16 JUMPI PUSH1 0x0 DUP1 REVERT JUMPDEST PUSH1 0x0 SWAP3 DUP4 CALLDATALOAD PUSH1 0xE0 SHR SWAP2 DUP3 PUSH4 0x3013CE29 EQ PUSH2 0x900 JUMPI POP DUP2 PUSH4 0x315A095D EQ PUSH2 0x7DB JUMPI DUP2 PUSH4 0x398DC765 EQ PUSH2 0x408 JUMPI DUP2 PUSH4 0x3A251D0B EQ PUSH2 0x3EC JUMPI DUP2 PUSH4 0x5A604C52 EQ PUSH2 0x3D0 JUMPI DUP2 PUSH4 0x63965565 EQ PUSH2 0x3B4 JUMPI DUP2 PUSH4 0x6F9FB98A EQ PUSH2 0x31C JUMPI DUP2 PUSH4 0x8F283970 EQ PUSH2 0x290 JUMPI DUP2 PUSH4 0xD8CA978F EQ PUSH2 0x273 JUMPI DUP2 PUSH4 0xDD49756E EQ PUSH2 0x11D JUMPI POP DUP1 PUSH4 0xEDBB86F6 EQ PUSH2 0xD3 JUMPI PUSH4 0xF851A440 EQ PUSH2 0xA9 JUMPI PUSH1 0x0 DUP1 REVERT JUMPDEST CALLVALUE PUSH2 0xCF JUMPI DUP2 PUSH1 0x3 NOT CALLDATASIZE ADD SLT PUSH2 0xCF JUMPI SWAP1 SLOAD SWAP1 MLOAD PUSH1 0x1 PUSH1 0x1 PUSH1 0xA0 SHL SUB SWAP1 SWAP2 AND DUP2 MSTORE PUSH1 0x20 SWAP1 RETURN JUMPDEST POP DUP1 REVERT JUMPDEST POP CALLVALUE PUSH2 0xCF JUMPI PUSH1 0x20 SWAP1 PUSH1 0xFF PUSH2 0x112 DUP4 PUSH2 0x102 PUSH2 0xEE CALLDATASIZE PUSH2 0x9B9 JUMP JUMPDEST SWAP3 SWAP1 DUP2 DUP8 MLOAD SWAP4 DUP3 DUP6 DUP1 SWAP5 MLOAD SWAP4 DUP5 SWAP3 ADD PUSH2 0xA00 JUMP JUMPDEST DUP2 ADD PUSH1 0x2 DUP2 MSTORE SUB ADD SWAP1 KECCAK256 SWAP1 PUSH2 0xA23 JUMP JUMPDEST SLOAD AND SWAP1 MLOAD SWAP1 ISZERO ISZERO DUP2 MSTORE RETURN JUMPDEST SWAP2 SWAP1 POP CALLVALUE PUSH2 0x26F JUMPI PUSH1 0x20 SWAP1 DUP2 PUSH1 0x3 NOT CALLDATASIZE ADD SLT PUSH2 0x26B JUMPI DUP4 PUSH1 0x1 DUP1 PUSH1 0xA0 SHL SUB PUSH2 0x149 DUP2 DUP4 SLOAD AND CALLER EQ PUSH2 0xA8A JUMP JUMPDEST PUSH1 0x1 SLOAD AND DUP3 MLOAD PUSH4 0x313CE567 PUSH1 0xE0 SHL DUP2 MSTORE DUP5 DUP2 DUP8 DUP2 DUP6 GAS STATICCALL SWAP1 DUP2 ISZERO PUSH2 0x261 JUMPI PUSH2 0x18A PUSH2 0x183 PUSH1 0xFF DUP9 SWAP6 SWAP5 PUSH1 0x64 SWAP5 DUP9 SWAP2 PUSH2 0x234 JUMPI JUMPDEST POP AND PUSH2 0xADC JUMP JUMPDEST DUP9 CALLDATALOAD PUSH2 0xA49 JUMP JUMPDEST DUP6 MLOAD SWAP5 DUP6 SWAP4 DUP5 SWAP3 PUSH4 0x23B872DD PUSH1 0xE0 SHL DUP5 MSTORE CALLER DUP12 DUP6 ADD MSTORE ADDRESS PUSH1 0x24 DUP6 ADD MSTORE PUSH1 0x44 DUP5 ADD MSTORE GAS CALL SWAP1 DUP2 ISZERO PUSH2 0x22A JUMPI DUP6 SWAP2 PUSH2 0x1FD JUMPI JUMPDEST POP ISZERO PUSH2 0x1C5 JUMPI DUP4 DUP1 RETURN JUMPDEST MLOAD PUSH3 0x461BCD PUSH1 0xE5 SHL DUP2 MSTORE SWAP2 DUP3 ADD MSTORE PUSH1 0x14 PUSH1 0x24 DUP3 ADD MSTORE PUSH20 0x151BDAD95B8819195C1BDCDA5D0819985A5B1959 PUSH1 0x62 SHL PUSH1 0x44 DUP3 ADD MSTORE PUSH1 0x64 SWAP2 POP REVERT JUMPDEST PUSH2 0x21D SWAP2 POP DUP4 RETURNDATASIZE DUP6 GT PUSH2 0x223 JUMPI JUMPDEST PUSH2 0x215 DUP2 DUP4 PUSH2 0x925 JUMP JUMPDEST DUP2 ADD SWAP1 PUSH2 0xA72 JUMP JUMPDEST CODESIZE PUSH2 0x1BB JUMP JUMPDEST POP RETURNDATASIZE PUSH2 0x20B JUMP JUMPDEST DUP3 MLOAD RETURNDATASIZE DUP8 DUP3 RETURNDATACOPY RETURNDATASIZE SWAP1 REVERT JUMPDEST PUSH2 0x254 SWAP2 POP DUP8 RETURNDATASIZE DUP10 GT PUSH2 0x25A JUMPI JUMPDEST PUSH2 0x24C DUP2 DUP4 PUSH2 0x925 JUMP JUMPDEST DUP2 ADD SWAP1 PUSH2 0xAC3 JUMP JUMPDEST CODESIZE PUSH2 0x17C JUMP JUMPDEST POP RETURNDATASIZE PUSH2 0x242 JUMP JUMPDEST DUP5 MLOAD RETURNDATASIZE DUP6 DUP3 RETURNDATACOPY RETURNDATASIZE SWAP1 REVERT JUMPDEST DUP4 DUP1 REVERT JUMPDEST DUP3 DUP1 REVERT JUMPDEST SWAP2 SWAP1 POP CALLVALUE PUSH2 0x26F JUMPI DUP3 PUSH1 0x3 NOT CALLDATASIZE ADD SLT PUSH2 0x26F JUMPI PUSH1 0x20 SWAP3 POP MLOAD SWAP1 DUP2 MSTORE RETURN JUMPDEST SWAP2 SWAP1 POP CALLVALUE PUSH2 0x26F JUMPI PUSH1 0x20 CALLDATASIZE PUSH1 0x3 NOT ADD SLT PUSH2 0x26F JUMPI PUSH1 0x1 PUSH1 0x1 PUSH1 0xA0 SHL SUB DUP3 CALLDATALOAD DUP2 DUP2 AND SWAP4 SWAP2 SWAP3 SWAP1 DUP5 SWAP1 SUB PUSH2 0x318 JUMPI PUSH2 0x2CB DUP6 SLOAD SWAP4 DUP5 AND CALLER EQ PUSH2 0xA8A JUMP JUMPDEST DUP4 ISZERO PUSH2 0x2E3 JUMPI POP POP PUSH1 0x1 PUSH1 0x1 PUSH1 0xA0 SHL SUB NOT AND OR DUP2 SSTORE DUP1 RETURN JUMPDEST SWAP1 PUSH1 0x20 PUSH1 0x64 SWAP3 MLOAD SWAP2 PUSH3 0x461BCD PUSH1 0xE5 SHL DUP4 MSTORE DUP3 ADD MSTORE PUSH1 0xF PUSH1 0x24 DUP3 ADD MSTORE PUSH15 0x496E76616C69642061646472657373 PUSH1 0x88 SHL PUSH1 0x44 DUP3 ADD MSTORE REVERT JUMPDEST DUP5 DUP1 REVERT JUMPDEST SWAP2 SWAP1 POP CALLVALUE PUSH2 0x26F JUMPI DUP3 PUSH1 0x3 NOT CALLDATASIZE ADD SLT PUSH2 0x26F JUMPI PUSH1 0x1 SLOAD DUP2 MLOAD PUSH4 0x70A08231 PUSH1 0xE0 SHL DUP2 MSTORE ADDRESS SWAP4 DUP2 ADD SWAP4 SWAP1 SWAP4 MSTORE PUSH1 0x20 SWAP1 DUP4 SWAP1 PUSH1 0x24 SWAP1 DUP3 SWAP1 PUSH1 0x1 PUSH1 0x1 PUSH1 0xA0 SHL SUB AND GAS STATICCALL SWAP2 DUP3 ISZERO PUSH2 0x3AA JUMPI DUP4 SWAP3 PUSH2 0x373 JUMPI JUMPDEST PUSH1 0x20 DUP4 DUP4 MLOAD SWAP1 DUP2 MSTORE RETURN JUMPDEST SWAP1 SWAP2 POP PUSH1 0x20 DUP2 RETURNDATASIZE DUP3 GT PUSH2 0x3A2 JUMPI JUMPDEST DUP2 PUSH2 0x38E PUSH1 0x20 SWAP4 DUP4 PUSH2 0x925 JUMP JUMPDEST DUP2 ADD SUB SLT PUSH2 0x26F JUMPI PUSH1 0x20 SWAP3 POP MLOAD SWAP1 CODESIZE PUSH2 0x369 JUMP JUMPDEST RETURNDATASIZE SWAP2 POP PUSH2 0x381 JUMP JUMPDEST DUP2 MLOAD RETURNDATASIZE DUP6 DUP3 RETURNDATACOPY RETURNDATASIZE SWAP1 REVERT JUMPDEST POP POP CALLVALUE PUSH2 0xCF JUMPI PUSH1 0x20 SWAP1 PUSH1 0xFF PUSH2 0x112 DUP4 PUSH2 0x102 PUSH2 0xEE CALLDATASIZE PUSH2 0x9B9 JUMP JUMPDEST POP POP CALLVALUE PUSH2 0xCF JUMPI DUP2 PUSH1 0x3 NOT CALLDATASIZE ADD SLT PUSH2 0xCF JUMPI PUSH1 0x20 SWAP1 MLOAD PUSH1 0x12 DUP2 MSTORE RETURN JUMPDEST POP POP CALLVALUE PUSH2 0xCF JUMPI DUP2 PUSH1 0x3 NOT CALLDATASIZE ADD SLT PUSH2 0xCF JUMPI PUSH1 0x20 SWAP1 MLOAD PUSH1 0x2 DUP2 MSTORE RETURN JUMPDEST SWAP2 SWAP1 POP CALLVALUE PUSH2 0x26F JUMPI PUSH1 0xA0 CALLDATASIZE PUSH1 0x3 NOT ADD SLT PUSH2 0x26F JUMPI PUSH8 0xFFFFFFFFFFFFFFFF DUP3 CALLDATALOAD DUP2 DUP2 GT PUSH2 0x318 JUMPI PUSH2 0x43B SWAP1 CALLDATASIZE SWAP1 DUP6 ADD PUSH2 0x95D JUMP JUMPDEST PUSH1 0x1 PUSH1 0x1 PUSH1 0xA0 SHL SUB PUSH1 0x24 DUP1 CALLDATALOAD DUP3 DUP2 AND SWAP7 SWAP1 SWAP4 SWAP1 SWAP3 SWAP1 DUP8 DUP6 SUB PUSH2 0x7D7 JUMPI PUSH1 0x44 SWAP6 DUP7 CALLDATALOAD SWAP1 DUP2 GT PUSH2 0x7D3 JUMPI PUSH2 0x470 SWAP1 CALLDATASIZE SWAP1 DUP7 ADD PUSH2 0x95D JUMP JUMPDEST SWAP4 PUSH1 0x64 SWAP1 DUP2 CALLDATALOAD SWAP8 PUSH1 0x84 CALLDATALOAD SWAP6 DUP6 DUP14 SLOAD AND CALLER SUB PUSH2 0x795 JUMPI DUP11 MLOAD SWAP9 DUP6 MLOAD SWAP7 PUSH1 0x20 SWAP11 DUP12 DUP2 DUP11 DUP2 DUP4 DUP13 ADD SWAP13 PUSH2 0x4A0 SWAP2 DUP15 PUSH2 0xA00 JUMP JUMPDEST DUP2 ADD PUSH1 0x2 DUP2 MSTORE SUB ADD SWAP1 KECCAK256 PUSH2 0x4B4 SWAP1 DUP12 PUSH2 0xA23 JUMP JUMPDEST SLOAD PUSH1 0xFF AND PUSH2 0x755 JUMPI PUSH2 0x190 DUP13 LT PUSH2 0x715 JUMPI DUP9 ISZERO PUSH2 0x6DC JUMPI PUSH1 0x1 SLOAD DUP14 MLOAD PUSH4 0x70A08231 PUSH1 0xE0 SHL DUP2 MSTORE ADDRESS DUP8 DUP3 ADD MSTORE SWAP2 AND SWAP2 SWAP1 DUP16 SWAP1 DUP13 DUP2 DUP7 DUP2 DUP8 GAS STATICCALL SWAP2 DUP3 ISZERO PUSH2 0x6D1 JUMPI SWAP1 DUP12 SWAP3 PUSH2 0x69C JUMPI JUMPDEST POP LT PUSH2 0x65C JUMPI DUP13 MLOAD PUSH4 0xA9059CBB PUSH1 0xE0 SHL DUP2 MSTORE PUSH1 0x1 PUSH1 0x1 PUSH1 0xA0 SHL SUB SWAP1 SWAP2 AND DUP6 DUP3 ADD SWAP1 DUP2 MSTORE PUSH1 0x20 DUP2 ADD DUP11 SWAP1 MSTORE DUP16 SWAP3 DUP13 SWAP2 DUP4 SWAP2 SWAP1 DUP3 SWAP1 DUP7 SWAP1 DUP3 SWAP1 PUSH1 0x40 ADD SUB SWAP3 GAS CALL SWAP2 DUP3 ISZERO PUSH2 0x651 JUMPI SWAP2 PUSH2 0x634 JUMPI JUMPDEST POP ISZERO PUSH2 0x5FE JUMPI POP POP POP POP SWAP2 PUSH2 0x5BB PUSH1 0xA0 SWAP5 SWAP3 PUSH32 0xD08117D4613308B4A2274859F91526131165450AECBC11B3C96D0EF1E756349D SWAP8 SWAP7 SWAP5 PUSH2 0x5A0 DUP11 MLOAD DUP8 DUP2 DUP5 MLOAD PUSH2 0x590 DUP2 DUP4 DUP10 PUSH2 0xA00 JUMP JUMPDEST DUP2 ADD PUSH1 0x2 DUP2 MSTORE SUB ADD SWAP1 KECCAK256 DUP7 PUSH2 0xA23 JUMP JUMPDEST PUSH1 0x1 PUSH1 0xFF NOT DUP3 SLOAD AND OR SWAP1 SSTORE DUP10 MLOAD SWAP3 DUP4 SWAP3 DUP4 SWAP3 MLOAD SWAP3 DUP4 SWAP2 PUSH2 0xA00 JUMP JUMPDEST DUP2 ADD SUB SWAP1 KECCAK256 SWAP7 DUP1 MLOAD SWAP6 DUP7 SWAP5 PUSH1 0x80 DUP7 MSTORE PUSH2 0x5E2 DUP6 MLOAD DUP1 SWAP7 DUP2 PUSH1 0x80 DUP11 ADD MSTORE DUP4 DUP11 DUP11 ADD SWAP2 ADD PUSH2 0xA00 JUMP JUMPDEST DUP6 ADD MSTORE DUP4 ADD MSTORE TIMESTAMP PUSH1 0x60 DUP4 ADD MSTORE PUSH1 0x1F ADD PUSH1 0x1F NOT AND DUP2 ADD SUB ADD SWAP1 LOG3 DUP1 RETURN JUMPDEST DUP11 MLOAD PUSH3 0x461BCD PUSH1 0xE5 SHL DUP2 MSTORE SWAP3 DUP4 ADD DUP10 SWAP1 MSTORE PUSH1 0x15 SWAP1 DUP4 ADD MSTORE PUSH21 0x151BDAD95B881D1C985B9CD9995C8819985A5B1959 PUSH1 0x5A SHL SWAP1 DUP3 ADD MSTORE REVERT JUMPDEST PUSH2 0x64B SWAP2 POP DUP11 RETURNDATASIZE DUP13 GT PUSH2 0x223 JUMPI PUSH2 0x215 DUP2 DUP4 PUSH2 0x925 JUMP JUMPDEST CODESIZE PUSH2 0x546 JUMP JUMPDEST DUP14 MLOAD SWAP1 RETURNDATASIZE SWAP1 DUP3 RETURNDATACOPY RETURNDATASIZE SWAP1 REVERT JUMPDEST POP POP DUP11 MLOAD PUSH3 0x461BCD PUSH1 0xE5 SHL DUP2 MSTORE SWAP3 DUP4 ADD DUP10 SWAP1 MSTORE PUSH1 0x1D SWAP1 DUP4 ADD MSTORE PUSH32 0x496E73756666696369656E7420636F6E74726163742062616C616E6365000000 SWAP1 DUP3 ADD MSTORE REVERT JUMPDEST DUP1 SWAP3 POP DUP14 DUP1 SWAP3 POP RETURNDATASIZE DUP4 GT PUSH2 0x6CA JUMPI JUMPDEST PUSH2 0x6B5 DUP2 DUP4 PUSH2 0x925 JUMP JUMPDEST DUP2 ADD SUB SLT PUSH2 0x6C6 JUMPI DUP10 SWAP1 MLOAD CODESIZE PUSH2 0x4FB JUMP JUMPDEST DUP16 DUP1 REVERT JUMPDEST POP RETURNDATASIZE PUSH2 0x6AB JUMP JUMPDEST DUP16 MLOAD SWAP1 RETURNDATASIZE SWAP1 DUP3 RETURNDATACOPY RETURNDATASIZE SWAP1 REVERT JUMPDEST POP POP DUP11 MLOAD PUSH3 0x461BCD PUSH1 0xE5 SHL DUP2 MSTORE SWAP3 DUP4 ADD DUP10 SWAP1 MSTORE PUSH1 0x16 SWAP1 DUP4 ADD MSTORE PUSH22 0x125B9D985B1A59081C185E5B595B9D08185B5BDD5B9D PUSH1 0x52 SHL SWAP1 DUP3 ADD MSTORE REVERT JUMPDEST POP POP DUP11 MLOAD PUSH3 0x461BCD PUSH1 0xE5 SHL DUP2 MSTORE SWAP3 DUP4 ADD DUP10 SWAP1 MSTORE PUSH1 0x18 SWAP1 DUP4 ADD MSTORE PUSH32 0x4D696E696D756D203420686F7572732072657175697265640000000000000000 SWAP1 DUP3 ADD MSTORE REVERT JUMPDEST POP POP DUP11 MLOAD PUSH3 0x461BCD PUSH1 0xE5 SHL DUP2 MSTORE SWAP3 DUP4 ADD DUP10 SWAP1 MSTORE PUSH1 0x1A SWAP1 DUP4 ADD MSTORE PUSH32 0x416C7265616479207061696420666F7220746869732064617465000000000000 SWAP1 DUP3 ADD MSTORE REVERT JUMPDEST SWAP1 PUSH1 0x1F PUSH32 0x4F6E6C792061646D696E2063616E2070726F63657373207061796D656E747300 SWAP3 PUSH1 0x20 DUP14 MLOAD SWAP6 PUSH3 0x461BCD PUSH1 0xE5 SHL DUP8 MSTORE DUP7 ADD MSTORE DUP5 ADD MSTORE DUP3 ADD MSTORE REVERT JUMPDEST DUP10 DUP1 REVERT JUMPDEST DUP9 DUP1 REVERT JUMPDEST SWAP2 SWAP1 POP CALLVALUE PUSH2 0x26F JUMPI PUSH1 0x20 SWAP1 DUP2 PUSH1 0x3 NOT CALLDATASIZE ADD SLT PUSH2 0x26B JUMPI DUP4 SLOAD PUSH1 0x1 PUSH1 0x1 PUSH1 0xA0 SHL SUB SWAP1 DUP2 AND SWAP1 PUSH2 0x80A CALLER DUP4 EQ PUSH2 0xA8A JUMP JUMPDEST PUSH1 0x1 SLOAD AND DUP3 MLOAD PUSH4 0x313CE567 PUSH1 0xE0 SHL DUP2 MSTORE DUP5 DUP2 DUP8 DUP2 DUP6 GAS STATICCALL SWAP1 DUP2 ISZERO PUSH2 0x8F6 JUMPI SWAP2 PUSH2 0x845 PUSH2 0x183 PUSH1 0xFF PUSH2 0x87C SWAP7 SWAP5 DUP10 SWAP7 DUP13 SWAP2 PUSH2 0x234 JUMPI POP AND PUSH2 0xADC JUMP JUMPDEST DUP6 MLOAD PUSH4 0xA9059CBB PUSH1 0xE0 SHL DUP2 MSTORE PUSH1 0x1 PUSH1 0x1 PUSH1 0xA0 SHL SUB SWAP1 SWAP4 AND DUP9 DUP5 ADD SWAP1 DUP2 MSTORE PUSH1 0x20 DUP2 ADD SWAP2 SWAP1 SWAP2 MSTORE SWAP2 SWAP4 DUP5 SWAP3 DUP4 SWAP2 DUP11 SWAP2 DUP4 SWAP2 PUSH1 0x40 SWAP1 SWAP2 ADD SWAP1 JUMP JUMPDEST SUB SWAP3 GAS CALL SWAP1 DUP2 ISZERO PUSH2 0x22A JUMPI DUP6 SWAP2 PUSH2 0x8D9 JUMPI JUMPDEST POP ISZERO PUSH2 0x898 JUMPI DUP4 DUP1 RETURN JUMPDEST MLOAD PUSH3 0x461BCD PUSH1 0xE5 SHL DUP2 MSTORE SWAP2 DUP3 ADD MSTORE PUSH1 0x17 PUSH1 0x24 DUP3 ADD MSTORE PUSH32 0x546F6B656E207769746864726177616C206661696C6564000000000000000000 PUSH1 0x44 DUP3 ADD MSTORE PUSH1 0x64 SWAP2 POP REVERT JUMPDEST PUSH2 0x8F0 SWAP2 POP DUP4 RETURNDATASIZE DUP6 GT PUSH2 0x223 JUMPI PUSH2 0x215 DUP2 DUP4 PUSH2 0x925 JUMP JUMPDEST CODESIZE PUSH2 0x88E JUMP JUMPDEST DUP5 MLOAD RETURNDATASIZE DUP10 DUP3 RETURNDATACOPY RETURNDATASIZE SWAP1 REVERT JUMPDEST DUP5 SWAP1 CALLVALUE PUSH2 0xCF JUMPI DUP2 PUSH1 0x3 NOT CALLDATASIZE ADD SLT PUSH2 0xCF JUMPI PUSH1 0x1 SLOAD PUSH1 0x1 PUSH1 0x1 PUSH1 0xA0 SHL SUB AND DUP2 MSTORE PUSH1 0x20 SWAP1 RETURN JUMPDEST SWAP1 PUSH1 0x1F DUP1 NOT SWAP2 ADD AND DUP2 ADD SWAP1 DUP2 LT PUSH8 0xFFFFFFFFFFFFFFFF DUP3 GT OR PUSH2 0x947 JUMPI PUSH1 0x40 MSTORE JUMP JUMPDEST PUSH4 0x4E487B71 PUSH1 0xE0 SHL PUSH1 0x0 MSTORE PUSH1 0x41 PUSH1 0x4 MSTORE PUSH1 0x24 PUSH1 0x0 REVERT JUMPDEST DUP2 PUSH1 0x1F DUP3 ADD SLT ISZERO PUSH2 0x9B4 JUMPI DUP1 CALLDATALOAD SWAP1 PUSH8 0xFFFFFFFFFFFFFFFF DUP3 GT PUSH2 0x947 JUMPI PUSH1 0x40 MLOAD SWAP3 PUSH2 0x992 PUSH1 0x1F DUP5 ADD PUSH1 0x1F NOT AND PUSH1 0x20 ADD DUP6 PUSH2 0x925 JUMP JUMPDEST DUP3 DUP5 MSTORE PUSH1 0x20 DUP4 DUP4 ADD ADD GT PUSH2 0x9B4 JUMPI DUP2 PUSH1 0x0 SWAP3 PUSH1 0x20 DUP1 SWAP4 ADD DUP4 DUP7 ADD CALLDATACOPY DUP4 ADD ADD MSTORE SWAP1 JUMP JUMPDEST PUSH1 0x0 DUP1 REVERT JUMPDEST SWAP1 PUSH1 0x40 PUSH1 0x3 NOT DUP4 ADD SLT PUSH2 0x9B4 JUMPI PUSH8 0xFFFFFFFFFFFFFFFF PUSH1 0x4 CALLDATALOAD DUP2 DUP2 GT PUSH2 0x9B4 JUMPI DUP4 PUSH2 0x9E6 SWAP2 PUSH1 0x4 ADD PUSH2 0x95D JUMP JUMPDEST SWAP3 PUSH1 0x24 CALLDATALOAD SWAP2 DUP3 GT PUSH2 0x9B4 JUMPI PUSH2 0x9FD SWAP2 PUSH1 0x4 ADD PUSH2 0x95D JUMP JUMPDEST SWAP1 JUMP JUMPDEST PUSH1 0x0 JUMPDEST DUP4 DUP2 LT PUSH2 0xA13 JUMPI POP POP PUSH1 0x0 SWAP2 ADD MSTORE JUMP JUMPDEST DUP2 DUP2 ADD MLOAD DUP4 DUP3 ADD MSTORE PUSH1 0x20 ADD PUSH2 0xA03 JUMP JUMPDEST PUSH1 0x20 SWAP1 PUSH2 0xA3D SWAP3 DUP3 PUSH1 0x40 MLOAD SWAP5 DUP4 DUP7 DUP1 SWAP6 MLOAD SWAP4 DUP5 SWAP3 ADD PUSH2 0xA00 JUMP JUMPDEST DUP3 ADD SWAP1 DUP2 MSTORE SUB ADD SWAP1 KECCAK256 SWAP1 JUMP JUMPDEST DUP2 DUP2 MUL SWAP3 SWAP2 DUP2 ISZERO SWAP2 DUP5 DIV EQ OR ISZERO PUSH2 0xA5C JUMPI JUMP JUMPDEST PUSH4 0x4E487B71 PUSH1 0xE0 SHL PUSH1 0x0 MSTORE PUSH1 0x11 PUSH1 0x4 MSTORE PUSH1 0x24 PUSH1 0x0 REVERT JUMPDEST SWAP1 DUP2 PUSH1 0x20 SWAP2 SUB SLT PUSH2 0x9B4 JUMPI MLOAD DUP1 ISZERO ISZERO DUP2 SUB PUSH2 0x9B4 JUMPI SWAP1 JUMP JUMPDEST ISZERO PUSH2 0xA91 JUMPI JUMP JUMPDEST PUSH1 0x40 MLOAD PUSH3 0x461BCD PUSH1 0xE5 SHL DUP2 MSTORE PUSH1 0x20 PUSH1 0x4 DUP3 ADD MSTORE PUSH1 0xA PUSH1 0x24 DUP3 ADD MSTORE PUSH10 0x27B7363C9030B236B4B7 PUSH1 0xB1 SHL PUSH1 0x44 DUP3 ADD MSTORE PUSH1 0x64 SWAP1 REVERT JUMPDEST SWAP1 DUP2 PUSH1 0x20 SWAP2 SUB SLT PUSH2 0x9B4 JUMPI MLOAD PUSH1 0xFF DUP2 AND DUP2 SUB PUSH2 0x9B4 JUMPI SWAP1 JUMP JUMPDEST PUSH1 0x4D DUP2 GT PUSH2 0xA5C JUMPI PUSH1 0xA EXP SWAP1 JUMP INVALID LOG2 PUSH5 0x6970667358 0x22 SLT KECCAK256 0x27 0xBF 0x2A ORIGIN CHAINID PUSH17 0x4ECD80F8CE145336BB7520EE3233A99486 0xDA GASLIMIT MSTORE8 0xE 0xE 0x2F SWAP6 RETURNDATACOPY 0xA9 PUSH5 0x736F6C6343 STOP ADDMOD SGT STOP CALLER "},"methodIdentifiers":{"HOURLY_RATE()":"3a251d0b","MINIMUM_HOURS()":"d8ca978f","RATE_DECIMALS()":"5a604c52","admin()":"f851a440","changeAdmin(address)":"8f283970","checkPaymentStatus(string,string)":"edbb86f6","depositTokens(uint256)":"dd49756e","getContractBalance()":"6f9fb98a","hasPaid(string,string)":"63965565","payAttendance(string,address,string,uint256,uint256)":"398dc765","paymentToken()":"3013ce29","withdrawTokens(uint256)":"315a095d"}}}}}