{"contracts/QRAuthentication.sol":{"QRAuthentication":{"abi":[{"inputs":[],"stateMutability":"nonpayable","type":"constructor"},{"anonymous":false,"inputs":[{"indexed":true,"internalType":"address","name":"owner","type":"address"},{"indexed":true,"internalType":"address","name":"approved","type":"address"},{"indexed":true,"internalType":"uint256","name":"tokenId","type":"uint256"}],"name":"Approval","type":"event"},{"anonymous":false,"inputs":[{"indexed":true,"internalType":"address","name":"owner","type":"address"},{"indexed":true,"internalType":"address","name":"operator","type":"address"},{"indexed":false,"internalType":"bool","name":"approved","type":"bool"}],"name":"ApprovalForAll","type":"event"},{"anonymous":false,"inputs":[{"indexed":true,"internalType":"address","name":"previousOwner","type":"address"},{"indexed":true,"internalType":"address","name":"newOwner","type":"address"}],"name":"OwnershipTransferred","type":"event"},{"anonymous":false,"inputs":[{"indexed":true,"internalType":"uint256","name":"tokenId","type":"uint256"},{"indexed":false,"internalType":"string","name":"qrCodeId","type":"string"},{"indexed":false,"internalType":"string","name":"employeeDid","type":"string"}],"name":"QRTokenMinted","type":"event"},{"anonymous":false,"inputs":[{"indexed":true,"internalType":"uint256","name":"tokenId","type":"uint256"},{"indexed":false,"internalType":"string","name":"qrCodeId","type":"string"}],"name":"QRTokenRevoked","type":"event"},{"anonymous":false,"inputs":[{"indexed":true,"internalType":"uint256","name":"tokenId","type":"uint256"},{"indexed":false,"internalType":"string","name":"qrCodeId","type":"string"},{"indexed":false,"internalType":"uint256","name":"usageCount","type":"uint256"}],"name":"QRTokenUsed","type":"event"},{"anonymous":false,"inputs":[{"indexed":true,"internalType":"address","name":"from","type":"address"},{"indexed":true,"internalType":"address","name":"to","type":"address"},{"indexed":true,"internalType":"uint256","name":"tokenId","type":"uint256"}],"name":"Transfer","type":"event"},{"inputs":[{"internalType":"address","name":"to","type":"address"},{"internalType":"uint256","name":"tokenId","type":"uint256"}],"name":"approve","outputs":[],"stateMutability":"nonpayable","type":"function"},{"inputs":[{"internalType":"address","name":"owner","type":"address"}],"name":"balanceOf","outputs":[{"internalType":"uint256","name":"","type":"uint256"}],"stateMutability":"view","type":"function"},{"inputs":[{"internalType":"string","name":"","type":"string"},{"internalType":"uint256","name":"","type":"uint256"}],"name":"employeeTokens","outputs":[{"internalType":"uint256","name":"","type":"uint256"}],"stateMutability":"view","type":"function"},{"inputs":[{"internalType":"uint256","name":"tokenId","type":"uint256"}],"name":"getApproved","outputs":[{"internalType":"address","name":"","type":"address"}],"stateMutability":"view","type":"function"},{"inputs":[{"internalType":"string","name":"employeeDid","type":"string"}],"name":"getEmployeeTokens","outputs":[{"internalType":"uint256[]","name":"","type":"uint256[]"}],"stateMutability":"view","type":"function"},{"inputs":[{"internalType":"uint256","name":"tokenId","type":"uint256"}],"name":"getQRToken","outputs":[{"components":[{"internalType":"string","name":"qrCodeId","type":"string"},{"internalType":"string","name":"employeeDid","type":"string"},{"internalType":"string","name":"qrHash","type":"string"},{"internalType":"uint256","name":"issueDate","type":"uint256"},{"internalType":"uint256","name":"expiryDate","type":"uint256"},{"internalType":"bool","name":"isActive","type":"bool"},{"internalType":"uint256","name":"usageCount","type":"uint256"},{"internalType":"uint256","name":"lastUsed","type":"uint256"}],"internalType":"struct QRAuthentication.QRToken","name":"","type":"tuple"}],"stateMutability":"view","type":"function"},{"inputs":[{"internalType":"address","name":"owner","type":"address"},{"internalType":"address","name":"operator","type":"address"}],"name":"isApprovedForAll","outputs":[{"internalType":"bool","name":"","type":"bool"}],"stateMutability":"view","type":"function"},{"inputs":[{"internalType":"string","name":"qrCodeId","type":"string"}],"name":"isQRValid","outputs":[{"internalType":"bool","name":"","type":"bool"}],"stateMutability":"view","type":"function"},{"inputs":[{"internalType":"address","name":"to","type":"address"},{"internalType":"string","name":"qrCodeId","type":"string"},{"internalType":"string","name":"employeeDid","type":"string"},{"internalType":"string","name":"qrHash","type":"string"},{"internalType":"uint256","name":"expiryDate","type":"uint256"}],"name":"mintQRToken","outputs":[{"internalType":"uint256","name":"","type":"uint256"}],"stateMutability":"nonpayable","type":"function"},{"inputs":[],"name":"name","outputs":[{"internalType":"string","name":"","type":"string"}],"stateMutability":"view","type":"function"},{"inputs":[],"name":"owner","outputs":[{"internalType":"address","name":"","type":"address"}],"stateMutability":"view","type":"function"},{"inputs":[{"internalType":"uint256","name":"tokenId","type":"uint256"}],"name":"ownerOf","outputs":[{"internalType":"address","name":"","type":"address"}],"stateMutability":"view","type":"function"},{"inputs":[{"internalType":"string","name":"","type":"string"}],"name":"qrCodeToTokenId","outputs":[{"internalType":"uint256","name":"","type":"uint256"}],"stateMutability":"view","type":"function"},{"inputs":[{"internalType":"uint256","name":"","type":"uint256"}],"name":"qrTokens","outputs":[{"internalType":"string","name":"qrCodeId","type":"string"},{"internalType":"string","name":"employeeDid","type":"string"},{"internalType":"string","name":"qrHash","type":"string"},{"internalType":"uint256","name":"issueDate","type":"uint256"},{"internalType":"uint256","name":"expiryDate","type":"uint256"},{"internalType":"bool","name":"isActive","type":"bool"},{"internalType":"uint256","name":"usageCount","type":"uint256"},{"internalType":"uint256","name":"lastUsed","type":"uint256"}],"stateMutability":"view","type":"function"},{"inputs":[{"internalType":"string","name":"qrCodeId","type":"string"}],"name":"recordQRUsage","outputs":[],"stateMutability":"nonpayable","type":"function"},{"inputs":[],"name":"renounceOwnership","outputs":[],"stateMutability":"nonpayable","type":"function"},{"inputs":[{"internalType":"string","name":"qrCodeId","type":"string"}],"name":"revokeQRToken","outputs":[],"stateMutability":"nonpayable","type":"function"},{"inputs":[{"internalType":"address","name":"from","type":"address"},{"internalType":"address","name":"to","type":"address"},{"internalType":"uint256","name":"tokenId","type":"uint256"}],"name":"safeTransferFrom","outputs":[],"stateMutability":"nonpayable","type":"function"},{"inputs":[{"internalType":"address","name":"from","type":"address"},{"internalType":"address","name":"to","type":"address"},{"internalType":"uint256","name":"tokenId","type":"uint256"},{"internalType":"bytes","name":"data","type":"bytes"}],"name":"safeTransferFrom","outputs":[],"stateMutability":"nonpayable","type":"function"},{"inputs":[{"internalType":"address","name":"operator","type":"address"},{"internalType":"bool","name":"approved","type":"bool"}],"name":"setApprovalForAll","outputs":[],"stateMutability":"nonpayable","type":"function"},{"inputs":[{"internalType":"bytes4","name":"interfaceId","type":"bytes4"}],"name":"supportsInterface","outputs":[{"internalType":"bool","name":"","type":"bool"}],"stateMutability":"view","type":"function"},{"inputs":[],"name":"symbol","outputs":[{"internalType":"string","name":"","type":"string"}],"stateMutability":"view","type":"function"},{"inputs":[{"internalType":"uint256","name":"tokenId","type":"uint256"}],"name":"tokenURI","outputs":[{"internalType":"string","name":"","type":"string"}],"stateMutability":"view","type":"function"},{"inputs":[{"internalType":"address","name":"from","type":"address"},{"internalType":"address","name":"to","type":"address"},{"internalType":"uint256","name":"tokenId","type":"uint256"}],"name":"transferFrom","outputs":[],"stateMutability":"nonpayable","type":"function"},{"inputs":[{"internalType":"address","name":"newOwner","type":"address"}],"name":"transferOwnership","outputs":[],"stateMutability":"nonpayable","type":"function"},{"inputs":[{"internalType":"string","name":"qrCodeId","type":"string"},{"internalType":"string","name":"qrHash","type":"string"},{"internalType":"string","name":"employeeDid","type":"string"}],"name":"verifyQRToken","outputs":[{"internalType":"bool","name":"","type":"bool"},{"internalType":"uint256","name":"","type":"uint256"}],"stateMutability":"view","type":"function"}],"evm":{"bytecode":{"linkReferences":{},"object":"6080346200036b576001600160401b039060408181018381118382101762000355578152601782526020917f51522041757468656e7469636174696f6e20546f6b656e00000000000000000083820152815193828501858110828211176200035557835260048552631454905560e21b84860152815181811162000355576000948554916001948584811c941680156200034a575b8385101462000336578190601f94858111620002e3575b5083908583116001146200027f57899262000273575b5050600019600383901b1c191690851b1786555b86519283116200025f5783548481811c9116801562000254575b828210146200024057828111620001f8575b50809183116001146200019157508495829394959262000185575b5050600019600383901b1c191690821b1790555b60068054336001600160a01b03198216811790925591519290916001600160a01b0316907f8be0079c531659141344cd1fd0a4f28419497f9722a3daafe3b4186f6b6457e09080a36128959081620003718239f35b0151905038806200011c565b90601f198316968487528287209287905b898210620001e0575050838596979810620001c6575b505050811b01905562000130565b015160001960f88460031b161c19169055388080620001b8565b808785968294968601518155019501930190620001a2565b8487528187208380860160051c82019284871062000236575b0160051c019085905b8281106200022a57505062000101565b8881550185906200021a565b9250819262000211565b634e487b7160e01b87526022600452602487fd5b90607f1690620000ef565b634e487b7160e01b86526041600452602486fd5b015190503880620000c1565b898052848a208894509190601f1984168b5b87828210620002cc5750508411620002b2575b505050811b018655620000d5565b015160001960f88460031b161c19169055388080620002a4565b8385015186558b9790950194938401930162000291565b9091508880528389208580850160051c8201928686106200032c575b918991869594930160051c01915b8281106200031d575050620000ab565b8b81558594508991016200030d565b92508192620002ff565b634e487b7160e01b88526022600452602488fd5b93607f169362000094565b634e487b7160e01b600052604160045260246000fd5b600080fdfe608080604052600436101561001357600080fd5b60003560e01c90816301ffc9a714611a9e575080630316569d1461196b57806306fdde03146118c8578063081812fc146118aa5780630835ab3c14611737578063095ea7b3146115bd5780631561fd231461154457806323b872dd1461151b57806342842e0e146114f357806352c33a6c146113eb5780636352211e146113bb57806370a0823114611324578063715018a6146112c75780638da5cb5b1461129e57806395d89b41146111bf5780639bccba73146109fe5780639e5c5e61146109b55780639fdf94dc14610971578063a22cb46514610896578063b88d4fde14610835578063c87b56dd14610471578063e0f18211146103b5578063e985e9c51461035f578063f2fde38b14610296578063f404dd49146101bf5763fe4a30c21461013d57600080fd5b346101ba5760603660031901126101ba576001600160401b036004358181116101ba5761016e903690600401611bce565b906024358181116101ba57610187903690600401611bce565b916044359182116101ba576040926101a66101ac933690600401611bce565b916122f4565b825191151582526020820152f35b600080fd5b346101ba576020806003193601126101ba576004356001600160401b0381116101ba57816101f4610207923690600401611bce565b8160405193828580945193849201611bec565b8101600a81520301902060405190818382549182815201908192600052846000209060005b8682821061028257868661024282880383611b5b565b604051928392818401908285525180915260408401929160005b82811061026b57505050500390f35b83518552869550938101939281019260010161025c565b83548552909301926001928301920161022c565b346101ba5760203660031901126101ba576102af611c34565b6102b7611da3565b6001600160a01b0390811690811561030b57600654826bffffffffffffffffffffffff60a01b821617600655167f8be0079c531659141344cd1fd0a4f28419497f9722a3daafe3b4186f6b6457e0600080a3005b60405162461bcd60e51b815260206004820152602660248201527f4f776e61626c653a206e6577206f776e657220697320746865207a65726f206160448201526564647265737360d01b6064820152608490fd5b346101ba5760403660031901126101ba57610378611c34565b610380611c4a565b9060018060a01b03809116600052600560205260406000209116600052602052602060ff604060002054166040519015158152f35b346101ba5760203660031901126101ba57600435600052600860205261043560406000206103e281611cfd565b906103ef60018201611cfd565b6103fb60028301611cfd565b91600381015492600482015461045160ff6005850154169261044360076006870154960154966040519a8b9a610100808d528c0190611c0f565b908a820360208c0152611c0f565b9088820360408a0152611c0f565b9460608701526080860152151560a085015260c084015260e08301520390f35b346101ba576020806003193601126101ba576004356000818152600260205260409020546107a591906104b3906001600160a01b0316151561246b565b61246b565b80600052600883526107a061013060406000206040516104d281611b09565b6104db82611cfd565b81526104e960018301611cfd565b918782019283526104fc60028201611cfd565b6040830152600381015460608301526004810154608083015261054560ff6005830154169660a084019715158852600760068401549360c08601948552015460e085015261271c565b9251915195511561080f5761057760405161055f81611b40565b60048152637472756560e01b8a820152915b5161271c565b916040519687947f7b226e616d65223a20225152204175746820546f6b656e2023000000000000008b8701526105b6815180928d60398a019101611bec565b8501907f222c20226465736372697074696f6e223a202251522041757468656e7469636160398301527f74696f6e20546f6b656e20666f7220456d706c6f796565204449443a20000000605983015282518b840192610619826076830186611bec565b0171222c202261747472696275746573223a205b60701b60768201527f7b2274726169745f74797065223a2022515220436f6465204944222c20227661608882015266363ab2911d101160c91b60a882015261067f8c835193849160af85019101611bec565b016106d662089f4b60ea1b938460af8401527f7b2274726169745f74797065223a2022456d706c6f79656520444944222c202260b2840152683b30b63ab2911d101160b91b60d284015251809360db840190611bec565b018160db8201527f7b2274726169745f74797065223a2022416374697665222c202276616c75652260de820152621d101160e91b60fe82015282519061072582610101958d8785019101611bec565b01918201527f7b2274726169745f74797065223a2022557361676520436f756e74222c2022766101048201526730b63ab2911d101160c11b6101248201528151906107798261012c948b8685019101611bec565b019061227d60f01b90820152615d7d60f01b61012e82015203610110810184520182611b5b565b6125b8565b906107f7603d60405180947f646174613a6170706c69636174696f6e2f6a736f6e3b6261736536342c000000858301526107e781518092878686019101611bec565b810103601d810185520183611b5b565b61080b604051928284938452830190611c0f565b0390f35b61057760405161081e81611b40565b600581526466616c736560d81b8a82015291610571565b346101ba5760803660031901126101ba5761084e611c34565b610856611c4a565b606435916001600160401b0383116101ba57366023840112156101ba5761088a610894933690602481600401359101611b97565b9160443591611f0a565b005b346101ba5760403660031901126101ba576108af611c34565b60243590811515908183036101ba576001600160a01b03169133831461092c576108fe9033600052600560205260406000208460005260205260406000209060ff801983541691151516179055565b6040519081527f17307eab39ab6107e8899845ad3d59bd9653f200f220920489ca2b5937696c3160203392a3005b60405162461bcd60e51b815260206004820152601960248201527f4552433732313a20617070726f766520746f2063616c6c6572000000000000006044820152606490fd5b346101ba5760203660031901126101ba576004356001600160401b0381116101ba576109ab6109a66020923690600401611bce565b6124ae565b6040519015158152f35b346101ba5760203660031901126101ba576004356001600160401b0381116101ba576109eb60206101f481933690600401611bce565b8101600981520301902054604051908152f35b346101ba5760a03660031901126101ba57610a17611c34565b6024356001600160401b0381116101ba57610a36903690600401611bce565b9060449081356001600160401b0381116101ba57610a58903690600401611bce565b906064356001600160401b0381116101ba57610a78903690600401611bce565b610a80611da3565b84511561117b57825115611137578051156110f3576040516020818751610aaa8183858c01611bec565b81016009815203019020546110af576007805460010190819055936001600160a01b0383161561106b5750600084815260026020526040902054610afa906001600160a01b031615155b156122a8565b600084815260026020526040902054610b1d906001600160a01b03161515610af4565b6001600160a01b0391909116600081815260036020908152604080832080546001019055868352600290915280822080546001600160a01b0319168417905551929185917fddf252ad1be2c89b69c2b068fc378daa952ba7f163c4a11628f55a4df523b3ef8180a4610b8e82611b09565b84825282602083015260408201524260608201526084356080820152600160a0820152600060c0820152600060e082015282600052600860205260406000209080518051906001600160401b038211610df7578190610bed8554611cc3565b601f811161101b575b50602090601f8311600114610faf57600092610fa4575b50508160011b916000199060031b1c19161782555b60208101518051906001600160401b038211610df7578190610c476001860154611cc3565b601f8111610f51575b50602090601f8311600114610edf57600092610ed4575b50508160011b916000199060031b1c19161760018301555b60408101518051906001600160401b038211610df757610ca26002850154611cc3565b601f8111610e8d575b50602090601f8311600114610e185791806007949260e094600092610e0d575b50508160011b916000199060031b1c19161760028501555b6060810151600385015560808101516004850155610d1660a08201511515600586019060ff801983541691151516179055565b60c081015160068501550151910155816040516020818651610d3b8183858b01611bec565b81016009815203019020556040516020818351610d5b8183858801611bec565b8101600a8152030190209081549168010000000000000000831015610df757602094610dec7f6bf075f33c83a6205fa683f536689c28d96fd40a04750e5f23f570ef722e817893610db686610ddf9560018a99018155611c60565b81549060031b9088821b91600019901b1916179055604051938493604085526040850190611c0f565b9083820389850152611c0f565b0390a2604051908152f35b634e487b7160e01b600052604160045260246000fd5b015190508980610ccb565b906002850160005260206000209160005b601f1985168110610e755750926007949260019260e09583601f19811610610e5c575b505050811b016002850155610ce3565b015160001960f88460031b161c19169055898080610e4c565b91926020600181928685015181550194019201610e29565b600285016000526020600020601f840160051c810160208510610ecd575b601f830160051c82018110610ec1575050610cab565b60008155600101610eab565b5080610eab565b015190508780610c67565b9250600185016000526020600020906000935b601f1984168510610f36576001945083601f19811610610f1d575b505050811b016001830155610c7f565b015160001960f88460031b161c19169055878080610f0d565b81810151835560209485019460019093019290910190610ef2565b909150600185016000526020600020601f840160051c810160208510610f9d575b90849392915b601f830160051c82018110610f8e575050610c50565b60008155859450600101610f78565b5080610f72565b015190508780610c0d565b9250846000526020600020906000935b601f1984168510611000576001945083601f19811610610fe7575b505050811b018255610c22565b015160001960f88460031b161c19169055878080610fda565b81810151835560209485019460019093019290910190610fbf565b909150846000526020600020601f840160051c810160208510611064575b90849392915b601f830160051c82018110611055575050610bf6565b6000815585945060010161103f565b5080611039565b6064907f4552433732313a206d696e7420746f20746865207a65726f20616464726573736040519162461bcd60e51b83526020600484015260206024840152820152fd5b60405162461bcd60e51b815260206004820152601960248201527f515220636f646520494420616c7265616479206578697374730000000000000081860152606490fd5b60405162461bcd60e51b815260206004820152601760248201527f515220686173682063616e6e6f7420626520656d70747900000000000000000081860152606490fd5b60405162461bcd60e51b815260206004820152601c60248201527f456d706c6f796565204449442063616e6e6f7420626520656d7074790000000081860152606490fd5b60405162461bcd60e51b815260206004820152601a60248201527f515220636f64652049442063616e6e6f7420626520656d70747900000000000081860152606490fd5b346101ba5760003660031901126101ba57604051600060018054906111e382611cc3565b80855291818116908115611277575060011461121e575b61080b8461120a81860382611b5b565b604051918291602083526020830190611c0f565b600081815292507fb10e2d527612073b26eecdfd717e6a320cf44b4afac2b0732d9fcbe2b7fa0cf65b82841061125f57505050810160200161120a826111fa565b80546020858701810191909152909301928101611247565b60ff191660208087019190915292151560051b8501909201925061120a91508390506111fa565b346101ba5760003660031901126101ba576006546040516001600160a01b039091168152602090f35b346101ba5760003660031901126101ba576112e0611da3565b600680546001600160a01b031981169091556000906001600160a01b03167f8be0079c531659141344cd1fd0a4f28419497f9722a3daafe3b4186f6b6457e08280a3005b346101ba5760203660031901126101ba576001600160a01b03611345611c34565b1680156113645760005260036020526020604060002054604051908152f35b60405162461bcd60e51b815260206004820152602960248201527f4552433732313a2061646472657373207a65726f206973206e6f7420612076616044820152683634b21037bbb732b960b91b6064820152608490fd5b346101ba5760203660031901126101ba5760206113d9600435611e47565b6040516001600160a01b039091168152f35b346101ba576020806003193601126101ba576004356001600160401b0381116101ba5761141c903690600401611bce565b611424611da3565b604051828183516114388183858801611bec565b81016009815203019020549061144f82151561241f565b816000526008835260056040600020019283549360ff8516156114ae577f597910f3679cafb7f2a6424b5c49748a30249cf564e039f563a1611ca77a9598939460ff191690556114a9604051928284938452830190611c0f565b0390a2005b60405162461bcd60e51b815260048101839052601860248201527f515220746f6b656e20616c7265616479207265766f6b656400000000000000006044820152606490fd5b346101ba5761089461150436611c8e565b906040519261151284611b25565b60008452611f0a565b346101ba5761089461152c36611c8e565b9161153f61153a8433611fa5565b611ea8565b61206d565b346101ba5760403660031901126101ba576004356001600160401b0381116101ba57611574903690600401611bce565b6115906020602435928160405193828580945193849201611bec565b8101600a81520301902080548210156101ba576020916115af91611c60565b90546040519160031b1c8152f35b346101ba5760403660031901126101ba576115d6611c34565b602435906001600160a01b0380806115ed85611e47565b169216918083146116e8578033149081156116c3575b501561165857600083815260046020526040902080546001600160a01b0319168317905561163083611e47565b167f8c5be1e5ebec7d5bd14f71427d1e84f3dd0314c0f7b2291e5b200ac8c7c3b925600080a4005b60405162461bcd60e51b815260206004820152603d60248201527f4552433732313a20617070726f76652063616c6c6572206973206e6f7420746f60448201527f6b656e206f776e6572206f7220617070726f76656420666f7220616c6c0000006064820152608490fd5b9050600052600560205260406000203360005260205260ff6040600020541684611603565b60405162461bcd60e51b815260206004820152602160248201527f4552433732313a20617070726f76616c20746f2063757272656e74206f776e656044820152603960f91b6064820152608490fd5b346101ba576020806003193601126101ba576040516101209160043561175c83611b09565b600060e0606094858152858582015285604082015282868201528260808201528260a08201528260c082015201526117ac6104ae82600052600260205260018060a01b0360406000205416151590565b60005260088152604060002090604051926117c684611b09565b6117cf83611cfd565b84526117dd60018401611cfd565b928285019384526117f060028201611cfd565b93604086019485526003820154948387019586526118866004840154916080890192835260ff6005860154169360a08a019415158552600760068701549660c08c0197885201549660e08b01978852611876611860604051809e819e8d83525191610100809e8201520190611c0f565b9251601f198d8503810160408f01529390611c0f565b9251918b840301908b0152611c0f565b955160808801525160a087015251151560c08601525160e085015251908301520390f35b346101ba5760203660031901126101ba5760206113d9600435611e6a565b346101ba5760003660031901126101ba57604051600080546118e981611cc3565b8084529060019081811690811561127757506001146119125761080b8461120a81860382611b5b565b600080805292507f290decd9548b62a8d60345a988386fc84ba6bc95484008f6362f93160ef3e5635b82841061195357505050810160200161120a826111fa565b8054602085870181019190915290930192810161193b565b346101ba576020806003193601126101ba576004356001600160401b0381116101ba5761199c903690600401611bce565b6119a4611da3565b604051828183516119b88183858801611bec565b8101600981520301902054916119cf83151561241f565b826000526008815260406000209160ff60058401541615611a605760068301805492906000198414611a4a577f7e13e9ed44205303889de4df492db2de37794203f1a6dabf112a56a47abdc042946001611a419501809255600742910155604051938493604085526040850190611c0f565b918301520390a2005b634e487b7160e01b600052601160045260246000fd5b60405162461bcd60e51b8152600481018390526016602482015275515220746f6b656e206973206e6f742061637469766560501b6044820152606490fd5b346101ba5760203660031901126101ba576004359063ffffffff60e01b82168092036101ba576020916380ac58cd60e01b8114908115611af8575b8115611ae7575b5015158152f35b6301ffc9a760e01b14905083611ae0565b635b5e139f60e01b81149150611ad9565b61010081019081106001600160401b03821117610df757604052565b602081019081106001600160401b03821117610df757604052565b604081019081106001600160401b03821117610df757604052565b90601f801991011681019081106001600160401b03821117610df757604052565b6001600160401b038111610df757601f01601f191660200190565b929192611ba382611b7c565b91611bb16040519384611b5b565b8294818452818301116101ba578281602093846000960137010152565b9080601f830112156101ba57816020611be993359101611b97565b90565b60005b838110611bff5750506000910152565b8181015183820152602001611bef565b90602091611c2881518092818552858086019101611bec565b601f01601f1916010190565b600435906001600160a01b03821682036101ba57565b602435906001600160a01b03821682036101ba57565b8054821015611c785760005260206000200190600090565b634e487b7160e01b600052603260045260246000fd5b60609060031901126101ba576001600160a01b039060043582811681036101ba579160243590811681036101ba579060443590565b90600182811c92168015611cf3575b6020831014611cdd57565b634e487b7160e01b600052602260045260246000fd5b91607f1691611cd2565b9060405191826000825492611d1184611cc3565b908184526001948581169081600014611d805750600114611d3d575b5050611d3b92500383611b5b565b565b9093915060005260209081600020936000915b818310611d68575050611d3b93508201013880611d2d565b85548884018501529485019487945091830191611d50565b915050611d3b94506020925060ff191682840152151560051b8201013880611d2d565b6006546001600160a01b03163303611db757565b606460405162461bcd60e51b815260206004820152602060248201527f4f776e61626c653a2063616c6c6572206973206e6f7420746865206f776e65726044820152fd5b15611e0257565b60405162461bcd60e51b815260206004820152601860248201527f4552433732313a20696e76616c696420746f6b656e20494400000000000000006044820152606490fd5b6000908152600260205260409020546001600160a01b0316611be9811515611dfb565b600081815260026020526040902054611e8d906001600160a01b03161515611dfb565b6000908152600460205260409020546001600160a01b031690565b15611eaf57565b60405162461bcd60e51b815260206004820152602d60248201527f4552433732313a2063616c6c6572206973206e6f7420746f6b656e206f776e6560448201526c1c881bdc88185c1c1c9bdd9959609a1b6064820152608490fd5b90611f2e939291611f1e61153a8433611fa5565b611f2983838361206d565b612183565b15611f3557565b60405162461bcd60e51b815280611f4e60048201611f52565b0390fd5b60809060208152603260208201527f4552433732313a207472616e7366657220746f206e6f6e20455243373231526560408201527131b2b4bb32b91034b6b83632b6b2b73a32b960711b60608201520190565b906001600160a01b038080611fb984611e47565b16931691838314938415611fec575b508315611fd6575b50505090565b611fe291929350611e6a565b1614388080611fd0565b909350600052600560205260406000208260005260205260ff604060002054169238611fc8565b1561201a57565b60405162461bcd60e51b815260206004820152602560248201527f4552433732313a207472616e736665722066726f6d20696e636f72726563742060448201526437bbb732b960d91b6064820152608490fd5b906120959161207b84611e47565b6001600160a01b0393918416928492909183168414612013565b1691821561213257816120b2916120ab86611e47565b1614612013565b7fddf252ad1be2c89b69c2b068fc378daa952ba7f163c4a11628f55a4df523b3ef60008481526004602052604081206bffffffffffffffffffffffff60a01b9081815416905583825260036020526040822060001981540190558482526040822060018154019055858252600260205284604083209182541617905580a4565b60405162461bcd60e51b8152602060048201526024808201527f4552433732313a207472616e7366657220746f20746865207a65726f206164646044820152637265737360e01b6064820152608490fd5b9293600093909291803b1561229d579484916121dd9660405180948193630a85bd0160e11b9788845233600485015260018060a01b0380921660248501526044840152608060648401528260209b8c976084830190611c0f565b0393165af1849181612259575b50612248575050503d600014612240573d61220481611b7c565b906122126040519283611b5b565b81528091833d92013e5b8051918261223d5760405162461bcd60e51b815280611f4e60048201611f52565b01fd5b50606061221c565b6001600160e01b0319161492509050565b9091508581813d8311612296575b6122718183611b5b565b8101031261229257516001600160e01b0319811681036122925790386121ea565b8480fd5b503d612267565b505050915050600190565b156122af57565b60405162461bcd60e51b815260206004820152601c60248201527f4552433732313a20746f6b656e20616c7265616479206d696e746564000000006044820152606490fd5b9092919260405182818094516123108160209788809601611bec565b8101600981520301902054938415612412576000928584526008815260408420916040519361233e85611b09565b61234784611cfd565b855261235560018501611cfd565b9083860191825261236860028601611cfd565b8060408801526003860154606088015260048601549687608082015260e0600760ff60058a0154161598891560a0850152600681015460c0850152015491015284815191012090848151910120036124065751828151910120918151910120036123fd576123f65780151590816123ec575b506123e6575060019190565b91508190565b90504211386123da565b5091508190565b50508092509190565b50505050508092509190565b5050509050600090600090565b1561242657565b60405162461bcd60e51b815260206004820152601760248201527f515220746f6b656e20646f6573206e6f742065786973740000000000000000006044820152606490fd5b1561247257565b60405162461bcd60e51b8152602060048201526014602482015273151bdad95b88191bd95cc81b9bdd08195e1a5cdd60621b6044820152606490fd5b60206124c7918160405193828580945193849201611bec565b810160098152030190205480156125805760005260086020526040600020604051906124f282611b09565b6124fb81611cfd565b825261250960018201611cfd565b602083015261251a60028201611cfd565b60408301526003810154606083015260048101549182608082015260e0600760ff6005850154161593841560a0850152600681015460c08501520154910152612580578015159081612576575b5061257157600190565b600090565b9050421138612567565b50600090565b9061259082611b7c565b61259d6040519182611b5b565b82815280926125ae601f1991611b7c565b0190602036910137565b8051156127085760405190606082018281106001600160401b03821117610df757604052604082527f4142434445464748494a4b4c4d4e4f505152535455565758595a61626364656660208301527f6768696a6b6c6d6e6f707172737475767778797a303132333435363738392b2f60408301528051600291828201809211611a4a576003918290046001600160fe1b0381168103611a4a5761265e908495941b612586565b936020850193829183518401906020820192835194600085525b8381106126b75750505050525106806001146126a457600214612699575090565b603d90600019015390565b50603d9081600019820153600119015390565b87600491999293949901918251600190603f9082828260121c16880101518453828282600c1c16880101518385015382828260061c1688010151888501531685010151898201530197929190612678565b5060405161271581611b25565b6000815290565b806000917a184f03e93ff9f4daa797ed6e38ed64bf6a1f01000000000000000080821015612851575b506d04ee2d6d415b85acef810000000080831015612842575b50662386f26fc1000080831015612833575b506305f5e10080831015612824575b5061271080831015612815575b506064821015612805575b600a809210156127fb575b6001908160216127b3828701612586565b95860101905b6127c5575b5050505090565b600019019083906f181899199a1a9b1b9c1cb0b131b232b360811b8282061a8353049182156127f6579190826127b9565b6127be565b91600101916127a2565b9190606460029104910191612797565b6004919392049101913861278c565b6008919392049101913861277f565b60109193920491019138612770565b6020919392049101913861275e565b60409350810491503861274556fea2646970667358221220fd5042bd8a5579d8980411d9b9c5fca8a6eaf86b2b0a5ac2c45068a1b43e5c8064736f6c63430008130033","opcodes":"PUSH1 0x80 CALLVALUE PUSH3 0x36B JUMPI PUSH1 0x1 PUSH1 0x1 PUSH1 0x40 SHL SUB SWAP1 PUSH1 0x40 DUP2 DUP2 ADD DUP4 DUP2 GT DUP4 DUP3 LT OR PUSH3 0x355 JUMPI DUP2 MSTORE PUSH1 0x17 DUP3 MSTORE PUSH1 0x20 SWAP2 PUSH32 0x51522041757468656E7469636174696F6E20546F6B656E000000000000000000 DUP4 DUP3 ADD MSTORE DUP2 MLOAD SWAP4 DUP3 DUP6 ADD DUP6 DUP2 LT DUP3 DUP3 GT OR PUSH3 0x355 JUMPI DUP4 MSTORE PUSH1 0x4 DUP6 MSTORE PUSH4 0x14549055 PUSH1 0xE2 SHL DUP5 DUP7 ADD MSTORE DUP2 MLOAD DUP2 DUP2 GT PUSH3 0x355 JUMPI PUSH1 0x0 SWAP5 DUP6 SLOAD SWAP2 PUSH1 0x1 SWAP5 DUP6 DUP5 DUP2 SHR SWAP5 AND DUP1 ISZERO PUSH3 0x34A JUMPI JUMPDEST DUP4 DUP6 LT EQ PUSH3 0x336 JUMPI DUP2 SWAP1 PUSH1 0x1F SWAP5 DUP6 DUP2 GT PUSH3 0x2E3 JUMPI JUMPDEST POP DUP4 SWAP1 DUP6 DUP4 GT PUSH1 0x1 EQ PUSH3 0x27F JUMPI DUP10 SWAP3 PUSH3 0x273 JUMPI JUMPDEST POP POP PUSH1 0x0 NOT PUSH1 0x3 DUP4 SWAP1 SHL SHR NOT AND SWAP1 DUP6 SHL OR DUP7 SSTORE JUMPDEST DUP7 MLOAD SWAP3 DUP4 GT PUSH3 0x25F JUMPI DUP4 SLOAD DUP5 DUP2 DUP2 SHR SWAP2 AND DUP1 ISZERO PUSH3 0x254 JUMPI JUMPDEST DUP3 DUP3 LT EQ PUSH3 0x240 JUMPI DUP3 DUP2 GT PUSH3 0x1F8 JUMPI JUMPDEST POP DUP1 SWAP2 DUP4 GT PUSH1 0x1 EQ PUSH3 0x191 JUMPI POP DUP5 SWAP6 DUP3 SWAP4 SWAP5 SWAP6 SWAP3 PUSH3 0x185 JUMPI JUMPDEST POP POP PUSH1 0x0 NOT PUSH1 0x3 DUP4 SWAP1 SHL SHR NOT AND SWAP1 DUP3 SHL OR SWAP1 SSTORE JUMPDEST PUSH1 0x6 DUP1 SLOAD CALLER PUSH1 0x1 PUSH1 0x1 PUSH1 0xA0 SHL SUB NOT DUP3 AND DUP2 OR SWAP1 SWAP3 SSTORE SWAP2 MLOAD SWAP3 SWAP1 SWAP2 PUSH1 0x1 PUSH1 0x1 PUSH1 0xA0 SHL SUB AND SWAP1 PUSH32 0x8BE0079C531659141344CD1FD0A4F28419497F9722A3DAAFE3B4186F6B6457E0 SWAP1 DUP1 LOG3 PUSH2 0x2895 SWAP1 DUP2 PUSH3 0x371 DUP3 CODECOPY RETURN JUMPDEST ADD MLOAD SWAP1 POP CODESIZE DUP1 PUSH3 0x11C JUMP JUMPDEST SWAP1 PUSH1 0x1F NOT DUP4 AND SWAP7 DUP5 DUP8 MSTORE DUP3 DUP8 KECCAK256 SWAP3 DUP8 SWAP1 JUMPDEST DUP10 DUP3 LT PUSH3 0x1E0 JUMPI POP POP DUP4 DUP6 SWAP7 SWAP8 SWAP9 LT PUSH3 0x1C6 JUMPI JUMPDEST POP POP POP DUP2 SHL ADD SWAP1 SSTORE PUSH3 0x130 JUMP JUMPDEST ADD MLOAD PUSH1 0x0 NOT PUSH1 0xF8 DUP5 PUSH1 0x3 SHL AND SHR NOT AND SWAP1 SSTORE CODESIZE DUP1 DUP1 PUSH3 0x1B8 JUMP JUMPDEST DUP1 DUP8 DUP6 SWAP7 DUP3 SWAP5 SWAP7 DUP7 ADD MLOAD DUP2 SSTORE ADD SWAP6 ADD SWAP4 ADD SWAP1 PUSH3 0x1A2 JUMP JUMPDEST DUP5 DUP8 MSTORE DUP2 DUP8 KECCAK256 DUP4 DUP1 DUP7 ADD PUSH1 0x5 SHR DUP3 ADD SWAP3 DUP5 DUP8 LT PUSH3 0x236 JUMPI JUMPDEST ADD PUSH1 0x5 SHR ADD SWAP1 DUP6 SWAP1 JUMPDEST DUP3 DUP2 LT PUSH3 0x22A JUMPI POP POP PUSH3 0x101 JUMP JUMPDEST DUP9 DUP2 SSTORE ADD DUP6 SWAP1 PUSH3 0x21A JUMP JUMPDEST SWAP3 POP DUP2 SWAP3 PUSH3 0x211 JUMP JUMPDEST PUSH4 0x4E487B71 PUSH1 0xE0 SHL DUP8 MSTORE PUSH1 0x22 PUSH1 0x4 MSTORE PUSH1 0x24 DUP8 REVERT JUMPDEST SWAP1 PUSH1 0x7F AND SWAP1 PUSH3 0xEF JUMP JUMPDEST PUSH4 0x4E487B71 PUSH1 0xE0 SHL DUP7 MSTORE PUSH1 0x41 PUSH1 0x4 MSTORE PUSH1 0x24 DUP7 REVERT JUMPDEST ADD MLOAD SWAP1 POP CODESIZE DUP1 PUSH3 0xC1 JUMP JUMPDEST DUP10 DUP1 MSTORE DUP5 DUP11 KECCAK256 DUP9 SWAP5 POP SWAP2 SWAP1 PUSH1 0x1F NOT DUP5 AND DUP12 JUMPDEST DUP8 DUP3 DUP3 LT PUSH3 0x2CC JUMPI POP POP DUP5 GT PUSH3 0x2B2 JUMPI JUMPDEST POP POP POP DUP2 SHL ADD DUP7 SSTORE PUSH3 0xD5 JUMP JUMPDEST ADD MLOAD PUSH1 0x0 NOT PUSH1 0xF8 DUP5 PUSH1 0x3 SHL AND SHR NOT AND SWAP1 SSTORE CODESIZE DUP1 DUP1 PUSH3 0x2A4 JUMP JUMPDEST DUP4 DUP6 ADD MLOAD DUP7 SSTORE DUP12 SWAP8 SWAP1 SWAP6 ADD SWAP5 SWAP4 DUP5 ADD SWAP4 ADD PUSH3 0x291 JUMP JUMPDEST SWAP1 SWAP2 POP DUP9 DUP1 MSTORE DUP4 DUP10 KECCAK256 DUP6 DUP1 DUP6 ADD PUSH1 0x5 SHR DUP3 ADD SWAP3 DUP7 DUP7 LT PUSH3 0x32C JUMPI JUMPDEST SWAP2 DUP10 SWAP2 DUP7 SWAP6 SWAP5 SWAP4 ADD PUSH1 0x5 SHR ADD SWAP2 JUMPDEST DUP3 DUP2 LT PUSH3 0x31D JUMPI POP POP PUSH3 0xAB JUMP JUMPDEST DUP12 DUP2 SSTORE DUP6 SWAP5 POP DUP10 SWAP2 ADD PUSH3 0x30D JUMP JUMPDEST SWAP3 POP DUP2 SWAP3 PUSH3 0x2FF JUMP JUMPDEST PUSH4 0x4E487B71 PUSH1 0xE0 SHL DUP9 MSTORE PUSH1 0x22 PUSH1 0x4 MSTORE PUSH1 0x24 DUP9 REVERT JUMPDEST SWAP4 PUSH1 0x7F AND SWAP4 PUSH3 0x94 JUMP JUMPDEST PUSH4 0x4E487B71 PUSH1 0xE0 SHL PUSH1 0x0 MSTORE PUSH1 0x41 PUSH1 0x4 MSTORE PUSH1 0x24 PUSH1 0x0 REVERT JUMPDEST PUSH1 0x0 DUP1 REVERT INVALID PUSH1 0x80 DUP1 PUSH1 0x40 MSTORE PUSH1 0x4 CALLDATASIZE LT ISZERO PUSH2 0x13 JUMPI PUSH1 0x0 DUP1 REVERT JUMPDEST PUSH1 0x0 CALLDATALOAD PUSH1 0xE0 SHR SWAP1 DUP2 PUSH4 0x1FFC9A7 EQ PUSH2 0x1A9E JUMPI POP DUP1 PUSH4 0x316569D EQ PUSH2 0x196B JUMPI DUP1 PUSH4 0x6FDDE03 EQ PUSH2 0x18C8 JUMPI DUP1 PUSH4 0x81812FC EQ PUSH2 0x18AA JUMPI DUP1 PUSH4 0x835AB3C EQ PUSH2 0x1737 JUMPI DUP1 PUSH4 0x95EA7B3 EQ PUSH2 0x15BD JUMPI DUP1 PUSH4 0x1561FD23 EQ PUSH2 0x1544 JUMPI DUP1 PUSH4 0x23B872DD EQ PUSH2 0x151B JUMPI DUP1 PUSH4 0x42842E0E EQ PUSH2 0x14F3 JUMPI DUP1 PUSH4 0x52C33A6C EQ PUSH2 0x13EB JUMPI DUP1 PUSH4 0x6352211E EQ PUSH2 0x13BB JUMPI DUP1 PUSH4 0x70A08231 EQ PUSH2 0x1324 JUMPI DUP1 PUSH4 0x715018A6 EQ PUSH2 0x12C7 JUMPI DUP1 PUSH4 0x8DA5CB5B EQ PUSH2 0x129E JUMPI DUP1 PUSH4 0x95D89B41 EQ PUSH2 0x11BF JUMPI DUP1 PUSH4 0x9BCCBA73 EQ PUSH2 0x9FE JUMPI DUP1 PUSH4 0x9E5C5E61 EQ PUSH2 0x9B5 JUMPI DUP1 PUSH4 0x9FDF94DC EQ PUSH2 0x971 JUMPI DUP1 PUSH4 0xA22CB465 EQ PUSH2 0x896 JUMPI DUP1 PUSH4 0xB88D4FDE EQ PUSH2 0x835 JUMPI DUP1 PUSH4 0xC87B56DD EQ PUSH2 0x471 JUMPI DUP1 PUSH4 0xE0F18211 EQ PUSH2 0x3B5 JUMPI DUP1 PUSH4 0xE985E9C5 EQ PUSH2 0x35F JUMPI DUP1 PUSH4 0xF2FDE38B EQ PUSH2 0x296 JUMPI DUP1 PUSH4 0xF404DD49 EQ PUSH2 0x1BF JUMPI PUSH4 0xFE4A30C2 EQ PUSH2 0x13D JUMPI PUSH1 0x0 DUP1 REVERT JUMPDEST CALLVALUE PUSH2 0x1BA JUMPI PUSH1 0x60 CALLDATASIZE PUSH1 0x3 NOT ADD SLT PUSH2 0x1BA JUMPI PUSH1 0x1 PUSH1 0x1 PUSH1 0x40 SHL SUB PUSH1 0x4 CALLDATALOAD DUP2 DUP2 GT PUSH2 0x1BA JUMPI PUSH2 0x16E SWAP1 CALLDATASIZE SWAP1 PUSH1 0x4 ADD PUSH2 0x1BCE JUMP JUMPDEST SWAP1 PUSH1 0x24 CALLDATALOAD DUP2 DUP2 GT PUSH2 0x1BA JUMPI PUSH2 0x187 SWAP1 CALLDATASIZE SWAP1 PUSH1 0x4 ADD PUSH2 0x1BCE JUMP JUMPDEST SWAP2 PUSH1 0x44 CALLDATALOAD SWAP2 DUP3 GT PUSH2 0x1BA JUMPI PUSH1 0x40 SWAP3 PUSH2 0x1A6 PUSH2 0x1AC SWAP4 CALLDATASIZE SWAP1 PUSH1 0x4 ADD PUSH2 0x1BCE JUMP JUMPDEST SWAP2 PUSH2 0x22F4 JUMP JUMPDEST DUP3 MLOAD SWAP2 ISZERO ISZERO DUP3 MSTORE PUSH1 0x20 DUP3 ADD MSTORE RETURN JUMPDEST PUSH1 0x0 DUP1 REVERT JUMPDEST CALLVALUE PUSH2 0x1BA JUMPI PUSH1 0x20 DUP1 PUSH1 0x3 NOT CALLDATASIZE ADD SLT PUSH2 0x1BA JUMPI PUSH1 0x4 CALLDATALOAD PUSH1 0x1 PUSH1 0x1 PUSH1 0x40 SHL SUB DUP2 GT PUSH2 0x1BA JUMPI DUP2 PUSH2 0x1F4 PUSH2 0x207 SWAP3 CALLDATASIZE SWAP1 PUSH1 0x4 ADD PUSH2 0x1BCE JUMP JUMPDEST DUP2 PUSH1 0x40 MLOAD SWAP4 DUP3 DUP6 DUP1 SWAP5 MLOAD SWAP4 DUP5 SWAP3 ADD PUSH2 0x1BEC JUMP JUMPDEST DUP2 ADD PUSH1 0xA DUP2 MSTORE SUB ADD SWAP1 KECCAK256 PUSH1 0x40 MLOAD SWAP1 DUP2 DUP4 DUP3 SLOAD SWAP2 DUP3 DUP2 MSTORE ADD SWAP1 DUP2 SWAP3 PUSH1 0x0 MSTORE DUP5 PUSH1 0x0 KECCAK256 SWAP1 PUSH1 0x0 JUMPDEST DUP7 DUP3 DUP3 LT PUSH2 0x282 JUMPI DUP7 DUP7 PUSH2 0x242 DUP3 DUP9 SUB DUP4 PUSH2 0x1B5B JUMP JUMPDEST PUSH1 0x40 MLOAD SWAP3 DUP4 SWAP3 DUP2 DUP5 ADD SWAP1 DUP3 DUP6 MSTORE MLOAD DUP1 SWAP2 MSTORE PUSH1 0x40 DUP5 ADD SWAP3 SWAP2 PUSH1 0x0 JUMPDEST DUP3 DUP2 LT PUSH2 0x26B JUMPI POP POP POP POP SUB SWAP1 RETURN JUMPDEST DUP4 MLOAD DUP6 MSTORE DUP7 SWAP6 POP SWAP4 DUP2 ADD SWAP4 SWAP3 DUP2 ADD SWAP3 PUSH1 0x1 ADD PUSH2 0x25C JUMP JUMPDEST DUP4 SLOAD DUP6 MSTORE SWAP1 SWAP4 ADD SWAP3 PUSH1 0x1 SWAP3 DUP4 ADD SWAP3 ADD PUSH2 0x22C JUMP JUMPDEST CALLVALUE PUSH2 0x1BA JUMPI PUSH1 0x20 CALLDATASIZE PUSH1 0x3 NOT ADD SLT PUSH2 0x1BA JUMPI PUSH2 0x2AF PUSH2 0x1C34 JUMP JUMPDEST PUSH2 0x2B7 PUSH2 0x1DA3 JUMP JUMPDEST PUSH1 0x1 PUSH1 0x1 PUSH1 0xA0 SHL SUB SWAP1 DUP2 AND SWAP1 DUP2 ISZERO PUSH2 0x30B JUMPI PUSH1 0x6 SLOAD DUP3 PUSH12 0xFFFFFFFFFFFFFFFFFFFFFFFF PUSH1 0xA0 SHL DUP3 AND OR PUSH1 0x6 SSTORE AND PUSH32 0x8BE0079C531659141344CD1FD0A4F28419497F9722A3DAAFE3B4186F6B6457E0 PUSH1 0x0 DUP1 LOG3 STOP JUMPDEST PUSH1 0x40 MLOAD PUSH3 0x461BCD PUSH1 0xE5 SHL DUP2 MSTORE PUSH1 0x20 PUSH1 0x4 DUP3 ADD MSTORE PUSH1 0x26 PUSH1 0x24 DUP3 ADD MSTORE PUSH32 0x4F776E61626C653A206E6577206F776E657220697320746865207A65726F2061 PUSH1 0x44 DUP3 ADD MSTORE PUSH6 0x646472657373 PUSH1 0xD0 SHL PUSH1 0x64 DUP3 ADD MSTORE PUSH1 0x84 SWAP1 REVERT JUMPDEST CALLVALUE PUSH2 0x1BA JUMPI PUSH1 0x40 CALLDATASIZE PUSH1 0x3 NOT ADD SLT PUSH2 0x1BA JUMPI PUSH2 0x378 PUSH2 0x1C34 JUMP JUMPDEST PUSH2 0x380 PUSH2 0x1C4A JUMP JUMPDEST SWAP1 PUSH1 0x1 DUP1 PUSH1 0xA0 SHL SUB DUP1 SWAP2 AND PUSH1 0x0 MSTORE PUSH1 0x5 PUSH1 0x20 MSTORE PUSH1 0x40 PUSH1 0x0 KECCAK256 SWAP2 AND PUSH1 0x0 MSTORE PUSH1 0x20 MSTORE PUSH1 0x20 PUSH1 0xFF PUSH1 0x40 PUSH1 0x0 KECCAK256 SLOAD AND PUSH1 0x40 MLOAD SWAP1 ISZERO ISZERO DUP2 MSTORE RETURN JUMPDEST CALLVALUE PUSH2 0x1BA JUMPI PUSH1 0x20 CALLDATASIZE PUSH1 0x3 NOT ADD SLT PUSH2 0x1BA JUMPI PUSH1 0x4 CALLDATALOAD PUSH1 0x0 MSTORE PUSH1 0x8 PUSH1 0x20 MSTORE PUSH2 0x435 PUSH1 0x40 PUSH1 0x0 KECCAK256 PUSH2 0x3E2 DUP2 PUSH2 0x1CFD JUMP JUMPDEST SWAP1 PUSH2 0x3EF PUSH1 0x1 DUP3 ADD PUSH2 0x1CFD JUMP JUMPDEST PUSH2 0x3FB PUSH1 0x2 DUP4 ADD PUSH2 0x1CFD JUMP JUMPDEST SWAP2 PUSH1 0x3 DUP2 ADD SLOAD SWAP3 PUSH1 0x4 DUP3 ADD SLOAD PUSH2 0x451 PUSH1 0xFF PUSH1 0x5 DUP6 ADD SLOAD AND SWAP3 PUSH2 0x443 PUSH1 0x7 PUSH1 0x6 DUP8 ADD SLOAD SWAP7 ADD SLOAD SWAP7 PUSH1 0x40 MLOAD SWAP11 DUP12 SWAP11 PUSH2 0x100 DUP1 DUP14 MSTORE DUP13 ADD SWAP1 PUSH2 0x1C0F JUMP JUMPDEST SWAP1 DUP11 DUP3 SUB PUSH1 0x20 DUP13 ADD MSTORE PUSH2 0x1C0F JUMP JUMPDEST SWAP1 DUP9 DUP3 SUB PUSH1 0x40 DUP11 ADD MSTORE PUSH2 0x1C0F JUMP JUMPDEST SWAP5 PUSH1 0x60 DUP8 ADD MSTORE PUSH1 0x80 DUP7 ADD MSTORE ISZERO ISZERO PUSH1 0xA0 DUP6 ADD MSTORE PUSH1 0xC0 DUP5 ADD MSTORE PUSH1 0xE0 DUP4 ADD MSTORE SUB SWAP1 RETURN JUMPDEST CALLVALUE PUSH2 0x1BA JUMPI PUSH1 0x20 DUP1 PUSH1 0x3 NOT CALLDATASIZE ADD SLT PUSH2 0x1BA JUMPI PUSH1 0x4 CALLDATALOAD PUSH1 0x0 DUP2 DUP2 MSTORE PUSH1 0x2 PUSH1 0x20 MSTORE PUSH1 0x40 SWAP1 KECCAK256 SLOAD PUSH2 0x7A5 SWAP2 SWAP1 PUSH2 0x4B3 SWAP1 PUSH1 0x1 PUSH1 0x1 PUSH1 0xA0 SHL SUB AND ISZERO ISZERO PUSH2 0x246B JUMP JUMPDEST PUSH2 0x246B JUMP JUMPDEST DUP1 PUSH1 0x0 MSTORE PUSH1 0x8 DUP4 MSTORE PUSH2 0x7A0 PUSH2 0x130 PUSH1 0x40 PUSH1 0x0 KECCAK256 PUSH1 0x40 MLOAD PUSH2 0x4D2 DUP2 PUSH2 0x1B09 JUMP JUMPDEST PUSH2 0x4DB DUP3 PUSH2 0x1CFD JUMP JUMPDEST DUP2 MSTORE PUSH2 0x4E9 PUSH1 0x1 DUP4 ADD PUSH2 0x1CFD JUMP JUMPDEST SWAP2 DUP8 DUP3 ADD SWAP3 DUP4 MSTORE PUSH2 0x4FC PUSH1 0x2 DUP3 ADD PUSH2 0x1CFD JUMP JUMPDEST PUSH1 0x40 DUP4 ADD MSTORE PUSH1 0x3 DUP2 ADD SLOAD PUSH1 0x60 DUP4 ADD MSTORE PUSH1 0x4 DUP2 ADD SLOAD PUSH1 0x80 DUP4 ADD MSTORE PUSH2 0x545 PUSH1 0xFF PUSH1 0x5 DUP4 ADD SLOAD AND SWAP7 PUSH1 0xA0 DUP5 ADD SWAP8 ISZERO ISZERO DUP9 MSTORE PUSH1 0x7 PUSH1 0x6 DUP5 ADD SLOAD SWAP4 PUSH1 0xC0 DUP7 ADD SWAP5 DUP6 MSTORE ADD SLOAD PUSH1 0xE0 DUP6 ADD MSTORE PUSH2 0x271C JUMP JUMPDEST SWAP3 MLOAD SWAP2 MLOAD SWAP6 MLOAD ISZERO PUSH2 0x80F JUMPI PUSH2 0x577 PUSH1 0x40 MLOAD PUSH2 0x55F DUP2 PUSH2 0x1B40 JUMP JUMPDEST PUSH1 0x4 DUP2 MSTORE PUSH4 0x74727565 PUSH1 0xE0 SHL DUP11 DUP3 ADD MSTORE SWAP2 JUMPDEST MLOAD PUSH2 0x271C JUMP JUMPDEST SWAP2 PUSH1 0x40 MLOAD SWAP7 DUP8 SWAP5 PUSH32 0x7B226E616D65223A20225152204175746820546F6B656E202300000000000000 DUP12 DUP8 ADD MSTORE PUSH2 0x5B6 DUP2 MLOAD DUP1 SWAP3 DUP14 PUSH1 0x39 DUP11 ADD SWAP2 ADD PUSH2 0x1BEC JUMP JUMPDEST DUP6 ADD SWAP1 PUSH32 0x222C20226465736372697074696F6E223A202251522041757468656E74696361 PUSH1 0x39 DUP4 ADD MSTORE PUSH32 0x74696F6E20546F6B656E20666F7220456D706C6F796565204449443A20000000 PUSH1 0x59 DUP4 ADD MSTORE DUP3 MLOAD DUP12 DUP5 ADD SWAP3 PUSH2 0x619 DUP3 PUSH1 0x76 DUP4 ADD DUP7 PUSH2 0x1BEC JUMP JUMPDEST ADD PUSH18 0x222C202261747472696275746573223A205B PUSH1 0x70 SHL PUSH1 0x76 DUP3 ADD MSTORE PUSH32 0x7B2274726169745F74797065223A2022515220436F6465204944222C20227661 PUSH1 0x88 DUP3 ADD MSTORE PUSH7 0x363AB2911D1011 PUSH1 0xC9 SHL PUSH1 0xA8 DUP3 ADD MSTORE PUSH2 0x67F DUP13 DUP4 MLOAD SWAP4 DUP5 SWAP2 PUSH1 0xAF DUP6 ADD SWAP2 ADD PUSH2 0x1BEC JUMP JUMPDEST ADD PUSH2 0x6D6 PUSH3 0x89F4B PUSH1 0xEA SHL SWAP4 DUP5 PUSH1 0xAF DUP5 ADD MSTORE PUSH32 0x7B2274726169745F74797065223A2022456D706C6F79656520444944222C2022 PUSH1 0xB2 DUP5 ADD MSTORE PUSH9 0x3B30B63AB2911D1011 PUSH1 0xB9 SHL PUSH1 0xD2 DUP5 ADD MSTORE MLOAD DUP1 SWAP4 PUSH1 0xDB DUP5 ADD SWAP1 PUSH2 0x1BEC JUMP JUMPDEST ADD DUP2 PUSH1 0xDB DUP3 ADD MSTORE PUSH32 0x7B2274726169745F74797065223A2022416374697665222C202276616C756522 PUSH1 0xDE DUP3 ADD MSTORE PUSH3 0x1D1011 PUSH1 0xE9 SHL PUSH1 0xFE DUP3 ADD MSTORE DUP3 MLOAD SWAP1 PUSH2 0x725 DUP3 PUSH2 0x101 SWAP6 DUP14 DUP8 DUP6 ADD SWAP2 ADD PUSH2 0x1BEC JUMP JUMPDEST ADD SWAP2 DUP3 ADD MSTORE PUSH32 0x7B2274726169745F74797065223A2022557361676520436F756E74222C202276 PUSH2 0x104 DUP3 ADD MSTORE PUSH8 0x30B63AB2911D1011 PUSH1 0xC1 SHL PUSH2 0x124 DUP3 ADD MSTORE DUP2 MLOAD SWAP1 PUSH2 0x779 DUP3 PUSH2 0x12C SWAP5 DUP12 DUP7 DUP6 ADD SWAP2 ADD PUSH2 0x1BEC JUMP JUMPDEST ADD SWAP1 PUSH2 0x227D PUSH1 0xF0 SHL SWAP1 DUP3 ADD MSTORE PUSH2 0x5D7D PUSH1 0xF0 SHL PUSH2 0x12E DUP3 ADD MSTORE SUB PUSH2 0x110 DUP2 ADD DUP5 MSTORE ADD DUP3 PUSH2 0x1B5B JUMP JUMPDEST PUSH2 0x25B8 JUMP JUMPDEST SWAP1 PUSH2 0x7F7 PUSH1 0x3D PUSH1 0x40 MLOAD DUP1 SWAP5 PUSH32 0x646174613A6170706C69636174696F6E2F6A736F6E3B6261736536342C000000 DUP6 DUP4 ADD MSTORE PUSH2 0x7E7 DUP2 MLOAD DUP1 SWAP3 DUP8 DUP7 DUP7 ADD SWAP2 ADD PUSH2 0x1BEC JUMP JUMPDEST DUP2 ADD SUB PUSH1 0x1D DUP2 ADD DUP6 MSTORE ADD DUP4 PUSH2 0x1B5B JUMP JUMPDEST PUSH2 0x80B PUSH1 0x40 MLOAD SWAP3 DUP3 DUP5 SWAP4 DUP5 MSTORE DUP4 ADD SWAP1 PUSH2 0x1C0F JUMP JUMPDEST SUB SWAP1 RETURN JUMPDEST PUSH2 0x577 PUSH1 0x40 MLOAD PUSH2 0x81E DUP2 PUSH2 0x1B40 JUMP JUMPDEST PUSH1 0x5 DUP2 MSTORE PUSH5 0x66616C7365 PUSH1 0xD8 SHL DUP11 DUP3 ADD MSTORE SWAP2 PUSH2 0x571 JUMP JUMPDEST CALLVALUE PUSH2 0x1BA JUMPI PUSH1 0x80 CALLDATASIZE PUSH1 0x3 NOT ADD SLT PUSH2 0x1BA JUMPI PUSH2 0x84E PUSH2 0x1C34 JUMP JUMPDEST PUSH2 0x856 PUSH2 0x1C4A JUMP JUMPDEST PUSH1 0x64 CALLDATALOAD SWAP2 PUSH1 0x1 PUSH1 0x1 PUSH1 0x40 SHL SUB DUP4 GT PUSH2 0x1BA JUMPI CALLDATASIZE PUSH1 0x23 DUP5 ADD SLT ISZERO PUSH2 0x1BA JUMPI PUSH2 0x88A PUSH2 0x894 SWAP4 CALLDATASIZE SWAP1 PUSH1 0x24 DUP2 PUSH1 0x4 ADD CALLDATALOAD SWAP2 ADD PUSH2 0x1B97 JUMP JUMPDEST SWAP2 PUSH1 0x44 CALLDATALOAD SWAP2 PUSH2 0x1F0A JUMP JUMPDEST STOP JUMPDEST CALLVALUE PUSH2 0x1BA JUMPI PUSH1 0x40 CALLDATASIZE PUSH1 0x3 NOT ADD SLT PUSH2 0x1BA JUMPI PUSH2 0x8AF PUSH2 0x1C34 JUMP JUMPDEST PUSH1 0x24 CALLDATALOAD SWAP1 DUP2 ISZERO ISZERO SWAP1 DUP2 DUP4 SUB PUSH2 0x1BA JUMPI PUSH1 0x1 PUSH1 0x1 PUSH1 0xA0 SHL SUB AND SWAP2 CALLER DUP4 EQ PUSH2 0x92C JUMPI PUSH2 0x8FE SWAP1 CALLER PUSH1 0x0 MSTORE PUSH1 0x5 PUSH1 0x20 MSTORE PUSH1 0x40 PUSH1 0x0 KECCAK256 DUP5 PUSH1 0x0 MSTORE PUSH1 0x20 MSTORE PUSH1 0x40 PUSH1 0x0 KECCAK256 SWAP1 PUSH1 0xFF DUP1 NOT DUP4 SLOAD AND SWAP2 ISZERO ISZERO AND OR SWAP1 SSTORE JUMP JUMPDEST PUSH1 0x40 MLOAD SWAP1 DUP2 MSTORE PUSH32 0x17307EAB39AB6107E8899845AD3D59BD9653F200F220920489CA2B5937696C31 PUSH1 0x20 CALLER SWAP3 LOG3 STOP JUMPDEST PUSH1 0x40 MLOAD PUSH3 0x461BCD PUSH1 0xE5 SHL DUP2 MSTORE PUSH1 0x20 PUSH1 0x4 DUP3 ADD MSTORE PUSH1 0x19 PUSH1 0x24 DUP3 ADD MSTORE PUSH32 0x4552433732313A20617070726F766520746F2063616C6C657200000000000000 PUSH1 0x44 DUP3 ADD MSTORE PUSH1 0x64 SWAP1 REVERT JUMPDEST CALLVALUE PUSH2 0x1BA JUMPI PUSH1 0x20 CALLDATASIZE PUSH1 0x3 NOT ADD SLT PUSH2 0x1BA JUMPI PUSH1 0x4 CALLDATALOAD PUSH1 0x1 PUSH1 0x1 PUSH1 0x40 SHL SUB DUP2 GT PUSH2 0x1BA JUMPI PUSH2 0x9AB PUSH2 0x9A6 PUSH1 0x20 SWAP3 CALLDATASIZE SWAP1 PUSH1 0x4 ADD PUSH2 0x1BCE JUMP JUMPDEST PUSH2 0x24AE JUMP JUMPDEST PUSH1 0x40 MLOAD SWAP1 ISZERO ISZERO DUP2 MSTORE RETURN JUMPDEST CALLVALUE PUSH2 0x1BA JUMPI PUSH1 0x20 CALLDATASIZE PUSH1 0x3 NOT ADD SLT PUSH2 0x1BA JUMPI PUSH1 0x4 CALLDATALOAD PUSH1 0x1 PUSH1 0x1 PUSH1 0x40 SHL SUB DUP2 GT PUSH2 0x1BA JUMPI PUSH2 0x9EB PUSH1 0x20 PUSH2 0x1F4 DUP2 SWAP4 CALLDATASIZE SWAP1 PUSH1 0x4 ADD PUSH2 0x1BCE JUMP JUMPDEST DUP2 ADD PUSH1 0x9 DUP2 MSTORE SUB ADD SWAP1 KECCAK256 SLOAD PUSH1 0x40 MLOAD SWAP1 DUP2 MSTORE RETURN JUMPDEST CALLVALUE PUSH2 0x1BA JUMPI PUSH1 0xA0 CALLDATASIZE PUSH1 0x3 NOT ADD SLT PUSH2 0x1BA JUMPI PUSH2 0xA17 PUSH2 0x1C34 JUMP JUMPDEST PUSH1 0x24 CALLDATALOAD PUSH1 0x1 PUSH1 0x1 PUSH1 0x40 SHL SUB DUP2 GT PUSH2 0x1BA JUMPI PUSH2 0xA36 SWAP1 CALLDATASIZE SWAP1 PUSH1 0x4 ADD PUSH2 0x1BCE JUMP JUMPDEST SWAP1 PUSH1 0x44 SWAP1 DUP2 CALLDATALOAD PUSH1 0x1 PUSH1 0x1 PUSH1 0x40 SHL SUB DUP2 GT PUSH2 0x1BA JUMPI PUSH2 0xA58 SWAP1 CALLDATASIZE SWAP1 PUSH1 0x4 ADD PUSH2 0x1BCE JUMP JUMPDEST SWAP1 PUSH1 0x64 CALLDATALOAD PUSH1 0x1 PUSH1 0x1 PUSH1 0x40 SHL SUB DUP2 GT PUSH2 0x1BA JUMPI PUSH2 0xA78 SWAP1 CALLDATASIZE SWAP1 PUSH1 0x4 ADD PUSH2 0x1BCE JUMP JUMPDEST PUSH2 0xA80 PUSH2 0x1DA3 JUMP JUMPDEST DUP5 MLOAD ISZERO PUSH2 0x117B JUMPI DUP3 MLOAD ISZERO PUSH2 0x1137 JUMPI DUP1 MLOAD ISZERO PUSH2 0x10F3 JUMPI PUSH1 0x40 MLOAD PUSH1 0x20 DUP2 DUP8 MLOAD PUSH2 0xAAA DUP2 DUP4 DUP6 DUP13 ADD PUSH2 0x1BEC JUMP JUMPDEST DUP2 ADD PUSH1 0x9 DUP2 MSTORE SUB ADD SWAP1 KECCAK256 SLOAD PUSH2 0x10AF JUMPI PUSH1 0x7 DUP1 SLOAD PUSH1 0x1 ADD SWAP1 DUP2 SWAP1 SSTORE SWAP4 PUSH1 0x1 PUSH1 0x1 PUSH1 0xA0 SHL SUB DUP4 AND ISZERO PUSH2 0x106B JUMPI POP PUSH1 0x0 DUP5 DUP2 MSTORE PUSH1 0x2 PUSH1 0x20 MSTORE PUSH1 0x40 SWAP1 KECCAK256 SLOAD PUSH2 0xAFA SWAP1 PUSH1 0x1 PUSH1 0x1 PUSH1 0xA0 SHL SUB AND ISZERO ISZERO JUMPDEST ISZERO PUSH2 0x22A8 JUMP JUMPDEST PUSH1 0x0 DUP5 DUP2 MSTORE PUSH1 0x2 PUSH1 0x20 MSTORE PUSH1 0x40 SWAP1 KECCAK256 SLOAD PUSH2 0xB1D SWAP1 PUSH1 0x1 PUSH1 0x1 PUSH1 0xA0 SHL SUB AND ISZERO ISZERO PUSH2 0xAF4 JUMP JUMPDEST PUSH1 0x1 PUSH1 0x1 PUSH1 0xA0 SHL SUB SWAP2 SWAP1 SWAP2 AND PUSH1 0x0 DUP2 DUP2 MSTORE PUSH1 0x3 PUSH1 0x20 SWAP1 DUP2 MSTORE PUSH1 0x40 DUP1 DUP4 KECCAK256 DUP1 SLOAD PUSH1 0x1 ADD SWAP1 SSTORE DUP7 DUP4 MSTORE PUSH1 0x2 SWAP1 SWAP2 MSTORE DUP1 DUP3 KECCAK256 DUP1 SLOAD PUSH1 0x1 PUSH1 0x1 PUSH1 0xA0 SHL SUB NOT AND DUP5 OR SWAP1 SSTORE MLOAD SWAP3 SWAP2 DUP6 SWAP2 PUSH32 0xDDF252AD1BE2C89B69C2B068FC378DAA952BA7F163C4A11628F55A4DF523B3EF DUP2 DUP1 LOG4 PUSH2 0xB8E DUP3 PUSH2 0x1B09 JUMP JUMPDEST DUP5 DUP3 MSTORE DUP3 PUSH1 0x20 DUP4 ADD MSTORE PUSH1 0x40 DUP3 ADD MSTORE TIMESTAMP PUSH1 0x60 DUP3 ADD MSTORE PUSH1 0x84 CALLDATALOAD PUSH1 0x80 DUP3 ADD MSTORE PUSH1 0x1 PUSH1 0xA0 DUP3 ADD MSTORE PUSH1 0x0 PUSH1 0xC0 DUP3 ADD MSTORE PUSH1 0x0 PUSH1 0xE0 DUP3 ADD MSTORE DUP3 PUSH1 0x0 MSTORE PUSH1 0x8 PUSH1 0x20 MSTORE PUSH1 0x40 PUSH1 0x0 KECCAK256 SWAP1 DUP1 MLOAD DUP1 MLOAD SWAP1 PUSH1 0x1 PUSH1 0x1 PUSH1 0x40 SHL SUB DUP3 GT PUSH2 0xDF7 JUMPI DUP2 SWAP1 PUSH2 0xBED DUP6 SLOAD PUSH2 0x1CC3 JUMP JUMPDEST PUSH1 0x1F DUP2 GT PUSH2 0x101B JUMPI JUMPDEST POP PUSH1 0x20 SWAP1 PUSH1 0x1F DUP4 GT PUSH1 0x1 EQ PUSH2 0xFAF JUMPI PUSH1 0x0 SWAP3 PUSH2 0xFA4 JUMPI JUMPDEST POP POP DUP2 PUSH1 0x1 SHL SWAP2 PUSH1 0x0 NOT SWAP1 PUSH1 0x3 SHL SHR NOT AND OR DUP3 SSTORE JUMPDEST PUSH1 0x20 DUP2 ADD MLOAD DUP1 MLOAD SWAP1 PUSH1 0x1 PUSH1 0x1 PUSH1 0x40 SHL SUB DUP3 GT PUSH2 0xDF7 JUMPI DUP2 SWAP1 PUSH2 0xC47 PUSH1 0x1 DUP7 ADD SLOAD PUSH2 0x1CC3 JUMP JUMPDEST PUSH1 0x1F DUP2 GT PUSH2 0xF51 JUMPI JUMPDEST POP PUSH1 0x20 SWAP1 PUSH1 0x1F DUP4 GT PUSH1 0x1 EQ PUSH2 0xEDF JUMPI PUSH1 0x0 SWAP3 PUSH2 0xED4 JUMPI JUMPDEST POP POP DUP2 PUSH1 0x1 SHL SWAP2 PUSH1 0x0 NOT SWAP1 PUSH1 0x3 SHL SHR NOT AND OR PUSH1 0x1 DUP4 ADD SSTORE JUMPDEST PUSH1 0x40 DUP2 ADD MLOAD DUP1 MLOAD SWAP1 PUSH1 0x1 PUSH1 0x1 PUSH1 0x40 SHL SUB DUP3 GT PUSH2 0xDF7 JUMPI PUSH2 0xCA2 PUSH1 0x2 DUP6 ADD SLOAD PUSH2 0x1CC3 JUMP JUMPDEST PUSH1 0x1F DUP2 GT PUSH2 0xE8D JUMPI JUMPDEST POP PUSH1 0x20 SWAP1 PUSH1 0x1F DUP4 GT PUSH1 0x1 EQ PUSH2 0xE18 JUMPI SWAP2 DUP1 PUSH1 0x7 SWAP5 SWAP3 PUSH1 0xE0 SWAP5 PUSH1 0x0 SWAP3 PUSH2 0xE0D JUMPI JUMPDEST POP POP DUP2 PUSH1 0x1 SHL SWAP2 PUSH1 0x0 NOT SWAP1 PUSH1 0x3 SHL SHR NOT AND OR PUSH1 0x2 DUP6 ADD SSTORE JUMPDEST PUSH1 0x60 DUP2 ADD MLOAD PUSH1 0x3 DUP6 ADD SSTORE PUSH1 0x80 DUP2 ADD MLOAD PUSH1 0x4 DUP6 ADD SSTORE PUSH2 0xD16 PUSH1 0xA0 DUP3 ADD MLOAD ISZERO ISZERO PUSH1 0x5 DUP7 ADD SWAP1 PUSH1 0xFF DUP1 NOT DUP4 SLOAD AND SWAP2 ISZERO ISZERO AND OR SWAP1 SSTORE JUMP JUMPDEST PUSH1 0xC0 DUP2 ADD MLOAD PUSH1 0x6 DUP6 ADD SSTORE ADD MLOAD SWAP2 ADD SSTORE DUP2 PUSH1 0x40 MLOAD PUSH1 0x20 DUP2 DUP7 MLOAD PUSH2 0xD3B DUP2 DUP4 DUP6 DUP12 ADD PUSH2 0x1BEC JUMP JUMPDEST DUP2 ADD PUSH1 0x9 DUP2 MSTORE SUB ADD SWAP1 KECCAK256 SSTORE PUSH1 0x40 MLOAD PUSH1 0x20 DUP2 DUP4 MLOAD PUSH2 0xD5B DUP2 DUP4 DUP6 DUP9 ADD PUSH2 0x1BEC JUMP JUMPDEST DUP2 ADD PUSH1 0xA DUP2 MSTORE SUB ADD SWAP1 KECCAK256 SWAP1 DUP2 SLOAD SWAP2 PUSH9 0x10000000000000000 DUP4 LT ISZERO PUSH2 0xDF7 JUMPI PUSH1 0x20 SWAP5 PUSH2 0xDEC PUSH32 0x6BF075F33C83A6205FA683F536689C28D96FD40A04750E5F23F570EF722E8178 SWAP4 PUSH2 0xDB6 DUP7 PUSH2 0xDDF SWAP6 PUSH1 0x1 DUP11 SWAP10 ADD DUP2 SSTORE PUSH2 0x1C60 JUMP JUMPDEST DUP2 SLOAD SWAP1 PUSH1 0x3 SHL SWAP1 DUP9 DUP3 SHL SWAP2 PUSH1 0x0 NOT SWAP1 SHL NOT AND OR SWAP1 SSTORE PUSH1 0x40 MLOAD SWAP4 DUP5 SWAP4 PUSH1 0x40 DUP6 MSTORE PUSH1 0x40 DUP6 ADD SWAP1 PUSH2 0x1C0F JUMP JUMPDEST SWAP1 DUP4 DUP3 SUB DUP10 DUP6 ADD MSTORE PUSH2 0x1C0F JUMP JUMPDEST SUB SWAP1 LOG2 PUSH1 0x40 MLOAD SWAP1 DUP2 MSTORE RETURN JUMPDEST PUSH4 0x4E487B71 PUSH1 0xE0 SHL PUSH1 0x0 MSTORE PUSH1 0x41 PUSH1 0x4 MSTORE PUSH1 0x24 PUSH1 0x0 REVERT JUMPDEST ADD MLOAD SWAP1 POP DUP10 DUP1 PUSH2 0xCCB JUMP JUMPDEST SWAP1 PUSH1 0x2 DUP6 ADD PUSH1 0x0 MSTORE PUSH1 0x20 PUSH1 0x0 KECCAK256 SWAP2 PUSH1 0x0 JUMPDEST PUSH1 0x1F NOT DUP6 AND DUP2 LT PUSH2 0xE75 JUMPI POP SWAP3 PUSH1 0x7 SWAP5 SWAP3 PUSH1 0x1 SWAP3 PUSH1 0xE0 SWAP6 DUP4 PUSH1 0x1F NOT DUP2 AND LT PUSH2 0xE5C JUMPI JUMPDEST POP POP POP DUP2 SHL ADD PUSH1 0x2 DUP6 ADD SSTORE PUSH2 0xCE3 JUMP JUMPDEST ADD MLOAD PUSH1 0x0 NOT PUSH1 0xF8 DUP5 PUSH1 0x3 SHL AND SHR NOT AND SWAP1 SSTORE DUP10 DUP1 DUP1 PUSH2 0xE4C JUMP JUMPDEST SWAP2 SWAP3 PUSH1 0x20 PUSH1 0x1 DUP2 SWAP3 DUP7 DUP6 ADD MLOAD DUP2 SSTORE ADD SWAP5 ADD SWAP3 ADD PUSH2 0xE29 JUMP JUMPDEST PUSH1 0x2 DUP6 ADD PUSH1 0x0 MSTORE PUSH1 0x20 PUSH1 0x0 KECCAK256 PUSH1 0x1F DUP5 ADD PUSH1 0x5 SHR DUP2 ADD PUSH1 0x20 DUP6 LT PUSH2 0xECD JUMPI JUMPDEST PUSH1 0x1F DUP4 ADD PUSH1 0x5 SHR DUP3 ADD DUP2 LT PUSH2 0xEC1 JUMPI POP POP PUSH2 0xCAB JUMP JUMPDEST PUSH1 0x0 DUP2 SSTORE PUSH1 0x1 ADD PUSH2 0xEAB JUMP JUMPDEST POP DUP1 PUSH2 0xEAB JUMP JUMPDEST ADD MLOAD SWAP1 POP DUP8 DUP1 PUSH2 0xC67 JUMP JUMPDEST SWAP3 POP PUSH1 0x1 DUP6 ADD PUSH1 0x0 MSTORE PUSH1 0x20 PUSH1 0x0 KECCAK256 SWAP1 PUSH1 0x0 SWAP4 JUMPDEST PUSH1 0x1F NOT DUP5 AND DUP6 LT PUSH2 0xF36 JUMPI PUSH1 0x1 SWAP5 POP DUP4 PUSH1 0x1F NOT DUP2 AND LT PUSH2 0xF1D JUMPI JUMPDEST POP POP POP DUP2 SHL ADD PUSH1 0x1 DUP4 ADD SSTORE PUSH2 0xC7F JUMP JUMPDEST ADD MLOAD PUSH1 0x0 NOT PUSH1 0xF8 DUP5 PUSH1 0x3 SHL AND SHR NOT AND SWAP1 SSTORE DUP8 DUP1 DUP1 PUSH2 0xF0D JUMP JUMPDEST DUP2 DUP2 ADD MLOAD DUP4 SSTORE PUSH1 0x20 SWAP5 DUP6 ADD SWAP5 PUSH1 0x1 SWAP1 SWAP4 ADD SWAP3 SWAP1 SWAP2 ADD SWAP1 PUSH2 0xEF2 JUMP JUMPDEST SWAP1 SWAP2 POP PUSH1 0x1 DUP6 ADD PUSH1 0x0 MSTORE PUSH1 0x20 PUSH1 0x0 KECCAK256 PUSH1 0x1F DUP5 ADD PUSH1 0x5 SHR DUP2 ADD PUSH1 0x20 DUP6 LT PUSH2 0xF9D JUMPI JUMPDEST SWAP1 DUP5 SWAP4 SWAP3 SWAP2 JUMPDEST PUSH1 0x1F DUP4 ADD PUSH1 0x5 SHR DUP3 ADD DUP2 LT PUSH2 0xF8E JUMPI POP POP PUSH2 0xC50 JUMP JUMPDEST PUSH1 0x0 DUP2 SSTORE DUP6 SWAP5 POP PUSH1 0x1 ADD PUSH2 0xF78 JUMP JUMPDEST POP DUP1 PUSH2 0xF72 JUMP JUMPDEST ADD MLOAD SWAP1 POP DUP8 DUP1 PUSH2 0xC0D JUMP JUMPDEST SWAP3 POP DUP5 PUSH1 0x0 MSTORE PUSH1 0x20 PUSH1 0x0 KECCAK256 SWAP1 PUSH1 0x0 SWAP4 JUMPDEST PUSH1 0x1F NOT DUP5 AND DUP6 LT PUSH2 0x1000 JUMPI PUSH1 0x1 SWAP5 POP DUP4 PUSH1 0x1F NOT DUP2 AND LT PUSH2 0xFE7 JUMPI JUMPDEST POP POP POP DUP2 SHL ADD DUP3 SSTORE PUSH2 0xC22 JUMP JUMPDEST ADD MLOAD PUSH1 0x0 NOT PUSH1 0xF8 DUP5 PUSH1 0x3 SHL AND SHR NOT AND SWAP1 SSTORE DUP8 DUP1 DUP1 PUSH2 0xFDA JUMP JUMPDEST DUP2 DUP2 ADD MLOAD DUP4 SSTORE PUSH1 0x20 SWAP5 DUP6 ADD SWAP5 PUSH1 0x1 SWAP1 SWAP4 ADD SWAP3 SWAP1 SWAP2 ADD SWAP1 PUSH2 0xFBF JUMP JUMPDEST SWAP1 SWAP2 POP DUP5 PUSH1 0x0 MSTORE PUSH1 0x20 PUSH1 0x0 KECCAK256 PUSH1 0x1F DUP5 ADD PUSH1 0x5 SHR DUP2 ADD PUSH1 0x20 DUP6 LT PUSH2 0x1064 JUMPI JUMPDEST SWAP1 DUP5 SWAP4 SWAP3 SWAP2 JUMPDEST PUSH1 0x1F DUP4 ADD PUSH1 0x5 SHR DUP3 ADD DUP2 LT PUSH2 0x1055 JUMPI POP POP PUSH2 0xBF6 JUMP JUMPDEST PUSH1 0x0 DUP2 SSTORE DUP6 SWAP5 POP PUSH1 0x1 ADD PUSH2 0x103F JUMP JUMPDEST POP DUP1 PUSH2 0x1039 JUMP JUMPDEST PUSH1 0x64 SWAP1 PUSH32 0x4552433732313A206D696E7420746F20746865207A65726F2061646472657373 PUSH1 0x40 MLOAD SWAP2 PUSH3 0x461BCD PUSH1 0xE5 SHL DUP4 MSTORE PUSH1 0x20 PUSH1 0x4 DUP5 ADD MSTORE PUSH1 0x20 PUSH1 0x24 DUP5 ADD MSTORE DUP3 ADD MSTORE REVERT JUMPDEST PUSH1 0x40 MLOAD PUSH3 0x461BCD PUSH1 0xE5 SHL DUP2 MSTORE PUSH1 0x20 PUSH1 0x4 DUP3 ADD MSTORE PUSH1 0x19 PUSH1 0x24 DUP3 ADD MSTORE PUSH32 0x515220636F646520494420616C72656164792065786973747300000000000000 DUP2 DUP7 ADD MSTORE PUSH1 0x64 SWAP1 REVERT JUMPDEST PUSH1 0x40 MLOAD PUSH3 0x461BCD PUSH1 0xE5 SHL DUP2 MSTORE PUSH1 0x20 PUSH1 0x4 DUP3 ADD MSTORE PUSH1 0x17 PUSH1 0x24 DUP3 ADD MSTORE PUSH32 0x515220686173682063616E6E6F7420626520656D707479000000000000000000 DUP2 DUP7 ADD MSTORE PUSH1 0x64 SWAP1 REVERT JUMPDEST PUSH1 0x40 MLOAD PUSH3 0x461BCD PUSH1 0xE5 SHL DUP2 MSTORE PUSH1 0x20 PUSH1 0x4 DUP3 ADD MSTORE PUSH1 0x1C PUSH1 0x24 DUP3 ADD MSTORE PUSH32 0x456D706C6F796565204449442063616E6E6F7420626520656D70747900000000 DUP2 DUP7 ADD MSTORE PUSH1 0x64 SWAP1 REVERT JUMPDEST PUSH1 0x40 MLOAD PUSH3 0x461BCD PUSH1 0xE5 SHL DUP2 MSTORE PUSH1 0x20 PUSH1 0x4 DUP3 ADD MSTORE PUSH1 0x1A PUSH1 0x24 DUP3 ADD MSTORE PUSH32 0x515220636F64652049442063616E6E6F7420626520656D707479000000000000 DUP2 DUP7 ADD MSTORE PUSH1 0x64 SWAP1 REVERT JUMPDEST CALLVALUE PUSH2 0x1BA JUMPI PUSH1 0x0 CALLDATASIZE PUSH1 0x3 NOT ADD SLT PUSH2 0x1BA JUMPI PUSH1 0x40 MLOAD PUSH1 0x0 PUSH1 0x1 DUP1 SLOAD SWAP1 PUSH2 0x11E3 DUP3 PUSH2 0x1CC3 JUMP JUMPDEST DUP1 DUP6 MSTORE SWAP2 DUP2 DUP2 AND SWAP1 DUP2 ISZERO PUSH2 0x1277 JUMPI POP PUSH1 0x1 EQ PUSH2 0x121E JUMPI JUMPDEST PUSH2 0x80B DUP5 PUSH2 0x120A DUP2 DUP7 SUB DUP3 PUSH2 0x1B5B JUMP JUMPDEST PUSH1 0x40 MLOAD SWAP2 DUP3 SWAP2 PUSH1 0x20 DUP4 MSTORE PUSH1 0x20 DUP4 ADD SWAP1 PUSH2 0x1C0F JUMP JUMPDEST PUSH1 0x0 DUP2 DUP2 MSTORE SWAP3 POP PUSH32 0xB10E2D527612073B26EECDFD717E6A320CF44B4AFAC2B0732D9FCBE2B7FA0CF6 JUMPDEST DUP3 DUP5 LT PUSH2 0x125F JUMPI POP POP POP DUP2 ADD PUSH1 0x20 ADD PUSH2 0x120A DUP3 PUSH2 0x11FA JUMP JUMPDEST DUP1 SLOAD PUSH1 0x20 DUP6 DUP8 ADD DUP2 ADD SWAP2 SWAP1 SWAP2 MSTORE SWAP1 SWAP4 ADD SWAP3 DUP2 ADD PUSH2 0x1247 JUMP JUMPDEST PUSH1 0xFF NOT AND PUSH1 0x20 DUP1 DUP8 ADD SWAP2 SWAP1 SWAP2 MSTORE SWAP3 ISZERO ISZERO PUSH1 0x5 SHL DUP6 ADD SWAP1 SWAP3 ADD SWAP3 POP PUSH2 0x120A SWAP2 POP DUP4 SWAP1 POP PUSH2 0x11FA JUMP JUMPDEST CALLVALUE PUSH2 0x1BA JUMPI PUSH1 0x0 CALLDATASIZE PUSH1 0x3 NOT ADD SLT PUSH2 0x1BA JUMPI PUSH1 0x6 SLOAD PUSH1 0x40 MLOAD PUSH1 0x1 PUSH1 0x1 PUSH1 0xA0 SHL SUB SWAP1 SWAP2 AND DUP2 MSTORE PUSH1 0x20 SWAP1 RETURN JUMPDEST CALLVALUE PUSH2 0x1BA JUMPI PUSH1 0x0 CALLDATASIZE PUSH1 0x3 NOT ADD SLT PUSH2 0x1BA JUMPI PUSH2 0x12E0 PUSH2 0x1DA3 JUMP JUMPDEST PUSH1 0x6 DUP1 SLOAD PUSH1 0x1 PUSH1 0x1 PUSH1 0xA0 SHL SUB NOT DUP2 AND SWAP1 SWAP2 SSTORE PUSH1 0x0 SWAP1 PUSH1 0x1 PUSH1 0x1 PUSH1 0xA0 SHL SUB AND PUSH32 0x8BE0079C531659141344CD1FD0A4F28419497F9722A3DAAFE3B4186F6B6457E0 DUP3 DUP1 LOG3 STOP JUMPDEST CALLVALUE PUSH2 0x1BA JUMPI PUSH1 0x20 CALLDATASIZE PUSH1 0x3 NOT ADD SLT PUSH2 0x1BA JUMPI PUSH1 0x1 PUSH1 0x1 PUSH1 0xA0 SHL SUB PUSH2 0x1345 PUSH2 0x1C34 JUMP JUMPDEST AND DUP1 ISZERO PUSH2 0x1364 JUMPI PUSH1 0x0 MSTORE PUSH1 0x3 PUSH1 0x20 MSTORE PUSH1 0x20 PUSH1 0x40 PUSH1 0x0 KECCAK256 SLOAD PUSH1 0x40 MLOAD SWAP1 DUP2 MSTORE RETURN JUMPDEST PUSH1 0x40 MLOAD PUSH3 0x461BCD PUSH1 0xE5 SHL DUP2 MSTORE PUSH1 0x20 PUSH1 0x4 DUP3 ADD MSTORE PUSH1 0x29 PUSH1 0x24 DUP3 ADD MSTORE PUSH32 0x4552433732313A2061646472657373207A65726F206973206E6F742061207661 PUSH1 0x44 DUP3 ADD MSTORE PUSH9 0x3634B21037BBB732B9 PUSH1 0xB9 SHL PUSH1 0x64 DUP3 ADD MSTORE PUSH1 0x84 SWAP1 REVERT JUMPDEST CALLVALUE PUSH2 0x1BA JUMPI PUSH1 0x20 CALLDATASIZE PUSH1 0x3 NOT ADD SLT PUSH2 0x1BA JUMPI PUSH1 0x20 PUSH2 0x13D9 PUSH1 0x4 CALLDATALOAD PUSH2 0x1E47 JUMP JUMPDEST PUSH1 0x40 MLOAD PUSH1 0x1 PUSH1 0x1 PUSH1 0xA0 SHL SUB SWAP1 SWAP2 AND DUP2 MSTORE RETURN JUMPDEST CALLVALUE PUSH2 0x1BA JUMPI PUSH1 0x20 DUP1 PUSH1 0x3 NOT CALLDATASIZE ADD SLT PUSH2 0x1BA JUMPI PUSH1 0x4 CALLDATALOAD PUSH1 0x1 PUSH1 0x1 PUSH1 0x40 SHL SUB DUP2 GT PUSH2 0x1BA JUMPI PUSH2 0x141C SWAP1 CALLDATASIZE SWAP1 PUSH1 0x4 ADD PUSH2 0x1BCE JUMP JUMPDEST PUSH2 0x1424 PUSH2 0x1DA3 JUMP JUMPDEST PUSH1 0x40 MLOAD DUP3 DUP2 DUP4 MLOAD PUSH2 0x1438 DUP2 DUP4 DUP6 DUP9 ADD PUSH2 0x1BEC JUMP JUMPDEST DUP2 ADD PUSH1 0x9 DUP2 MSTORE SUB ADD SWAP1 KECCAK256 SLOAD SWAP1 PUSH2 0x144F DUP3 ISZERO ISZERO PUSH2 0x241F JUMP JUMPDEST DUP2 PUSH1 0x0 MSTORE PUSH1 0x8 DUP4 MSTORE PUSH1 0x5 PUSH1 0x40 PUSH1 0x0 KECCAK256 ADD SWAP3 DUP4 SLOAD SWAP4 PUSH1 0xFF DUP6 AND ISZERO PUSH2 0x14AE JUMPI PUSH32 0x597910F3679CAFB7F2A6424B5C49748A30249CF564E039F563A1611CA77A9598 SWAP4 SWAP5 PUSH1 0xFF NOT AND SWAP1 SSTORE PUSH2 0x14A9 PUSH1 0x40 MLOAD SWAP3 DUP3 DUP5 SWAP4 DUP5 MSTORE DUP4 ADD SWAP1 PUSH2 0x1C0F JUMP JUMPDEST SUB SWAP1 LOG2 STOP JUMPDEST PUSH1 0x40 MLOAD PUSH3 0x461BCD PUSH1 0xE5 SHL DUP2 MSTORE PUSH1 0x4 DUP2 ADD DUP4 SWAP1 MSTORE PUSH1 0x18 PUSH1 0x24 DUP3 ADD MSTORE PUSH32 0x515220746F6B656E20616C7265616479207265766F6B65640000000000000000 PUSH1 0x44 DUP3 ADD MSTORE PUSH1 0x64 SWAP1 REVERT JUMPDEST CALLVALUE PUSH2 0x1BA JUMPI PUSH2 0x894 PUSH2 0x1504 CALLDATASIZE PUSH2 0x1C8E JUMP JUMPDEST SWAP1 PUSH1 0x40 MLOAD SWAP3 PUSH2 0x1512 DUP5 PUSH2 0x1B25 JUMP JUMPDEST PUSH1 0x0 DUP5 MSTORE PUSH2 0x1F0A JUMP JUMPDEST CALLVALUE PUSH2 0x1BA JUMPI PUSH2 0x894 PUSH2 0x152C CALLDATASIZE PUSH2 0x1C8E JUMP JUMPDEST SWAP2 PUSH2 0x153F PUSH2 0x153A DUP5 CALLER PUSH2 0x1FA5 JUMP JUMPDEST PUSH2 0x1EA8 JUMP JUMPDEST PUSH2 0x206D JUMP JUMPDEST CALLVALUE PUSH2 0x1BA JUMPI PUSH1 0x40 CALLDATASIZE PUSH1 0x3 NOT ADD SLT PUSH2 0x1BA JUMPI PUSH1 0x4 CALLDATALOAD PUSH1 0x1 PUSH1 0x1 PUSH1 0x40 SHL SUB DUP2 GT PUSH2 0x1BA JUMPI PUSH2 0x1574 SWAP1 CALLDATASIZE SWAP1 PUSH1 0x4 ADD PUSH2 0x1BCE JUMP JUMPDEST PUSH2 0x1590 PUSH1 0x20 PUSH1 0x24 CALLDATALOAD SWAP3 DUP2 PUSH1 0x40 MLOAD SWAP4 DUP3 DUP6 DUP1 SWAP5 MLOAD SWAP4 DUP5 SWAP3 ADD PUSH2 0x1BEC JUMP JUMPDEST DUP2 ADD PUSH1 0xA DUP2 MSTORE SUB ADD SWAP1 KECCAK256 DUP1 SLOAD DUP3 LT ISZERO PUSH2 0x1BA JUMPI PUSH1 0x20 SWAP2 PUSH2 0x15AF SWAP2 PUSH2 0x1C60 JUMP JUMPDEST SWAP1 SLOAD PUSH1 0x40 MLOAD SWAP2 PUSH1 0x3 SHL SHR DUP2 MSTORE RETURN JUMPDEST CALLVALUE PUSH2 0x1BA JUMPI PUSH1 0x40 CALLDATASIZE PUSH1 0x3 NOT ADD SLT PUSH2 0x1BA JUMPI PUSH2 0x15D6 PUSH2 0x1C34 JUMP JUMPDEST PUSH1 0x24 CALLDATALOAD SWAP1 PUSH1 0x1 PUSH1 0x1 PUSH1 0xA0 SHL SUB DUP1 DUP1 PUSH2 0x15ED DUP6 PUSH2 0x1E47 JUMP JUMPDEST AND SWAP3 AND SWAP2 DUP1 DUP4 EQ PUSH2 0x16E8 JUMPI DUP1 CALLER EQ SWAP1 DUP2 ISZERO PUSH2 0x16C3 JUMPI JUMPDEST POP ISZERO PUSH2 0x1658 JUMPI PUSH1 0x0 DUP4 DUP2 MSTORE PUSH1 0x4 PUSH1 0x20 MSTORE PUSH1 0x40 SWAP1 KECCAK256 DUP1 SLOAD PUSH1 0x1 PUSH1 0x1 PUSH1 0xA0 SHL SUB NOT AND DUP4 OR SWAP1 SSTORE PUSH2 0x1630 DUP4 PUSH2 0x1E47 JUMP JUMPDEST AND PUSH32 0x8C5BE1E5EBEC7D5BD14F71427D1E84F3DD0314C0F7B2291E5B200AC8C7C3B925 PUSH1 0x0 DUP1 LOG4 STOP JUMPDEST PUSH1 0x40 MLOAD PUSH3 0x461BCD PUSH1 0xE5 SHL DUP2 MSTORE PUSH1 0x20 PUSH1 0x4 DUP3 ADD MSTORE PUSH1 0x3D PUSH1 0x24 DUP3 ADD MSTORE PUSH32 0x4552433732313A20617070726F76652063616C6C6572206973206E6F7420746F PUSH1 0x44 DUP3 ADD MSTORE PUSH32 0x6B656E206F776E6572206F7220617070726F76656420666F7220616C6C000000 PUSH1 0x64 DUP3 ADD MSTORE PUSH1 0x84 SWAP1 REVERT JUMPDEST SWAP1 POP PUSH1 0x0 MSTORE PUSH1 0x5 PUSH1 0x20 MSTORE PUSH1 0x40 PUSH1 0x0 KECCAK256 CALLER PUSH1 0x0 MSTORE PUSH1 0x20 MSTORE PUSH1 0xFF PUSH1 0x40 PUSH1 0x0 KECCAK256 SLOAD AND DUP5 PUSH2 0x1603 JUMP JUMPDEST PUSH1 0x40 MLOAD PUSH3 0x461BCD PUSH1 0xE5 SHL DUP2 MSTORE PUSH1 0x20 PUSH1 0x4 DUP3 ADD MSTORE PUSH1 0x21 PUSH1 0x24 DUP3 ADD MSTORE PUSH32 0x4552433732313A20617070726F76616C20746F2063757272656E74206F776E65 PUSH1 0x44 DUP3 ADD MSTORE PUSH1 0x39 PUSH1 0xF9 SHL PUSH1 0x64 DUP3 ADD MSTORE PUSH1 0x84 SWAP1 REVERT JUMPDEST CALLVALUE PUSH2 0x1BA JUMPI PUSH1 0x20 DUP1 PUSH1 0x3 NOT CALLDATASIZE ADD SLT PUSH2 0x1BA JUMPI PUSH1 0x40 MLOAD PUSH2 0x120 SWAP2 PUSH1 0x4 CALLDATALOAD PUSH2 0x175C DUP4 PUSH2 0x1B09 JUMP JUMPDEST PUSH1 0x0 PUSH1 0xE0 PUSH1 0x60 SWAP5 DUP6 DUP2 MSTORE DUP6 DUP6 DUP3 ADD MSTORE DUP6 PUSH1 0x40 DUP3 ADD MSTORE DUP3 DUP7 DUP3 ADD MSTORE DUP3 PUSH1 0x80 DUP3 ADD MSTORE DUP3 PUSH1 0xA0 DUP3 ADD MSTORE DUP3 PUSH1 0xC0 DUP3 ADD MSTORE ADD MSTORE PUSH2 0x17AC PUSH2 0x4AE DUP3 PUSH1 0x0 MSTORE PUSH1 0x2 PUSH1 0x20 MSTORE PUSH1 0x1 DUP1 PUSH1 0xA0 SHL SUB PUSH1 0x40 PUSH1 0x0 KECCAK256 SLOAD AND ISZERO ISZERO SWAP1 JUMP JUMPDEST PUSH1 0x0 MSTORE PUSH1 0x8 DUP2 MSTORE PUSH1 0x40 PUSH1 0x0 KECCAK256 SWAP1 PUSH1 0x40 MLOAD SWAP3 PUSH2 0x17C6 DUP5 PUSH2 0x1B09 JUMP JUMPDEST PUSH2 0x17CF DUP4 PUSH2 0x1CFD JUMP JUMPDEST DUP5 MSTORE PUSH2 0x17DD PUSH1 0x1 DUP5 ADD PUSH2 0x1CFD JUMP JUMPDEST SWAP3 DUP3 DUP6 ADD SWAP4 DUP5 MSTORE PUSH2 0x17F0 PUSH1 0x2 DUP3 ADD PUSH2 0x1CFD JUMP JUMPDEST SWAP4 PUSH1 0x40 DUP7 ADD SWAP5 DUP6 MSTORE PUSH1 0x3 DUP3 ADD SLOAD SWAP5 DUP4 DUP8 ADD SWAP6 DUP7 MSTORE PUSH2 0x1886 PUSH1 0x4 DUP5 ADD SLOAD SWAP2 PUSH1 0x80 DUP10 ADD SWAP3 DUP4 MSTORE PUSH1 0xFF PUSH1 0x5 DUP7 ADD SLOAD AND SWAP4 PUSH1 0xA0 DUP11 ADD SWAP5 ISZERO ISZERO DUP6 MSTORE PUSH1 0x7 PUSH1 0x6 DUP8 ADD SLOAD SWAP7 PUSH1 0xC0 DUP13 ADD SWAP8 DUP9 MSTORE ADD SLOAD SWAP7 PUSH1 0xE0 DUP12 ADD SWAP8 DUP9 MSTORE PUSH2 0x1876 PUSH2 0x1860 PUSH1 0x40 MLOAD DUP1 SWAP15 DUP2 SWAP15 DUP14 DUP4 MSTORE MLOAD SWAP2 PUSH2 0x100 DUP1 SWAP15 DUP3 ADD MSTORE ADD SWAP1 PUSH2 0x1C0F JUMP JUMPDEST SWAP3 MLOAD PUSH1 0x1F NOT DUP14 DUP6 SUB DUP2 ADD PUSH1 0x40 DUP16 ADD MSTORE SWAP4 SWAP1 PUSH2 0x1C0F JUMP JUMPDEST SWAP3 MLOAD SWAP2 DUP12 DUP5 SUB ADD SWAP1 DUP12 ADD MSTORE PUSH2 0x1C0F JUMP JUMPDEST SWAP6 MLOAD PUSH1 0x80 DUP9 ADD MSTORE MLOAD PUSH1 0xA0 DUP8 ADD MSTORE MLOAD ISZERO ISZERO PUSH1 0xC0 DUP7 ADD MSTORE MLOAD PUSH1 0xE0 DUP6 ADD MSTORE MLOAD SWAP1 DUP4 ADD MSTORE SUB SWAP1 RETURN JUMPDEST CALLVALUE PUSH2 0x1BA JUMPI PUSH1 0x20 CALLDATASIZE PUSH1 0x3 NOT ADD SLT PUSH2 0x1BA JUMPI PUSH1 0x20 PUSH2 0x13D9 PUSH1 0x4 CALLDATALOAD PUSH2 0x1E6A JUMP JUMPDEST CALLVALUE PUSH2 0x1BA JUMPI PUSH1 0x0 CALLDATASIZE PUSH1 0x3 NOT ADD SLT PUSH2 0x1BA JUMPI PUSH1 0x40 MLOAD PUSH1 0x0 DUP1 SLOAD PUSH2 0x18E9 DUP2 PUSH2 0x1CC3 JUMP JUMPDEST DUP1 DUP5 MSTORE SWAP1 PUSH1 0x1 SWAP1 DUP2 DUP2 AND SWAP1 DUP2 ISZERO PUSH2 0x1277 JUMPI POP PUSH1 0x1 EQ PUSH2 0x1912 JUMPI PUSH2 0x80B DUP5 PUSH2 0x120A DUP2 DUP7 SUB DUP3 PUSH2 0x1B5B JUMP JUMPDEST PUSH1 0x0 DUP1 DUP1 MSTORE SWAP3 POP PUSH32 0x290DECD9548B62A8D60345A988386FC84BA6BC95484008F6362F93160EF3E563 JUMPDEST DUP3 DUP5 LT PUSH2 0x1953 JUMPI POP POP POP DUP2 ADD PUSH1 0x20 ADD PUSH2 0x120A DUP3 PUSH2 0x11FA JUMP JUMPDEST DUP1 SLOAD PUSH1 0x20 DUP6 DUP8 ADD DUP2 ADD SWAP2 SWAP1 SWAP2 MSTORE SWAP1 SWAP4 ADD SWAP3 DUP2 ADD PUSH2 0x193B JUMP JUMPDEST CALLVALUE PUSH2 0x1BA JUMPI PUSH1 0x20 DUP1 PUSH1 0x3 NOT CALLDATASIZE ADD SLT PUSH2 0x1BA JUMPI PUSH1 0x4 CALLDATALOAD PUSH1 0x1 PUSH1 0x1 PUSH1 0x40 SHL SUB DUP2 GT PUSH2 0x1BA JUMPI PUSH2 0x199C SWAP1 CALLDATASIZE SWAP1 PUSH1 0x4 ADD PUSH2 0x1BCE JUMP JUMPDEST PUSH2 0x19A4 PUSH2 0x1DA3 JUMP JUMPDEST PUSH1 0x40 MLOAD DUP3 DUP2 DUP4 MLOAD PUSH2 0x19B8 DUP2 DUP4 DUP6 DUP9 ADD PUSH2 0x1BEC JUMP JUMPDEST DUP2 ADD PUSH1 0x9 DUP2 MSTORE SUB ADD SWAP1 KECCAK256 SLOAD SWAP2 PUSH2 0x19CF DUP4 ISZERO ISZERO PUSH2 0x241F JUMP JUMPDEST DUP3 PUSH1 0x0 MSTORE PUSH1 0x8 DUP2 MSTORE PUSH1 0x40 PUSH1 0x0 KECCAK256 SWAP2 PUSH1 0xFF PUSH1 0x5 DUP5 ADD SLOAD AND ISZERO PUSH2 0x1A60 JUMPI PUSH1 0x6 DUP4 ADD DUP1 SLOAD SWAP3 SWAP1 PUSH1 0x0 NOT DUP5 EQ PUSH2 0x1A4A JUMPI PUSH32 0x7E13E9ED44205303889DE4DF492DB2DE37794203F1A6DABF112A56A47ABDC042 SWAP5 PUSH1 0x1 PUSH2 0x1A41 SWAP6 ADD DUP1 SWAP3 SSTORE PUSH1 0x7 TIMESTAMP SWAP2 ADD SSTORE PUSH1 0x40 MLOAD SWAP4 DUP5 SWAP4 PUSH1 0x40 DUP6 MSTORE PUSH1 0x40 DUP6 ADD SWAP1 PUSH2 0x1C0F JUMP JUMPDEST SWAP2 DUP4 ADD MSTORE SUB SWAP1 LOG2 STOP JUMPDEST PUSH4 0x4E487B71 PUSH1 0xE0 SHL PUSH1 0x0 MSTORE PUSH1 0x11 PUSH1 0x4 MSTORE PUSH1 0x24 PUSH1 0x0 REVERT JUMPDEST PUSH1 0x40 MLOAD PUSH3 0x461BCD PUSH1 0xE5 SHL DUP2 MSTORE PUSH1 0x4 DUP2 ADD DUP4 SWAP1 MSTORE PUSH1 0x16 PUSH1 0x24 DUP3 ADD MSTORE PUSH22 0x515220746F6B656E206973206E6F7420616374697665 PUSH1 0x50 SHL PUSH1 0x44 DUP3 ADD MSTORE PUSH1 0x64 SWAP1 REVERT JUMPDEST CALLVALUE PUSH2 0x1BA JUMPI PUSH1 0x20 CALLDATASIZE PUSH1 0x3 NOT ADD SLT PUSH2 0x1BA JUMPI PUSH1 0x4 CALLDATALOAD SWAP1 PUSH4 0xFFFFFFFF PUSH1 0xE0 SHL DUP3 AND DUP1 SWAP3 SUB PUSH2 0x1BA JUMPI PUSH1 0x20 SWAP2 PUSH4 0x80AC58CD PUSH1 0xE0 SHL DUP2 EQ SWAP1 DUP2 ISZERO PUSH2 0x1AF8 JUMPI JUMPDEST DUP2 ISZERO PUSH2 0x1AE7 JUMPI JUMPDEST POP ISZERO ISZERO DUP2 MSTORE RETURN JUMPDEST PUSH4 0x1FFC9A7 PUSH1 0xE0 SHL EQ SWAP1 POP DUP4 PUSH2 0x1AE0 JUMP JUMPDEST PUSH4 0x5B5E139F PUSH1 0xE0 SHL DUP2 EQ SWAP2 POP PUSH2 0x1AD9 JUMP JUMPDEST PUSH2 0x100 DUP2 ADD SWAP1 DUP2 LT PUSH1 0x1 PUSH1 0x1 PUSH1 0x40 SHL SUB DUP3 GT OR PUSH2 0xDF7 JUMPI PUSH1 0x40 MSTORE JUMP JUMPDEST PUSH1 0x20 DUP2 ADD SWAP1 DUP2 LT PUSH1 0x1 PUSH1 0x1 PUSH1 0x40 SHL SUB DUP3 GT OR PUSH2 0xDF7 JUMPI PUSH1 0x40 MSTORE JUMP JUMPDEST PUSH1 0x40 DUP2 ADD SWAP1 DUP2 LT PUSH1 0x1 PUSH1 0x1 PUSH1 0x40 SHL SUB DUP3 GT OR PUSH2 0xDF7 JUMPI PUSH1 0x40 MSTORE JUMP JUMPDEST SWAP1 PUSH1 0x1F DUP1 NOT SWAP2 ADD AND DUP2 ADD SWAP1 DUP2 LT PUSH1 0x1 PUSH1 0x1 PUSH1 0x40 SHL SUB DUP3 GT OR PUSH2 0xDF7 JUMPI PUSH1 0x40 MSTORE JUMP JUMPDEST PUSH1 0x1 PUSH1 0x1 PUSH1 0x40 SHL SUB DUP2 GT PUSH2 0xDF7 JUMPI PUSH1 0x1F ADD PUSH1 0x1F NOT AND PUSH1 0x20 ADD SWAP1 JUMP JUMPDEST SWAP3 SWAP2 SWAP3 PUSH2 0x1BA3 DUP3 PUSH2 0x1B7C JUMP JUMPDEST SWAP2 PUSH2 0x1BB1 PUSH1 0x40 MLOAD SWAP4 DUP5 PUSH2 0x1B5B JUMP JUMPDEST DUP3 SWAP5 DUP2 DUP5 MSTORE DUP2 DUP4 ADD GT PUSH2 0x1BA JUMPI DUP3 DUP2 PUSH1 0x20 SWAP4 DUP5 PUSH1 0x0 SWAP7 ADD CALLDATACOPY ADD ADD MSTORE JUMP JUMPDEST SWAP1 DUP1 PUSH1 0x1F DUP4 ADD SLT ISZERO PUSH2 0x1BA JUMPI DUP2 PUSH1 0x20 PUSH2 0x1BE9 SWAP4 CALLDATALOAD SWAP2 ADD PUSH2 0x1B97 JUMP JUMPDEST SWAP1 JUMP JUMPDEST PUSH1 0x0 JUMPDEST DUP4 DUP2 LT PUSH2 0x1BFF JUMPI POP POP PUSH1 0x0 SWAP2 ADD MSTORE JUMP JUMPDEST DUP2 DUP2 ADD MLOAD DUP4 DUP3 ADD MSTORE PUSH1 0x20 ADD PUSH2 0x1BEF JUMP JUMPDEST SWAP1 PUSH1 0x20 SWAP2 PUSH2 0x1C28 DUP2 MLOAD DUP1 SWAP3 DUP2 DUP6 MSTORE DUP6 DUP1 DUP7 ADD SWAP2 ADD PUSH2 0x1BEC JUMP JUMPDEST PUSH1 0x1F ADD PUSH1 0x1F NOT AND ADD ADD SWAP1 JUMP JUMPDEST PUSH1 0x4 CALLDATALOAD SWAP1 PUSH1 0x1 PUSH1 0x1 PUSH1 0xA0 SHL SUB DUP3 AND DUP3 SUB PUSH2 0x1BA JUMPI JUMP JUMPDEST PUSH1 0x24 CALLDATALOAD SWAP1 PUSH1 0x1 PUSH1 0x1 PUSH1 0xA0 SHL SUB DUP3 AND DUP3 SUB PUSH2 0x1BA JUMPI JUMP JUMPDEST DUP1 SLOAD DUP3 LT ISZERO PUSH2 0x1C78 JUMPI PUSH1 0x0 MSTORE PUSH1 0x20 PUSH1 0x0 KECCAK256 ADD SWAP1 PUSH1 0x0 SWAP1 JUMP JUMPDEST PUSH4 0x4E487B71 PUSH1 0xE0 SHL PUSH1 0x0 MSTORE PUSH1 0x32 PUSH1 0x4 MSTORE PUSH1 0x24 PUSH1 0x0 REVERT JUMPDEST PUSH1 0x60 SWAP1 PUSH1 0x3 NOT ADD SLT PUSH2 0x1BA JUMPI PUSH1 0x1 PUSH1 0x1 PUSH1 0xA0 SHL SUB SWAP1 PUSH1 0x4 CALLDATALOAD DUP3 DUP2 AND DUP2 SUB PUSH2 0x1BA JUMPI SWAP2 PUSH1 0x24 CALLDATALOAD SWAP1 DUP2 AND DUP2 SUB PUSH2 0x1BA JUMPI SWAP1 PUSH1 0x44 CALLDATALOAD SWAP1 JUMP JUMPDEST SWAP1 PUSH1 0x1 DUP3 DUP2 SHR SWAP3 AND DUP1 ISZERO PUSH2 0x1CF3 JUMPI JUMPDEST PUSH1 0x20 DUP4 LT EQ PUSH2 0x1CDD JUMPI JUMP JUMPDEST PUSH4 0x4E487B71 PUSH1 0xE0 SHL PUSH1 0x0 MSTORE PUSH1 0x22 PUSH1 0x4 MSTORE PUSH1 0x24 PUSH1 0x0 REVERT JUMPDEST SWAP2 PUSH1 0x7F AND SWAP2 PUSH2 0x1CD2 JUMP JUMPDEST SWAP1 PUSH1 0x40 MLOAD SWAP2 DUP3 PUSH1 0x0 DUP3 SLOAD SWAP3 PUSH2 0x1D11 DUP5 PUSH2 0x1CC3 JUMP JUMPDEST SWAP1 DUP2 DUP5 MSTORE PUSH1 0x1 SWAP5 DUP6 DUP2 AND SWAP1 DUP2 PUSH1 0x0 EQ PUSH2 0x1D80 JUMPI POP PUSH1 0x1 EQ PUSH2 0x1D3D JUMPI JUMPDEST POP POP PUSH2 0x1D3B SWAP3 POP SUB DUP4 PUSH2 0x1B5B JUMP JUMPDEST JUMP JUMPDEST SWAP1 SWAP4 SWAP2 POP PUSH1 0x0 MSTORE PUSH1 0x20 SWAP1 DUP2 PUSH1 0x0 KECCAK256 SWAP4 PUSH1 0x0 SWAP2 JUMPDEST DUP2 DUP4 LT PUSH2 0x1D68 JUMPI POP POP PUSH2 0x1D3B SWAP4 POP DUP3 ADD ADD CODESIZE DUP1 PUSH2 0x1D2D JUMP JUMPDEST DUP6 SLOAD DUP9 DUP5 ADD DUP6 ADD MSTORE SWAP5 DUP6 ADD SWAP5 DUP8 SWAP5 POP SWAP2 DUP4 ADD SWAP2 PUSH2 0x1D50 JUMP JUMPDEST SWAP2 POP POP PUSH2 0x1D3B SWAP5 POP PUSH1 0x20 SWAP3 POP PUSH1 0xFF NOT AND DUP3 DUP5 ADD MSTORE ISZERO ISZERO PUSH1 0x5 SHL DUP3 ADD ADD CODESIZE DUP1 PUSH2 0x1D2D JUMP JUMPDEST PUSH1 0x6 SLOAD PUSH1 0x1 PUSH1 0x1 PUSH1 0xA0 SHL SUB AND CALLER SUB PUSH2 0x1DB7 JUMPI JUMP JUMPDEST PUSH1 0x64 PUSH1 0x40 MLOAD PUSH3 0x461BCD PUSH1 0xE5 SHL DUP2 MSTORE PUSH1 0x20 PUSH1 0x4 DUP3 ADD MSTORE PUSH1 0x20 PUSH1 0x24 DUP3 ADD MSTORE PUSH32 0x4F776E61626C653A2063616C6C6572206973206E6F7420746865206F776E6572 PUSH1 0x44 DUP3 ADD MSTORE REVERT JUMPDEST ISZERO PUSH2 0x1E02 JUMPI JUMP JUMPDEST PUSH1 0x40 MLOAD PUSH3 0x461BCD PUSH1 0xE5 SHL DUP2 MSTORE PUSH1 0x20 PUSH1 0x4 DUP3 ADD MSTORE PUSH1 0x18 PUSH1 0x24 DUP3 ADD MSTORE PUSH32 0x4552433732313A20696E76616C696420746F6B656E2049440000000000000000 PUSH1 0x44 DUP3 ADD MSTORE PUSH1 0x64 SWAP1 REVERT JUMPDEST PUSH1 0x0 SWAP1 DUP2 MSTORE PUSH1 0x2 PUSH1 0x20 MSTORE PUSH1 0x40 SWAP1 KECCAK256 SLOAD PUSH1 0x1 PUSH1 0x1 PUSH1 0xA0 SHL SUB AND PUSH2 0x1BE9 DUP2 ISZERO ISZERO PUSH2 0x1DFB JUMP JUMPDEST PUSH1 0x0 DUP2 DUP2 MSTORE PUSH1 0x2 PUSH1 0x20 MSTORE PUSH1 0x40 SWAP1 KECCAK256 SLOAD PUSH2 0x1E8D SWAP1 PUSH1 0x1 PUSH1 0x1 PUSH1 0xA0 SHL SUB AND ISZERO ISZERO PUSH2 0x1DFB JUMP JUMPDEST PUSH1 0x0 SWAP1 DUP2 MSTORE PUSH1 0x4 PUSH1 0x20 MSTORE PUSH1 0x40 SWAP1 KECCAK256 SLOAD PUSH1 0x1 PUSH1 0x1 PUSH1 0xA0 SHL SUB AND SWAP1 JUMP JUMPDEST ISZERO PUSH2 0x1EAF JUMPI JUMP JUMPDEST PUSH1 0x40 MLOAD PUSH3 0x461BCD PUSH1 0xE5 SHL DUP2 MSTORE PUSH1 0x20 PUSH1 0x4 DUP3 ADD MSTORE PUSH1 0x2D PUSH1 0x24 DUP3 ADD MSTORE PUSH32 0x4552433732313A2063616C6C6572206973206E6F7420746F6B656E206F776E65 PUSH1 0x44 DUP3 ADD MSTORE PUSH13 0x1C881BDC88185C1C1C9BDD9959 PUSH1 0x9A SHL PUSH1 0x64 DUP3 ADD MSTORE PUSH1 0x84 SWAP1 REVERT JUMPDEST SWAP1 PUSH2 0x1F2E SWAP4 SWAP3 SWAP2 PUSH2 0x1F1E PUSH2 0x153A DUP5 CALLER PUSH2 0x1FA5 JUMP JUMPDEST PUSH2 0x1F29 DUP4 DUP4 DUP4 PUSH2 0x206D JUMP JUMPDEST PUSH2 0x2183 JUMP JUMPDEST ISZERO PUSH2 0x1F35 JUMPI JUMP JUMPDEST PUSH1 0x40 MLOAD PUSH3 0x461BCD PUSH1 0xE5 SHL DUP2 MSTORE DUP1 PUSH2 0x1F4E PUSH1 0x4 DUP3 ADD PUSH2 0x1F52 JUMP JUMPDEST SUB SWAP1 REVERT JUMPDEST PUSH1 0x80 SWAP1 PUSH1 0x20 DUP2 MSTORE PUSH1 0x32 PUSH1 0x20 DUP3 ADD MSTORE PUSH32 0x4552433732313A207472616E7366657220746F206E6F6E204552433732315265 PUSH1 0x40 DUP3 ADD MSTORE PUSH18 0x31B2B4BB32B91034B6B83632B6B2B73A32B9 PUSH1 0x71 SHL PUSH1 0x60 DUP3 ADD MSTORE ADD SWAP1 JUMP JUMPDEST SWAP1 PUSH1 0x1 PUSH1 0x1 PUSH1 0xA0 SHL SUB DUP1 DUP1 PUSH2 0x1FB9 DUP5 PUSH2 0x1E47 JUMP JUMPDEST AND SWAP4 AND SWAP2 DUP4 DUP4 EQ SWAP4 DUP5 ISZERO PUSH2 0x1FEC JUMPI JUMPDEST POP DUP4 ISZERO PUSH2 0x1FD6 JUMPI JUMPDEST POP POP POP SWAP1 JUMP JUMPDEST PUSH2 0x1FE2 SWAP2 SWAP3 SWAP4 POP PUSH2 0x1E6A JUMP JUMPDEST AND EQ CODESIZE DUP1 DUP1 PUSH2 0x1FD0 JUMP JUMPDEST SWAP1 SWAP4 POP PUSH1 0x0 MSTORE PUSH1 0x5 PUSH1 0x20 MSTORE PUSH1 0x40 PUSH1 0x0 KECCAK256 DUP3 PUSH1 0x0 MSTORE PUSH1 0x20 MSTORE PUSH1 0xFF PUSH1 0x40 PUSH1 0x0 KECCAK256 SLOAD AND SWAP3 CODESIZE PUSH2 0x1FC8 JUMP JUMPDEST ISZERO PUSH2 0x201A JUMPI JUMP JUMPDEST PUSH1 0x40 MLOAD PUSH3 0x461BCD PUSH1 0xE5 SHL DUP2 MSTORE PUSH1 0x20 PUSH1 0x4 DUP3 ADD MSTORE PUSH1 0x25 PUSH1 0x24 DUP3 ADD MSTORE PUSH32 0x4552433732313A207472616E736665722066726F6D20696E636F727265637420 PUSH1 0x44 DUP3 ADD MSTORE PUSH5 0x37BBB732B9 PUSH1 0xD9 SHL PUSH1 0x64 DUP3 ADD MSTORE PUSH1 0x84 SWAP1 REVERT JUMPDEST SWAP1 PUSH2 0x2095 SWAP2 PUSH2 0x207B DUP5 PUSH2 0x1E47 JUMP JUMPDEST PUSH1 0x1 PUSH1 0x1 PUSH1 0xA0 SHL SUB SWAP4 SWAP2 DUP5 AND SWAP3 DUP5 SWAP3 SWAP1 SWAP2 DUP4 AND DUP5 EQ PUSH2 0x2013 JUMP JUMPDEST AND SWAP2 DUP3 ISZERO PUSH2 0x2132 JUMPI DUP2 PUSH2 0x20B2 SWAP2 PUSH2 0x20AB DUP7 PUSH2 0x1E47 JUMP JUMPDEST AND EQ PUSH2 0x2013 JUMP JUMPDEST PUSH32 0xDDF252AD1BE2C89B69C2B068FC378DAA952BA7F163C4A11628F55A4DF523B3EF PUSH1 0x0 DUP5 DUP2 MSTORE PUSH1 0x4 PUSH1 0x20 MSTORE PUSH1 0x40 DUP2 KECCAK256 PUSH12 0xFFFFFFFFFFFFFFFFFFFFFFFF PUSH1 0xA0 SHL SWAP1 DUP2 DUP2 SLOAD AND SWAP1 SSTORE DUP4 DUP3 MSTORE PUSH1 0x3 PUSH1 0x20 MSTORE PUSH1 0x40 DUP3 KECCAK256 PUSH1 0x0 NOT DUP2 SLOAD ADD SWAP1 SSTORE DUP5 DUP3 MSTORE PUSH1 0x40 DUP3 KECCAK256 PUSH1 0x1 DUP2 SLOAD ADD SWAP1 SSTORE DUP6 DUP3 MSTORE PUSH1 0x2 PUSH1 0x20 MSTORE DUP5 PUSH1 0x40 DUP4 KECCAK256 SWAP2 DUP3 SLOAD AND OR SWAP1 SSTORE DUP1 LOG4 JUMP JUMPDEST PUSH1 0x40 MLOAD PUSH3 0x461BCD PUSH1 0xE5 SHL DUP2 MSTORE PUSH1 0x20 PUSH1 0x4 DUP3 ADD MSTORE PUSH1 0x24 DUP1 DUP3 ADD MSTORE PUSH32 0x4552433732313A207472616E7366657220746F20746865207A65726F20616464 PUSH1 0x44 DUP3 ADD MSTORE PUSH4 0x72657373 PUSH1 0xE0 SHL PUSH1 0x64 DUP3 ADD MSTORE PUSH1 0x84 SWAP1 REVERT JUMPDEST SWAP3 SWAP4 PUSH1 0x0 SWAP4 SWAP1 SWAP3 SWAP2 DUP1 EXTCODESIZE ISZERO PUSH2 0x229D JUMPI SWAP5 DUP5 SWAP2 PUSH2 0x21DD SWAP7 PUSH1 0x40 MLOAD DUP1 SWAP5 DUP2 SWAP4 PUSH4 0xA85BD01 PUSH1 0xE1 SHL SWAP8 DUP9 DUP5 MSTORE CALLER PUSH1 0x4 DUP6 ADD MSTORE PUSH1 0x1 DUP1 PUSH1 0xA0 SHL SUB DUP1 SWAP3 AND PUSH1 0x24 DUP6 ADD MSTORE PUSH1 0x44 DUP5 ADD MSTORE PUSH1 0x80 PUSH1 0x64 DUP5 ADD MSTORE DUP3 PUSH1 0x20 SWAP12 DUP13 SWAP8 PUSH1 0x84 DUP4 ADD SWAP1 PUSH2 0x1C0F JUMP JUMPDEST SUB SWAP4 AND GAS CALL DUP5 SWAP2 DUP2 PUSH2 0x2259 JUMPI JUMPDEST POP PUSH2 0x2248 JUMPI POP POP POP RETURNDATASIZE PUSH1 0x0 EQ PUSH2 0x2240 JUMPI RETURNDATASIZE PUSH2 0x2204 DUP2 PUSH2 0x1B7C JUMP JUMPDEST SWAP1 PUSH2 0x2212 PUSH1 0x40 MLOAD SWAP3 DUP4 PUSH2 0x1B5B JUMP JUMPDEST DUP2 MSTORE DUP1 SWAP2 DUP4 RETURNDATASIZE SWAP3 ADD RETURNDATACOPY JUMPDEST DUP1 MLOAD SWAP2 DUP3 PUSH2 0x223D JUMPI PUSH1 0x40 MLOAD PUSH3 0x461BCD PUSH1 0xE5 SHL DUP2 MSTORE DUP1 PUSH2 0x1F4E PUSH1 0x4 DUP3 ADD PUSH2 0x1F52 JUMP JUMPDEST ADD REVERT JUMPDEST POP PUSH1 0x60 PUSH2 0x221C JUMP JUMPDEST PUSH1 0x1 PUSH1 0x1 PUSH1 0xE0 SHL SUB NOT AND EQ SWAP3 POP SWAP1 POP JUMP JUMPDEST SWAP1 SWAP2 POP DUP6 DUP2 DUP2 RETURNDATASIZE DUP4 GT PUSH2 0x2296 JUMPI JUMPDEST PUSH2 0x2271 DUP2 DUP4 PUSH2 0x1B5B JUMP JUMPDEST DUP2 ADD SUB SLT PUSH2 0x2292 JUMPI MLOAD PUSH1 0x1 PUSH1 0x1 PUSH1 0xE0 SHL SUB NOT DUP2 AND DUP2 SUB PUSH2 0x2292 JUMPI SWAP1 CODESIZE PUSH2 0x21EA JUMP JUMPDEST DUP5 DUP1 REVERT JUMPDEST POP RETURNDATASIZE PUSH2 0x2267 JUMP JUMPDEST POP POP POP SWAP2 POP POP PUSH1 0x1 SWAP1 JUMP JUMPDEST ISZERO PUSH2 0x22AF JUMPI JUMP JUMPDEST PUSH1 0x40 MLOAD PUSH3 0x461BCD PUSH1 0xE5 SHL DUP2 MSTORE PUSH1 0x20 PUSH1 0x4 DUP3 ADD MSTORE PUSH1 0x1C PUSH1 0x24 DUP3 ADD MSTORE PUSH32 0x4552433732313A20746F6B656E20616C7265616479206D696E74656400000000 PUSH1 0x44 DUP3 ADD MSTORE PUSH1 0x64 SWAP1 REVERT JUMPDEST SWAP1 SWAP3 SWAP2 SWAP3 PUSH1 0x40 MLOAD DUP3 DUP2 DUP1 SWAP5 MLOAD PUSH2 0x2310 DUP2 PUSH1 0x20 SWAP8 DUP9 DUP1 SWAP7 ADD PUSH2 0x1BEC JUMP JUMPDEST DUP2 ADD PUSH1 0x9 DUP2 MSTORE SUB ADD SWAP1 KECCAK256 SLOAD SWAP4 DUP5 ISZERO PUSH2 0x2412 JUMPI PUSH1 0x0 SWAP3 DUP6 DUP5 MSTORE PUSH1 0x8 DUP2 MSTORE PUSH1 0x40 DUP5 KECCAK256 SWAP2 PUSH1 0x40 MLOAD SWAP4 PUSH2 0x233E DUP6 PUSH2 0x1B09 JUMP JUMPDEST PUSH2 0x2347 DUP5 PUSH2 0x1CFD JUMP JUMPDEST DUP6 MSTORE PUSH2 0x2355 PUSH1 0x1 DUP6 ADD PUSH2 0x1CFD JUMP JUMPDEST SWAP1 DUP4 DUP7 ADD SWAP2 DUP3 MSTORE PUSH2 0x2368 PUSH1 0x2 DUP7 ADD PUSH2 0x1CFD JUMP JUMPDEST DUP1 PUSH1 0x40 DUP9 ADD MSTORE PUSH1 0x3 DUP7 ADD SLOAD PUSH1 0x60 DUP9 ADD MSTORE PUSH1 0x4 DUP7 ADD SLOAD SWAP7 DUP8 PUSH1 0x80 DUP3 ADD MSTORE PUSH1 0xE0 PUSH1 0x7 PUSH1 0xFF PUSH1 0x5 DUP11 ADD SLOAD AND ISZERO SWAP9 DUP10 ISZERO PUSH1 0xA0 DUP6 ADD MSTORE PUSH1 0x6 DUP2 ADD SLOAD PUSH1 0xC0 DUP6 ADD MSTORE ADD SLOAD SWAP2 ADD MSTORE DUP5 DUP2 MLOAD SWAP2 ADD KECCAK256 SWAP1 DUP5 DUP2 MLOAD SWAP2 ADD KECCAK256 SUB PUSH2 0x2406 JUMPI MLOAD DUP3 DUP2 MLOAD SWAP2 ADD KECCAK256 SWAP2 DUP2 MLOAD SWAP2 ADD KECCAK256 SUB PUSH2 0x23FD JUMPI PUSH2 0x23F6 JUMPI DUP1 ISZERO ISZERO SWAP1 DUP2 PUSH2 0x23EC JUMPI JUMPDEST POP PUSH2 0x23E6 JUMPI POP PUSH1 0x1 SWAP2 SWAP1 JUMP JUMPDEST SWAP2 POP DUP2 SWAP1 JUMP JUMPDEST SWAP1 POP TIMESTAMP GT CODESIZE PUSH2 0x23DA JUMP JUMPDEST POP SWAP2 POP DUP2 SWAP1 JUMP JUMPDEST POP POP DUP1 SWAP3 POP SWAP2 SWAP1 JUMP JUMPDEST POP POP POP POP POP DUP1 SWAP3 POP SWAP2 SWAP1 JUMP JUMPDEST POP POP POP SWAP1 POP PUSH1 0x0 SWAP1 PUSH1 0x0 SWAP1 JUMP JUMPDEST ISZERO PUSH2 0x2426 JUMPI JUMP JUMPDEST PUSH1 0x40 MLOAD PUSH3 0x461BCD PUSH1 0xE5 SHL DUP2 MSTORE PUSH1 0x20 PUSH1 0x4 DUP3 ADD MSTORE PUSH1 0x17 PUSH1 0x24 DUP3 ADD MSTORE PUSH32 0x515220746F6B656E20646F6573206E6F74206578697374000000000000000000 PUSH1 0x44 DUP3 ADD MSTORE PUSH1 0x64 SWAP1 REVERT JUMPDEST ISZERO PUSH2 0x2472 JUMPI JUMP JUMPDEST PUSH1 0x40 MLOAD PUSH3 0x461BCD PUSH1 0xE5 SHL DUP2 MSTORE PUSH1 0x20 PUSH1 0x4 DUP3 ADD MSTORE PUSH1 0x14 PUSH1 0x24 DUP3 ADD MSTORE PUSH20 0x151BDAD95B88191BD95CC81B9BDD08195E1A5CDD PUSH1 0x62 SHL PUSH1 0x44 DUP3 ADD MSTORE PUSH1 0x64 SWAP1 REVERT JUMPDEST PUSH1 0x20 PUSH2 0x24C7 SWAP2 DUP2 PUSH1 0x40 MLOAD SWAP4 DUP3 DUP6 DUP1 SWAP5 MLOAD SWAP4 DUP5 SWAP3 ADD PUSH2 0x1BEC JUMP JUMPDEST DUP2 ADD PUSH1 0x9 DUP2 MSTORE SUB ADD SWAP1 KECCAK256 SLOAD DUP1 ISZERO PUSH2 0x2580 JUMPI PUSH1 0x0 MSTORE PUSH1 0x8 PUSH1 0x20 MSTORE PUSH1 0x40 PUSH1 0x0 KECCAK256 PUSH1 0x40 MLOAD SWAP1 PUSH2 0x24F2 DUP3 PUSH2 0x1B09 JUMP JUMPDEST PUSH2 0x24FB DUP2 PUSH2 0x1CFD JUMP JUMPDEST DUP3 MSTORE PUSH2 0x2509 PUSH1 0x1 DUP3 ADD PUSH2 0x1CFD JUMP JUMPDEST PUSH1 0x20 DUP4 ADD MSTORE PUSH2 0x251A PUSH1 0x2 DUP3 ADD PUSH2 0x1CFD JUMP JUMPDEST PUSH1 0x40 DUP4 ADD MSTORE PUSH1 0x3 DUP2 ADD SLOAD PUSH1 0x60 DUP4 ADD MSTORE PUSH1 0x4 DUP2 ADD SLOAD SWAP2 DUP3 PUSH1 0x80 DUP3 ADD MSTORE PUSH1 0xE0 PUSH1 0x7 PUSH1 0xFF PUSH1 0x5 DUP6 ADD SLOAD AND ISZERO SWAP4 DUP5 ISZERO PUSH1 0xA0 DUP6 ADD MSTORE PUSH1 0x6 DUP2 ADD SLOAD PUSH1 0xC0 DUP6 ADD MSTORE ADD SLOAD SWAP2 ADD MSTORE PUSH2 0x2580 JUMPI DUP1 ISZERO ISZERO SWAP1 DUP2 PUSH2 0x2576 JUMPI JUMPDEST POP PUSH2 0x2571 JUMPI PUSH1 0x1 SWAP1 JUMP JUMPDEST PUSH1 0x0 SWAP1 JUMP JUMPDEST SWAP1 POP TIMESTAMP GT CODESIZE PUSH2 0x2567 JUMP JUMPDEST POP PUSH1 0x0 SWAP1 JUMP JUMPDEST SWAP1 PUSH2 0x2590 DUP3 PUSH2 0x1B7C JUMP JUMPDEST PUSH2 0x259D PUSH1 0x40 MLOAD SWAP2 DUP3 PUSH2 0x1B5B JUMP JUMPDEST DUP3 DUP2 MSTORE DUP1 SWAP3 PUSH2 0x25AE PUSH1 0x1F NOT SWAP2 PUSH2 0x1B7C JUMP JUMPDEST ADD SWAP1 PUSH1 0x20 CALLDATASIZE SWAP2 ADD CALLDATACOPY JUMP JUMPDEST DUP1 MLOAD ISZERO PUSH2 0x2708 JUMPI PUSH1 0x40 MLOAD SWAP1 PUSH1 0x60 DUP3 ADD DUP3 DUP2 LT PUSH1 0x1 PUSH1 0x1 PUSH1 0x40 SHL SUB DUP3 GT OR PUSH2 0xDF7 JUMPI PUSH1 0x40 MSTORE PUSH1 0x40 DUP3 MSTORE PUSH32 0x4142434445464748494A4B4C4D4E4F505152535455565758595A616263646566 PUSH1 0x20 DUP4 ADD MSTORE PUSH32 0x6768696A6B6C6D6E6F707172737475767778797A303132333435363738392B2F PUSH1 0x40 DUP4 ADD MSTORE DUP1 MLOAD PUSH1 0x2 SWAP2 DUP3 DUP3 ADD DUP1 SWAP3 GT PUSH2 0x1A4A JUMPI PUSH1 0x3 SWAP2 DUP3 SWAP1 DIV PUSH1 0x1 PUSH1 0x1 PUSH1 0xFE SHL SUB DUP2 AND DUP2 SUB PUSH2 0x1A4A JUMPI PUSH2 0x265E SWAP1 DUP5 SWAP6 SWAP5 SHL PUSH2 0x2586 JUMP JUMPDEST SWAP4 PUSH1 0x20 DUP6 ADD SWAP4 DUP3 SWAP2 DUP4 MLOAD DUP5 ADD SWAP1 PUSH1 0x20 DUP3 ADD SWAP3 DUP4 MLOAD SWAP5 PUSH1 0x0 DUP6 MSTORE JUMPDEST DUP4 DUP2 LT PUSH2 0x26B7 JUMPI POP POP POP POP MSTORE MLOAD MOD DUP1 PUSH1 0x1 EQ PUSH2 0x26A4 JUMPI PUSH1 0x2 EQ PUSH2 0x2699 JUMPI POP SWAP1 JUMP JUMPDEST PUSH1 0x3D SWAP1 PUSH1 0x0 NOT ADD MSTORE8 SWAP1 JUMP JUMPDEST POP PUSH1 0x3D SWAP1 DUP2 PUSH1 0x0 NOT DUP3 ADD MSTORE8 PUSH1 0x1 NOT ADD MSTORE8 SWAP1 JUMP JUMPDEST DUP8 PUSH1 0x4 SWAP2 SWAP10 SWAP3 SWAP4 SWAP5 SWAP10 ADD SWAP2 DUP3 MLOAD PUSH1 0x1 SWAP1 PUSH1 0x3F SWAP1 DUP3 DUP3 DUP3 PUSH1 0x12 SHR AND DUP9 ADD ADD MLOAD DUP5 MSTORE8 DUP3 DUP3 DUP3 PUSH1 0xC SHR AND DUP9 ADD ADD MLOAD DUP4 DUP6 ADD MSTORE8 DUP3 DUP3 DUP3 PUSH1 0x6 SHR AND DUP9 ADD ADD MLOAD DUP9 DUP6 ADD MSTORE8 AND DUP6 ADD ADD MLOAD DUP10 DUP3 ADD MSTORE8 ADD SWAP8 SWAP3 SWAP2 SWAP1 PUSH2 0x2678 JUMP JUMPDEST POP PUSH1 0x40 MLOAD PUSH2 0x2715 DUP2 PUSH2 0x1B25 JUMP JUMPDEST PUSH1 0x0 DUP2 MSTORE SWAP1 JUMP JUMPDEST DUP1 PUSH1 0x0 SWAP2 PUSH27 0x184F03E93FF9F4DAA797ED6E38ED64BF6A1F010000000000000000 DUP1 DUP3 LT ISZERO PUSH2 0x2851 JUMPI JUMPDEST POP PUSH14 0x4EE2D6D415B85ACEF8100000000 DUP1 DUP4 LT ISZERO PUSH2 0x2842 JUMPI JUMPDEST POP PUSH7 0x2386F26FC10000 DUP1 DUP4 LT ISZERO PUSH2 0x2833 JUMPI JUMPDEST POP PUSH4 0x5F5E100 DUP1 DUP4 LT ISZERO PUSH2 0x2824 JUMPI JUMPDEST POP PUSH2 0x2710 DUP1 DUP4 LT ISZERO PUSH2 0x2815 JUMPI JUMPDEST POP PUSH1 0x64 DUP3 LT ISZERO PUSH2 0x2805 JUMPI JUMPDEST PUSH1 0xA DUP1 SWAP3 LT ISZERO PUSH2 0x27FB JUMPI JUMPDEST PUSH1 0x1 SWAP1 DUP2 PUSH1 0x21 PUSH2 0x27B3 DUP3 DUP8 ADD PUSH2 0x2586 JUMP JUMPDEST SWAP6 DUP7 ADD ADD SWAP1 JUMPDEST PUSH2 0x27C5 JUMPI JUMPDEST POP POP POP POP SWAP1 JUMP JUMPDEST PUSH1 0x0 NOT ADD SWAP1 DUP4 SWAP1 PUSH16 0x181899199A1A9B1B9C1CB0B131B232B3 PUSH1 0x81 SHL DUP3 DUP3 MOD BYTE DUP4 MSTORE8 DIV SWAP2 DUP3 ISZERO PUSH2 0x27F6 JUMPI SWAP2 SWAP1 DUP3 PUSH2 0x27B9 JUMP JUMPDEST PUSH2 0x27BE JUMP JUMPDEST SWAP2 PUSH1 0x1 ADD SWAP2 PUSH2 0x27A2 JUMP JUMPDEST SWAP2 SWAP1 PUSH1 0x64 PUSH1 0x2 SWAP2 DIV SWAP2 ADD SWAP2 PUSH2 0x2797 JUMP JUMPDEST PUSH1 0x4 SWAP2 SWAP4 SWAP3 DIV SWAP2 ADD SWAP2 CODESIZE PUSH2 0x278C JUMP JUMPDEST PUSH1 0x8 SWAP2 SWAP4 SWAP3 DIV SWAP2 ADD SWAP2 CODESIZE PUSH2 0x277F JUMP JUMPDEST PUSH1 0x10 SWAP2 SWAP4 SWAP3 DIV SWAP2 ADD SWAP2 CODESIZE PUSH2 0x2770 JUMP JUMPDEST PUSH1 0x20 SWAP2 SWAP4 SWAP3 DIV SWAP2 ADD SWAP2 CODESIZE PUSH2 0x275E JUMP JUMPDEST PUSH1 0x40 SWAP4 POP DUP2 DIV SWAP2 POP CODESIZE PUSH2 0x2745 JUMP INVALID LOG2 PUSH5 0x6970667358 0x22 SLT KECCAK256 REVERT POP TIMESTAMP 0xBD DUP11 SSTORE PUSH26 0xD8980411D9B9C5FCA8A6EAF86B2B0A5AC2C45068A1B43E5C8064 PUSH20 0x6F6C634300081300330000000000000000000000 "},"methodIdentifiers":{"approve(address,uint256)":"095ea7b3","balanceOf(address)":"70a08231","employeeTokens(string,uint256)":"1561fd23","getApproved(uint256)":"081812fc","getEmployeeTokens(string)":"f404dd49","getQRToken(uint256)":"0835ab3c","isApprovedForAll(address,address)":"e985e9c5","isQRValid(string)":"9fdf94dc","mintQRToken(address,string,string,string,uint256)":"9bccba73","name()":"06fdde03","owner()":"8da5cb5b","ownerOf(uint256)":"6352211e","qrCodeToTokenId(string)":"9e5c5e61","qrTokens(uint256)":"e0f18211","recordQRUsage(string)":"0316569d","renounceOwnership()":"715018a6","revokeQRToken(string)":"52c33a6c","safeTransferFrom(address,address,uint256)":"42842e0e","safeTransferFrom(address,address,uint256,bytes)":"b88d4fde","setApprovalForAll(address,bool)":"a22cb465","supportsInterface(bytes4)":"01ffc9a7","symbol()":"95d89b41","tokenURI(uint256)":"c87b56dd","transferFrom(address,address,uint256)":"23b872dd","transferOwnership(address)":"f2fde38b","verifyQRToken(string,string,string)":"fe4a30c2"}}}}}